{
	"data": {
		"bytecode": {
			"linkReferences": {},
			"object": "60806040526200000e62000185565b6200001e9060ff16600a6200044a565b62000030906509184e72a0006200053f565b6009553480156200004057600080fd5b506040518060400160405280600c81526020016b283934bb30ba32aa37b5b2b760a11b81525060405180604001604052806002815260200161141560f21b8152506000620000936200018a60201b60201c565b600080546001600160a01b0319166001600160a01b0383169081178255604051929350917f8be0079c531659141344cd1fd0a4f28419497f9722a3daafe3b4186f6b6457e0908290a3506001805480820182557fb10e2d527612073b26eecdfd717e6a320cf44b4afac2b0732d9fcbe2b7fa0cf60180546001600160a01b031916339081179091556000908152600260209081526040909120805460ff191690921790915582516200014c9160069190850190620002b2565b50805162000162906007906020840190620002b2565b50506008805460ff19169055506009546200017f9033906200018e565b620005b4565b601290565b3390565b6001600160a01b038216620001c05760405162461bcd60e51b8152600401620001b79062000358565b60405180910390fd5b620001ce6000838362000262565b8060056000828254620001e29190620003e2565b90915550506001600160a01b0382166000908152600360205260408120805483929062000211908490620003e2565b90915550506040516001600160a01b038316906000907fddf252ad1be2c89b69c2b068fc378daa952ba7f163c4a11628f55a4df523b3ef9062000256908590620003d9565b60405180910390a35050565b6200027a838383620002a460201b62000a7e1760201c565b62000284620002a9565b15620002a45760405162461bcd60e51b8152600401620001b7906200038f565b505050565b60085460ff1690565b828054620002c09062000561565b90600052602060002090601f016020900481019282620002e457600085556200032f565b82601f10620002ff57805160ff19168380011785556200032f565b828001600101855582156200032f579182015b828111156200032f57825182559160200191906001019062000312565b506200033d92915062000341565b5090565b5b808211156200033d576000815560010162000342565b6020808252601f908201527f45524332303a206d696e7420746f20746865207a65726f206164647265737300604082015260600190565b6020808252602a908201527f45524332305061757361626c653a20746f6b656e207472616e736665722077686040820152691a5b19481c185d5cd95960b21b606082015260800190565b90815260200190565b60008219821115620003f857620003f86200059e565b500190565b80825b600180861162000411575062000441565b8187048211156200042657620004266200059e565b808616156200043457918102915b9490941c93800262000400565b94509492505050565b60006200045b600019848462000462565b9392505050565b60008262000473575060016200045b565b8162000482575060006200045b565b81600181146200049b5760028114620004a657620004da565b60019150506200045b565b60ff841115620004ba57620004ba6200059e565b6001841b915084821115620004d357620004d36200059e565b506200045b565b5060208310610133831016604e8410600b841016171562000512575081810a838111156200050c576200050c6200059e565b6200045b565b620005218484846001620003fd565b8086048211156200053657620005366200059e565b02949350505050565b60008160001904831182151516156200055c576200055c6200059e565b500290565b6002810460018216806200057657607f821691505b602082108114156200059857634e487b7160e01b600052602260045260246000fd5b50919050565b634e487b7160e01b600052601160045260246000fd5b61153180620005c46000396000f3fe608060405234801561001057600080fd5b506004361061014d5760003560e01c806342966c68116100c35780638da5cb5b1161007c5780638da5cb5b1461027c57806395d89b4114610291578063a457c2d714610299578063a9059cbb146102ac578063dd62ed3e146102bf578063f2fde38b146102d25761014d565b806342966c681461022b5780635c975abb1461023e578063704802751461024657806370a0823114610259578063715018a61461026c5780638456cb59146102745761014d565b806324d7806c1161011557806324d7806c146101cd5780632ff2e9dc146101e0578063313ce567146101e857806339509351146101fd5780633f4ba83a1461021057806340c10f19146102185761014d565b806306fdde0314610152578063095ea7b3146101705780631785f53c1461019057806318160ddd146101a557806323b872dd146101ba575b600080fd5b61015a6102e5565b6040516101679190611007565b60405180910390f35b61018361017e366004610fa7565b610377565b6040516101679190610ffc565b6101a361019e366004610f19565b610394565b005b6101ad6104c7565b6040516101679190611449565b6101836101c8366004610f6c565b6104cd565b6101836101db366004610f19565b610564565b6101ad610586565b6101f061058c565b6040516101679190611452565b61018361020b366004610fa7565b610591565b6101a36105e0565b6101a3610226366004610fa7565b61064d565b6101a3610239366004610fd0565b6106b0565b6101836106e2565b6101a3610254366004610f19565b6106eb565b6101ad610267366004610f19565b6107d6565b6101a36107f1565b6101a361087a565b6102846108e6565b6040516101679190610fe8565b61015a6108f5565b6101836102a7366004610fa7565b610904565b6101836102ba366004610fa7565b61097f565b6101ad6102cd366004610f3a565b610993565b6101a36102e0366004610f19565b6109be565b6060600680546102f49061148f565b80601f01602080910402602001604051908101604052809291908181526020018280546103209061148f565b801561036d5780601f106103425761010080835404028352916020019161036d565b820191906000526020600020905b81548152906001019060200180831161035057829003601f168201915b5050505050905090565b600061038b610384610a83565b8484610a87565b50600192915050565b61039c610a83565b6001600160a01b03166103ad6108e6565b6001600160a01b0316146103dc5760405162461bcd60e51b81526004016103d390611284565b60405180910390fd5b60005b6001548110156104c357816001600160a01b03166001828154811061041457634e487b7160e01b600052603260045260246000fd5b6000918252602090912001546001600160a01b031614156104b1576001818154811061045057634e487b7160e01b600052603260045260246000fd5b6000918252602080832090910180546001600160a01b03191690556001600160a01b03841680835260029091526040808320805460ff191690555190917fc715f0855a20a185f4934a71d21a10fdd4dabc049885faef1006389a1b0a160891a25b806104bb816114ca565b9150506103df565b5050565b60055490565b60006104da848484610b3b565b6001600160a01b0384166000908152600460205260408120816104fb610a83565b6001600160a01b03166001600160a01b031681526020019081526020016000205490508281101561053e5760405162461bcd60e51b81526004016103d39061123c565b6105598561054a610a83565b6105548685611478565b610a87565b506001949350505050565b6001600160a01b03811660009081526002602052604090205460ff165b919050565b60095481565b601290565b600061038b61059e610a83565b8484600460006105ac610a83565b6001600160a01b03908116825260208083019390935260409182016000908120918b16815292529020546105549190611460565b6105e8610a83565b6001600160a01b03166105f96108e6565b6001600160a01b03161461061f5760405162461bcd60e51b81526004016103d390611284565b6106276106e2565b6106435760405162461bcd60e51b81526004016103d39061109d565b61064b610c63565b565b6106556106e2565b156106725760405162461bcd60e51b81526004016103d3906111db565b3360009081526002602052604090205460ff1615156001146106a65760405162461bcd60e51b81526004016103d390611205565b6104c38282610cd1565b6106b86106e2565b156106d55760405162461bcd60e51b81526004016103d3906111db565b6106df3382610d91565b50565b60085460ff1690565b6106f3610a83565b6001600160a01b03166107046108e6565b6001600160a01b03161461072a5760405162461bcd60e51b81526004016103d390611284565b6001600160a01b03811660009081526002602052604090205460ff166106df576001805480820182557fb10e2d527612073b26eecdfd717e6a320cf44b4afac2b0732d9fcbe2b7fa0cf60180546001600160a01b0319166001600160a01b038416908117909155600081815260026020526040808220805460ff1916909417909355915190917f4550f0acb6b43e87f5e4b34b16e7fbf8af3b81b79b8077ca49ff3afa15d7e91191a250565b6001600160a01b031660009081526003602052604090205490565b6107f9610a83565b6001600160a01b031661080a6108e6565b6001600160a01b0316146108305760405162461bcd60e51b81526004016103d390611284565b600080546040516001600160a01b03909116907f8be0079c531659141344cd1fd0a4f28419497f9722a3daafe3b4186f6b6457e0908390a3600080546001600160a01b0319169055565b610882610a83565b6001600160a01b03166108936108e6565b6001600160a01b0316146108b95760405162461bcd60e51b81526004016103d390611284565b6108c16106e2565b156108de5760405162461bcd60e51b81526004016103d3906111db565b61064b610e77565b6000546001600160a01b031690565b6060600780546102f49061148f565b60008060046000610913610a83565b6001600160a01b039081168252602080830193909352604091820160009081209188168152925290205490508281101561095f5760405162461bcd60e51b81526004016103d390611383565b61097561096a610a83565b856105548685611478565b5060019392505050565b600061038b61098c610a83565b8484610b3b565b6001600160a01b03918216600090815260046020908152604080832093909416825291909152205490565b6109c6610a83565b6001600160a01b03166109d76108e6565b6001600160a01b0316146109fd5760405162461bcd60e51b81526004016103d390611284565b6001600160a01b038116610a235760405162461bcd60e51b81526004016103d39061110d565b600080546040516001600160a01b03808516939216917f8be0079c531659141344cd1fd0a4f28419497f9722a3daafe3b4186f6b6457e091a3600080546001600160a01b0319166001600160a01b0392909216919091179055565b505050565b3390565b6001600160a01b038316610aad5760405162461bcd60e51b81526004016103d39061133f565b6001600160a01b038216610ad35760405162461bcd60e51b81526004016103d390611153565b6001600160a01b0380841660008181526004602090815260408083209487168084529490915290819020849055517f8c5be1e5ebec7d5bd14f71427d1e84f3dd0314c0f7b2291e5b200ac8c7c3b92590610b2e908590611449565b60405180910390a3505050565b6001600160a01b038316610b615760405162461bcd60e51b81526004016103d3906112fa565b6001600160a01b038216610b875760405162461bcd60e51b81526004016103d39061105a565b610b92838383610ed2565b6001600160a01b03831660009081526003602052604090205481811015610bcb5760405162461bcd60e51b81526004016103d390611195565b610bd58282611478565b6001600160a01b038086166000908152600360205260408082209390935590851681529081208054849290610c0b908490611460565b92505081905550826001600160a01b0316846001600160a01b03167fddf252ad1be2c89b69c2b068fc378daa952ba7f163c4a11628f55a4df523b3ef84604051610c559190611449565b60405180910390a350505050565b610c6b6106e2565b610c875760405162461bcd60e51b81526004016103d39061109d565b6008805460ff191690557f5db9ee0a495bf2e6ff9c91a7834c1ba4fdd244a5e8aa4e537bd38aeae4b073aa610cba610a83565b604051610cc79190610fe8565b60405180910390a1565b6001600160a01b038216610cf75760405162461bcd60e51b81526004016103d3906113c8565b610d0360008383610ed2565b8060056000828254610d159190611460565b90915550506001600160a01b03821660009081526003602052604081208054839290610d42908490611460565b90915550506040516001600160a01b038316906000907fddf252ad1be2c89b69c2b068fc378daa952ba7f163c4a11628f55a4df523b3ef90610d85908590611449565b60405180910390a35050565b6001600160a01b038216610db75760405162461bcd60e51b81526004016103d3906112b9565b610dc382600083610ed2565b6001600160a01b03821660009081526003602052604090205481811015610dfc5760405162461bcd60e51b81526004016103d3906110cb565b610e068282611478565b6001600160a01b03841660009081526003602052604081209190915560058054849290610e34908490611478565b90915550506040516000906001600160a01b038516907fddf252ad1be2c89b69c2b068fc378daa952ba7f163c4a11628f55a4df523b3ef90610b2e908690611449565b610e7f6106e2565b15610e9c5760405162461bcd60e51b81526004016103d3906111db565b6008805460ff191660011790557f62e78cea01bee320cd4e420270b5ea74000d11b0c9f74754ebdbfc544b05a258610cba610a83565b610edd838383610a7e565b610ee56106e2565b15610a7e5760405162461bcd60e51b81526004016103d3906113ff565b80356001600160a01b038116811461058157600080fd5b600060208284031215610f2a578081fd5b610f3382610f02565b9392505050565b60008060408385031215610f4c578081fd5b610f5583610f02565b9150610f6360208401610f02565b90509250929050565b600080600060608486031215610f80578081fd5b610f8984610f02565b9250610f9760208501610f02565b9150604084013590509250925092565b60008060408385031215610fb9578182fd5b610fc283610f02565b946020939093013593505050565b600060208284031215610fe1578081fd5b5035919050565b6001600160a01b0391909116815260200190565b901515815260200190565b6000602080835283518082850152825b8181101561103357858101830151858201604001528201611017565b818111156110445783604083870101525b50601f01601f1916929092016040019392505050565b60208082526023908201527f45524332303a207472616e7366657220746f20746865207a65726f206164647260408201526265737360e81b606082015260800190565b60208082526014908201527314185d5cd8589b194e881b9bdd081c185d5cd95960621b604082015260600190565b60208082526022908201527f45524332303a206275726e20616d6f756e7420657863656564732062616c616e604082015261636560f01b606082015260800190565b60208082526026908201527f4f776e61626c653a206e6577206f776e657220697320746865207a65726f206160408201526564647265737360d01b606082015260800190565b60208082526022908201527f45524332303a20617070726f766520746f20746865207a65726f206164647265604082015261737360f01b606082015260800190565b60208082526026908201527f45524332303a207472616e7366657220616d6f756e7420657863656564732062604082015265616c616e636560d01b606082015260800190565b60208082526010908201526f14185d5cd8589b194e881c185d5cd95960821b604082015260600190565b60208082526018908201527f6d73672e73656e646572206d7573742062652061646d696e0000000000000000604082015260600190565b60208082526028908201527f45524332303a207472616e7366657220616d6f756e74206578636565647320616040820152676c6c6f77616e636560c01b606082015260800190565b6020808252818101527f4f776e61626c653a2063616c6c6572206973206e6f7420746865206f776e6572604082015260600190565b60208082526021908201527f45524332303a206275726e2066726f6d20746865207a65726f206164647265736040820152607360f81b606082015260800190565b60208082526025908201527f45524332303a207472616e736665722066726f6d20746865207a65726f206164604082015264647265737360d81b606082015260800190565b60208082526024908201527f45524332303a20617070726f76652066726f6d20746865207a65726f206164646040820152637265737360e01b606082015260800190565b60208082526025908201527f45524332303a2064656372656173656420616c6c6f77616e63652062656c6f77604082015264207a65726f60d81b606082015260800190565b6020808252601f908201527f45524332303a206d696e7420746f20746865207a65726f206164647265737300604082015260600190565b6020808252602a908201527f45524332305061757361626c653a20746f6b656e207472616e736665722077686040820152691a5b19481c185d5cd95960b21b606082015260800190565b90815260200190565b60ff91909116815260200190565b60008219821115611473576114736114e5565b500190565b60008282101561148a5761148a6114e5565b500390565b6002810460018216806114a357607f821691505b602082108114156114c457634e487b7160e01b600052602260045260246000fd5b50919050565b60006000198214156114de576114de6114e5565b5060010190565b634e487b7160e01b600052601160045260246000fdfea26469706673582212202b50055376ce22ffa9e4125a8087e2cd3300582fb8c13e747fd22d9613b9cbf764736f6c63430008000033",
			"opcodes": "PUSH1 0x80 PUSH1 0x40 MSTORE PUSH3 0xE PUSH3 0x185 JUMP JUMPDEST PUSH3 0x1E SWAP1 PUSH1 0xFF AND PUSH1 0xA PUSH3 0x44A JUMP JUMPDEST PUSH3 0x30 SWAP1 PUSH6 0x9184E72A000 PUSH3 0x53F JUMP JUMPDEST PUSH1 0x9 SSTORE CALLVALUE DUP1 ISZERO PUSH3 0x40 JUMPI PUSH1 0x0 DUP1 REVERT JUMPDEST POP PUSH1 0x40 MLOAD DUP1 PUSH1 0x40 ADD PUSH1 0x40 MSTORE DUP1 PUSH1 0xC DUP2 MSTORE PUSH1 0x20 ADD PUSH12 0x283934BB30BA32AA37B5B2B7 PUSH1 0xA1 SHL DUP2 MSTORE POP PUSH1 0x40 MLOAD DUP1 PUSH1 0x40 ADD PUSH1 0x40 MSTORE DUP1 PUSH1 0x2 DUP2 MSTORE PUSH1 0x20 ADD PUSH2 0x1415 PUSH1 0xF2 SHL DUP2 MSTORE POP PUSH1 0x0 PUSH3 0x93 PUSH3 0x18A PUSH1 0x20 SHL PUSH1 0x20 SHR JUMP JUMPDEST PUSH1 0x0 DUP1 SLOAD PUSH1 0x1 PUSH1 0x1 PUSH1 0xA0 SHL SUB NOT AND PUSH1 0x1 PUSH1 0x1 PUSH1 0xA0 SHL SUB DUP4 AND SWAP1 DUP2 OR DUP3 SSTORE PUSH1 0x40 MLOAD SWAP3 SWAP4 POP SWAP2 PUSH32 0x8BE0079C531659141344CD1FD0A4F28419497F9722A3DAAFE3B4186F6B6457E0 SWAP1 DUP3 SWAP1 LOG3 POP PUSH1 0x1 DUP1 SLOAD DUP1 DUP3 ADD DUP3 SSTORE PUSH32 0xB10E2D527612073B26EECDFD717E6A320CF44B4AFAC2B0732D9FCBE2B7FA0CF6 ADD DUP1 SLOAD PUSH1 0x1 PUSH1 0x1 PUSH1 0xA0 SHL SUB NOT AND CALLER SWAP1 DUP2 OR SWAP1 SWAP2 SSTORE PUSH1 0x0 SWAP1 DUP2 MSTORE PUSH1 0x2 PUSH1 0x20 SWAP1 DUP2 MSTORE PUSH1 0x40 SWAP1 SWAP2 KECCAK256 DUP1 SLOAD PUSH1 0xFF NOT AND SWAP1 SWAP3 OR SWAP1 SWAP2 SSTORE DUP3 MLOAD PUSH3 0x14C SWAP2 PUSH1 0x6 SWAP2 SWAP1 DUP6 ADD SWAP1 PUSH3 0x2B2 JUMP JUMPDEST POP DUP1 MLOAD PUSH3 0x162 SWAP1 PUSH1 0x7 SWAP1 PUSH1 0x20 DUP5 ADD SWAP1 PUSH3 0x2B2 JUMP JUMPDEST POP POP PUSH1 0x8 DUP1 SLOAD PUSH1 0xFF NOT AND SWAP1 SSTORE POP PUSH1 0x9 SLOAD PUSH3 0x17F SWAP1 CALLER SWAP1 PUSH3 0x18E JUMP JUMPDEST PUSH3 0x5B4 JUMP JUMPDEST PUSH1 0x12 SWAP1 JUMP JUMPDEST CALLER SWAP1 JUMP JUMPDEST PUSH1 0x1 PUSH1 0x1 PUSH1 0xA0 SHL SUB DUP3 AND PUSH3 0x1C0 JUMPI PUSH1 0x40 MLOAD PUSH3 0x461BCD PUSH1 0xE5 SHL DUP2 MSTORE PUSH1 0x4 ADD PUSH3 0x1B7 SWAP1 PUSH3 0x358 JUMP JUMPDEST PUSH1 0x40 MLOAD DUP1 SWAP2 SUB SWAP1 REVERT JUMPDEST PUSH3 0x1CE PUSH1 0x0 DUP4 DUP4 PUSH3 0x262 JUMP JUMPDEST DUP1 PUSH1 0x5 PUSH1 0x0 DUP3 DUP3 SLOAD PUSH3 0x1E2 SWAP2 SWAP1 PUSH3 0x3E2 JUMP JUMPDEST SWAP1 SWAP2 SSTORE POP POP PUSH1 0x1 PUSH1 0x1 PUSH1 0xA0 SHL SUB DUP3 AND PUSH1 0x0 SWAP1 DUP2 MSTORE PUSH1 0x3 PUSH1 0x20 MSTORE PUSH1 0x40 DUP2 KECCAK256 DUP1 SLOAD DUP4 SWAP3 SWAP1 PUSH3 0x211 SWAP1 DUP5 SWAP1 PUSH3 0x3E2 JUMP JUMPDEST SWAP1 SWAP2 SSTORE POP POP PUSH1 0x40 MLOAD PUSH1 0x1 PUSH1 0x1 PUSH1 0xA0 SHL SUB DUP4 AND SWAP1 PUSH1 0x0 SWAP1 PUSH32 0xDDF252AD1BE2C89B69C2B068FC378DAA952BA7F163C4A11628F55A4DF523B3EF SWAP1 PUSH3 0x256 SWAP1 DUP6 SWAP1 PUSH3 0x3D9 JUMP JUMPDEST PUSH1 0x40 MLOAD DUP1 SWAP2 SUB SWAP1 LOG3 POP POP JUMP JUMPDEST PUSH3 0x27A DUP4 DUP4 DUP4 PUSH3 0x2A4 PUSH1 0x20 SHL PUSH3 0xA7E OR PUSH1 0x20 SHR JUMP JUMPDEST PUSH3 0x284 PUSH3 0x2A9 JUMP JUMPDEST ISZERO PUSH3 0x2A4 JUMPI PUSH1 0x40 MLOAD PUSH3 0x461BCD PUSH1 0xE5 SHL DUP2 MSTORE PUSH1 0x4 ADD PUSH3 0x1B7 SWAP1 PUSH3 0x38F JUMP JUMPDEST POP POP POP JUMP JUMPDEST PUSH1 0x8 SLOAD PUSH1 0xFF AND SWAP1 JUMP JUMPDEST DUP3 DUP1 SLOAD PUSH3 0x2C0 SWAP1 PUSH3 0x561 JUMP JUMPDEST SWAP1 PUSH1 0x0 MSTORE PUSH1 0x20 PUSH1 0x0 KECCAK256 SWAP1 PUSH1 0x1F ADD PUSH1 0x20 SWAP1 DIV DUP2 ADD SWAP3 DUP3 PUSH3 0x2E4 JUMPI PUSH1 0x0 DUP6 SSTORE PUSH3 0x32F JUMP JUMPDEST DUP3 PUSH1 0x1F LT PUSH3 0x2FF JUMPI DUP1 MLOAD PUSH1 0xFF NOT AND DUP4 DUP1 ADD OR DUP6 SSTORE PUSH3 0x32F JUMP JUMPDEST DUP3 DUP1 ADD PUSH1 0x1 ADD DUP6 SSTORE DUP3 ISZERO PUSH3 0x32F JUMPI SWAP2 DUP3 ADD JUMPDEST DUP3 DUP2 GT ISZERO PUSH3 0x32F JUMPI DUP3 MLOAD DUP3 SSTORE SWAP2 PUSH1 0x20 ADD SWAP2 SWAP1 PUSH1 0x1 ADD SWAP1 PUSH3 0x312 JUMP JUMPDEST POP PUSH3 0x33D SWAP3 SWAP2 POP PUSH3 0x341 JUMP JUMPDEST POP SWAP1 JUMP JUMPDEST JUMPDEST DUP1 DUP3 GT ISZERO PUSH3 0x33D JUMPI PUSH1 0x0 DUP2 SSTORE PUSH1 0x1 ADD PUSH3 0x342 JUMP JUMPDEST PUSH1 0x20 DUP1 DUP3 MSTORE PUSH1 0x1F SWAP1 DUP3 ADD MSTORE PUSH32 0x45524332303A206D696E7420746F20746865207A65726F206164647265737300 PUSH1 0x40 DUP3 ADD MSTORE PUSH1 0x60 ADD SWAP1 JUMP JUMPDEST PUSH1 0x20 DUP1 DUP3 MSTORE PUSH1 0x2A SWAP1 DUP3 ADD MSTORE PUSH32 0x45524332305061757361626C653A20746F6B656E207472616E73666572207768 PUSH1 0x40 DUP3 ADD MSTORE PUSH10 0x1A5B19481C185D5CD959 PUSH1 0xB2 SHL PUSH1 0x60 DUP3 ADD MSTORE PUSH1 0x80 ADD SWAP1 JUMP JUMPDEST SWAP1 DUP2 MSTORE PUSH1 0x20 ADD SWAP1 JUMP JUMPDEST PUSH1 0x0 DUP3 NOT DUP3 GT ISZERO PUSH3 0x3F8 JUMPI PUSH3 0x3F8 PUSH3 0x59E JUMP JUMPDEST POP ADD SWAP1 JUMP JUMPDEST DUP1 DUP3 JUMPDEST PUSH1 0x1 DUP1 DUP7 GT PUSH3 0x411 JUMPI POP PUSH3 0x441 JUMP JUMPDEST DUP2 DUP8 DIV DUP3 GT ISZERO PUSH3 0x426 JUMPI PUSH3 0x426 PUSH3 0x59E JUMP JUMPDEST DUP1 DUP7 AND ISZERO PUSH3 0x434 JUMPI SWAP2 DUP2 MUL SWAP2 JUMPDEST SWAP5 SWAP1 SWAP5 SHR SWAP4 DUP1 MUL PUSH3 0x400 JUMP JUMPDEST SWAP5 POP SWAP5 SWAP3 POP POP POP JUMP JUMPDEST PUSH1 0x0 PUSH3 0x45B PUSH1 0x0 NOT DUP5 DUP5 PUSH3 0x462 JUMP JUMPDEST SWAP4 SWAP3 POP POP POP JUMP JUMPDEST PUSH1 0x0 DUP3 PUSH3 0x473 JUMPI POP PUSH1 0x1 PUSH3 0x45B JUMP JUMPDEST DUP2 PUSH3 0x482 JUMPI POP PUSH1 0x0 PUSH3 0x45B JUMP JUMPDEST DUP2 PUSH1 0x1 DUP2 EQ PUSH3 0x49B JUMPI PUSH1 0x2 DUP2 EQ PUSH3 0x4A6 JUMPI PUSH3 0x4DA JUMP JUMPDEST PUSH1 0x1 SWAP2 POP POP PUSH3 0x45B JUMP JUMPDEST PUSH1 0xFF DUP5 GT ISZERO PUSH3 0x4BA JUMPI PUSH3 0x4BA PUSH3 0x59E JUMP JUMPDEST PUSH1 0x1 DUP5 SHL SWAP2 POP DUP5 DUP3 GT ISZERO PUSH3 0x4D3 JUMPI PUSH3 0x4D3 PUSH3 0x59E JUMP JUMPDEST POP PUSH3 0x45B JUMP JUMPDEST POP PUSH1 0x20 DUP4 LT PUSH2 0x133 DUP4 LT AND PUSH1 0x4E DUP5 LT PUSH1 0xB DUP5 LT AND OR ISZERO PUSH3 0x512 JUMPI POP DUP2 DUP2 EXP DUP4 DUP2 GT ISZERO PUSH3 0x50C JUMPI PUSH3 0x50C PUSH3 0x59E JUMP JUMPDEST PUSH3 0x45B JUMP JUMPDEST PUSH3 0x521 DUP5 DUP5 DUP5 PUSH1 0x1 PUSH3 0x3FD JUMP JUMPDEST DUP1 DUP7 DIV DUP3 GT ISZERO PUSH3 0x536 JUMPI PUSH3 0x536 PUSH3 0x59E JUMP JUMPDEST MUL SWAP5 SWAP4 POP POP POP POP JUMP JUMPDEST PUSH1 0x0 DUP2 PUSH1 0x0 NOT DIV DUP4 GT DUP3 ISZERO ISZERO AND ISZERO PUSH3 0x55C JUMPI PUSH3 0x55C PUSH3 0x59E JUMP JUMPDEST POP MUL SWAP1 JUMP JUMPDEST PUSH1 0x2 DUP2 DIV PUSH1 0x1 DUP3 AND DUP1 PUSH3 0x576 JUMPI PUSH1 0x7F DUP3 AND SWAP2 POP JUMPDEST PUSH1 0x20 DUP3 LT DUP2 EQ ISZERO PUSH3 0x598 JUMPI PUSH4 0x4E487B71 PUSH1 0xE0 SHL PUSH1 0x0 MSTORE PUSH1 0x22 PUSH1 0x4 MSTORE PUSH1 0x24 PUSH1 0x0 REVERT JUMPDEST POP SWAP2 SWAP1 POP JUMP JUMPDEST PUSH4 0x4E487B71 PUSH1 0xE0 SHL PUSH1 0x0 MSTORE PUSH1 0x11 PUSH1 0x4 MSTORE PUSH1 0x24 PUSH1 0x0 REVERT JUMPDEST PUSH2 0x1531 DUP1 PUSH3 0x5C4 PUSH1 0x0 CODECOPY PUSH1 0x0 RETURN INVALID PUSH1 0x80 PUSH1 0x40 MSTORE CALLVALUE DUP1 ISZERO PUSH2 0x10 JUMPI PUSH1 0x0 DUP1 REVERT JUMPDEST POP PUSH1 0x4 CALLDATASIZE LT PUSH2 0x14D JUMPI PUSH1 0x0 CALLDATALOAD PUSH1 0xE0 SHR DUP1 PUSH4 0x42966C68 GT PUSH2 0xC3 JUMPI DUP1 PUSH4 0x8DA5CB5B GT PUSH2 0x7C JUMPI DUP1 PUSH4 0x8DA5CB5B EQ PUSH2 0x27C JUMPI DUP1 PUSH4 0x95D89B41 EQ PUSH2 0x291 JUMPI DUP1 PUSH4 0xA457C2D7 EQ PUSH2 0x299 JUMPI DUP1 PUSH4 0xA9059CBB EQ PUSH2 0x2AC JUMPI DUP1 PUSH4 0xDD62ED3E EQ PUSH2 0x2BF JUMPI DUP1 PUSH4 0xF2FDE38B EQ PUSH2 0x2D2 JUMPI PUSH2 0x14D JUMP JUMPDEST DUP1 PUSH4 0x42966C68 EQ PUSH2 0x22B JUMPI DUP1 PUSH4 0x5C975ABB EQ PUSH2 0x23E JUMPI DUP1 PUSH4 0x70480275 EQ PUSH2 0x246 JUMPI DUP1 PUSH4 0x70A08231 EQ PUSH2 0x259 JUMPI DUP1 PUSH4 0x715018A6 EQ PUSH2 0x26C JUMPI DUP1 PUSH4 0x8456CB59 EQ PUSH2 0x274 JUMPI PUSH2 0x14D JUMP JUMPDEST DUP1 PUSH4 0x24D7806C GT PUSH2 0x115 JUMPI DUP1 PUSH4 0x24D7806C EQ PUSH2 0x1CD JUMPI DUP1 PUSH4 0x2FF2E9DC EQ PUSH2 0x1E0 JUMPI DUP1 PUSH4 0x313CE567 EQ PUSH2 0x1E8 JUMPI DUP1 PUSH4 0x39509351 EQ PUSH2 0x1FD JUMPI DUP1 PUSH4 0x3F4BA83A EQ PUSH2 0x210 JUMPI DUP1 PUSH4 0x40C10F19 EQ PUSH2 0x218 JUMPI PUSH2 0x14D JUMP JUMPDEST DUP1 PUSH4 0x6FDDE03 EQ PUSH2 0x152 JUMPI DUP1 PUSH4 0x95EA7B3 EQ PUSH2 0x170 JUMPI DUP1 PUSH4 0x1785F53C EQ PUSH2 0x190 JUMPI DUP1 PUSH4 0x18160DDD EQ PUSH2 0x1A5 JUMPI DUP1 PUSH4 0x23B872DD EQ PUSH2 0x1BA JUMPI JUMPDEST PUSH1 0x0 DUP1 REVERT JUMPDEST PUSH2 0x15A PUSH2 0x2E5 JUMP JUMPDEST PUSH1 0x40 MLOAD PUSH2 0x167 SWAP2 SWAP1 PUSH2 0x1007 JUMP JUMPDEST PUSH1 0x40 MLOAD DUP1 SWAP2 SUB SWAP1 RETURN JUMPDEST PUSH2 0x183 PUSH2 0x17E CALLDATASIZE PUSH1 0x4 PUSH2 0xFA7 JUMP JUMPDEST PUSH2 0x377 JUMP JUMPDEST PUSH1 0x40 MLOAD PUSH2 0x167 SWAP2 SWAP1 PUSH2 0xFFC JUMP JUMPDEST PUSH2 0x1A3 PUSH2 0x19E CALLDATASIZE PUSH1 0x4 PUSH2 0xF19 JUMP JUMPDEST PUSH2 0x394 JUMP JUMPDEST STOP JUMPDEST PUSH2 0x1AD PUSH2 0x4C7 JUMP JUMPDEST PUSH1 0x40 MLOAD PUSH2 0x167 SWAP2 SWAP1 PUSH2 0x1449 JUMP JUMPDEST PUSH2 0x183 PUSH2 0x1C8 CALLDATASIZE PUSH1 0x4 PUSH2 0xF6C JUMP JUMPDEST PUSH2 0x4CD JUMP JUMPDEST PUSH2 0x183 PUSH2 0x1DB CALLDATASIZE PUSH1 0x4 PUSH2 0xF19 JUMP JUMPDEST PUSH2 0x564 JUMP JUMPDEST PUSH2 0x1AD PUSH2 0x586 JUMP JUMPDEST PUSH2 0x1F0 PUSH2 0x58C JUMP JUMPDEST PUSH1 0x40 MLOAD PUSH2 0x167 SWAP2 SWAP1 PUSH2 0x1452 JUMP JUMPDEST PUSH2 0x183 PUSH2 0x20B CALLDATASIZE PUSH1 0x4 PUSH2 0xFA7 JUMP JUMPDEST PUSH2 0x591 JUMP JUMPDEST PUSH2 0x1A3 PUSH2 0x5E0 JUMP JUMPDEST PUSH2 0x1A3 PUSH2 0x226 CALLDATASIZE PUSH1 0x4 PUSH2 0xFA7 JUMP JUMPDEST PUSH2 0x64D JUMP JUMPDEST PUSH2 0x1A3 PUSH2 0x239 CALLDATASIZE PUSH1 0x4 PUSH2 0xFD0 JUMP JUMPDEST PUSH2 0x6B0 JUMP JUMPDEST PUSH2 0x183 PUSH2 0x6E2 JUMP JUMPDEST PUSH2 0x1A3 PUSH2 0x254 CALLDATASIZE PUSH1 0x4 PUSH2 0xF19 JUMP JUMPDEST PUSH2 0x6EB JUMP JUMPDEST PUSH2 0x1AD PUSH2 0x267 CALLDATASIZE PUSH1 0x4 PUSH2 0xF19 JUMP JUMPDEST PUSH2 0x7D6 JUMP JUMPDEST PUSH2 0x1A3 PUSH2 0x7F1 JUMP JUMPDEST PUSH2 0x1A3 PUSH2 0x87A JUMP JUMPDEST PUSH2 0x284 PUSH2 0x8E6 JUMP JUMPDEST PUSH1 0x40 MLOAD PUSH2 0x167 SWAP2 SWAP1 PUSH2 0xFE8 JUMP JUMPDEST PUSH2 0x15A PUSH2 0x8F5 JUMP JUMPDEST PUSH2 0x183 PUSH2 0x2A7 CALLDATASIZE PUSH1 0x4 PUSH2 0xFA7 JUMP JUMPDEST PUSH2 0x904 JUMP JUMPDEST PUSH2 0x183 PUSH2 0x2BA CALLDATASIZE PUSH1 0x4 PUSH2 0xFA7 JUMP JUMPDEST PUSH2 0x97F JUMP JUMPDEST PUSH2 0x1AD PUSH2 0x2CD CALLDATASIZE PUSH1 0x4 PUSH2 0xF3A JUMP JUMPDEST PUSH2 0x993 JUMP JUMPDEST PUSH2 0x1A3 PUSH2 0x2E0 CALLDATASIZE PUSH1 0x4 PUSH2 0xF19 JUMP JUMPDEST PUSH2 0x9BE JUMP JUMPDEST PUSH1 0x60 PUSH1 0x6 DUP1 SLOAD PUSH2 0x2F4 SWAP1 PUSH2 0x148F JUMP JUMPDEST DUP1 PUSH1 0x1F ADD PUSH1 0x20 DUP1 SWAP2 DIV MUL PUSH1 0x20 ADD PUSH1 0x40 MLOAD SWAP1 DUP2 ADD PUSH1 0x40 MSTORE DUP1 SWAP3 SWAP2 SWAP1 DUP2 DUP2 MSTORE PUSH1 0x20 ADD DUP3 DUP1 SLOAD PUSH2 0x320 SWAP1 PUSH2 0x148F JUMP JUMPDEST DUP1 ISZERO PUSH2 0x36D JUMPI DUP1 PUSH1 0x1F LT PUSH2 0x342 JUMPI PUSH2 0x100 DUP1 DUP4 SLOAD DIV MUL DUP4 MSTORE SWAP2 PUSH1 0x20 ADD SWAP2 PUSH2 0x36D JUMP JUMPDEST DUP3 ADD SWAP2 SWAP1 PUSH1 0x0 MSTORE PUSH1 0x20 PUSH1 0x0 KECCAK256 SWAP1 JUMPDEST DUP2 SLOAD DUP2 MSTORE SWAP1 PUSH1 0x1 ADD SWAP1 PUSH1 0x20 ADD DUP1 DUP4 GT PUSH2 0x350 JUMPI DUP3 SWAP1 SUB PUSH1 0x1F AND DUP3 ADD SWAP2 JUMPDEST POP POP POP POP POP SWAP1 POP SWAP1 JUMP JUMPDEST PUSH1 0x0 PUSH2 0x38B PUSH2 0x384 PUSH2 0xA83 JUMP JUMPDEST DUP5 DUP5 PUSH2 0xA87 JUMP JUMPDEST POP PUSH1 0x1 SWAP3 SWAP2 POP POP JUMP JUMPDEST PUSH2 0x39C PUSH2 0xA83 JUMP JUMPDEST PUSH1 0x1 PUSH1 0x1 PUSH1 0xA0 SHL SUB AND PUSH2 0x3AD PUSH2 0x8E6 JUMP JUMPDEST PUSH1 0x1 PUSH1 0x1 PUSH1 0xA0 SHL SUB AND EQ PUSH2 0x3DC JUMPI PUSH1 0x40 MLOAD PUSH3 0x461BCD PUSH1 0xE5 SHL DUP2 MSTORE PUSH1 0x4 ADD PUSH2 0x3D3 SWAP1 PUSH2 0x1284 JUMP JUMPDEST PUSH1 0x40 MLOAD DUP1 SWAP2 SUB SWAP1 REVERT JUMPDEST PUSH1 0x0 JUMPDEST PUSH1 0x1 SLOAD DUP2 LT ISZERO PUSH2 0x4C3 JUMPI DUP2 PUSH1 0x1 PUSH1 0x1 PUSH1 0xA0 SHL SUB AND PUSH1 0x1 DUP3 DUP2 SLOAD DUP2 LT PUSH2 0x414 JUMPI PUSH4 0x4E487B71 PUSH1 0xE0 SHL PUSH1 0x0 MSTORE PUSH1 0x32 PUSH1 0x4 MSTORE PUSH1 0x24 PUSH1 0x0 REVERT JUMPDEST PUSH1 0x0 SWAP2 DUP3 MSTORE PUSH1 0x20 SWAP1 SWAP2 KECCAK256 ADD SLOAD PUSH1 0x1 PUSH1 0x1 PUSH1 0xA0 SHL SUB AND EQ ISZERO PUSH2 0x4B1 JUMPI PUSH1 0x1 DUP2 DUP2 SLOAD DUP2 LT PUSH2 0x450 JUMPI PUSH4 0x4E487B71 PUSH1 0xE0 SHL PUSH1 0x0 MSTORE PUSH1 0x32 PUSH1 0x4 MSTORE PUSH1 0x24 PUSH1 0x0 REVERT JUMPDEST PUSH1 0x0 SWAP2 DUP3 MSTORE PUSH1 0x20 DUP1 DUP4 KECCAK256 SWAP1 SWAP2 ADD DUP1 SLOAD PUSH1 0x1 PUSH1 0x1 PUSH1 0xA0 SHL SUB NOT AND SWAP1 SSTORE PUSH1 0x1 PUSH1 0x1 PUSH1 0xA0 SHL SUB DUP5 AND DUP1 DUP4 MSTORE PUSH1 0x2 SWAP1 SWAP2 MSTORE PUSH1 0x40 DUP1 DUP4 KECCAK256 DUP1 SLOAD PUSH1 0xFF NOT AND SWAP1 SSTORE MLOAD SWAP1 SWAP2 PUSH32 0xC715F0855A20A185F4934A71D21A10FDD4DABC049885FAEF1006389A1B0A1608 SWAP2 LOG2 JUMPDEST DUP1 PUSH2 0x4BB DUP2 PUSH2 0x14CA JUMP JUMPDEST SWAP2 POP POP PUSH2 0x3DF JUMP JUMPDEST POP POP JUMP JUMPDEST PUSH1 0x5 SLOAD SWAP1 JUMP JUMPDEST PUSH1 0x0 PUSH2 0x4DA DUP5 DUP5 DUP5 PUSH2 0xB3B JUMP JUMPDEST PUSH1 0x1 PUSH1 0x1 PUSH1 0xA0 SHL SUB DUP5 AND PUSH1 0x0 SWAP1 DUP2 MSTORE PUSH1 0x4 PUSH1 0x20 MSTORE PUSH1 0x40 DUP2 KECCAK256 DUP2 PUSH2 0x4FB PUSH2 0xA83 JUMP JUMPDEST PUSH1 0x1 PUSH1 0x1 PUSH1 0xA0 SHL SUB AND PUSH1 0x1 PUSH1 0x1 PUSH1 0xA0 SHL SUB AND DUP2 MSTORE PUSH1 0x20 ADD SWAP1 DUP2 MSTORE PUSH1 0x20 ADD PUSH1 0x0 KECCAK256 SLOAD SWAP1 POP DUP3 DUP2 LT ISZERO PUSH2 0x53E JUMPI PUSH1 0x40 MLOAD PUSH3 0x461BCD PUSH1 0xE5 SHL DUP2 MSTORE PUSH1 0x4 ADD PUSH2 0x3D3 SWAP1 PUSH2 0x123C JUMP JUMPDEST PUSH2 0x559 DUP6 PUSH2 0x54A PUSH2 0xA83 JUMP JUMPDEST PUSH2 0x554 DUP7 DUP6 PUSH2 0x1478 JUMP JUMPDEST PUSH2 0xA87 JUMP JUMPDEST POP PUSH1 0x1 SWAP5 SWAP4 POP POP POP POP JUMP JUMPDEST PUSH1 0x1 PUSH1 0x1 PUSH1 0xA0 SHL SUB DUP2 AND PUSH1 0x0 SWAP1 DUP2 MSTORE PUSH1 0x2 PUSH1 0x20 MSTORE PUSH1 0x40 SWAP1 KECCAK256 SLOAD PUSH1 0xFF AND JUMPDEST SWAP2 SWAP1 POP JUMP JUMPDEST PUSH1 0x9 SLOAD DUP2 JUMP JUMPDEST PUSH1 0x12 SWAP1 JUMP JUMPDEST PUSH1 0x0 PUSH2 0x38B PUSH2 0x59E PUSH2 0xA83 JUMP JUMPDEST DUP5 DUP5 PUSH1 0x4 PUSH1 0x0 PUSH2 0x5AC PUSH2 0xA83 JUMP JUMPDEST PUSH1 0x1 PUSH1 0x1 PUSH1 0xA0 SHL SUB SWAP1 DUP2 AND DUP3 MSTORE PUSH1 0x20 DUP1 DUP4 ADD SWAP4 SWAP1 SWAP4 MSTORE PUSH1 0x40 SWAP2 DUP3 ADD PUSH1 0x0 SWAP1 DUP2 KECCAK256 SWAP2 DUP12 AND DUP2 MSTORE SWAP3 MSTORE SWAP1 KECCAK256 SLOAD PUSH2 0x554 SWAP2 SWAP1 PUSH2 0x1460 JUMP JUMPDEST PUSH2 0x5E8 PUSH2 0xA83 JUMP JUMPDEST PUSH1 0x1 PUSH1 0x1 PUSH1 0xA0 SHL SUB AND PUSH2 0x5F9 PUSH2 0x8E6 JUMP JUMPDEST PUSH1 0x1 PUSH1 0x1 PUSH1 0xA0 SHL SUB AND EQ PUSH2 0x61F JUMPI PUSH1 0x40 MLOAD PUSH3 0x461BCD PUSH1 0xE5 SHL DUP2 MSTORE PUSH1 0x4 ADD PUSH2 0x3D3 SWAP1 PUSH2 0x1284 JUMP JUMPDEST PUSH2 0x627 PUSH2 0x6E2 JUMP JUMPDEST PUSH2 0x643 JUMPI PUSH1 0x40 MLOAD PUSH3 0x461BCD PUSH1 0xE5 SHL DUP2 MSTORE PUSH1 0x4 ADD PUSH2 0x3D3 SWAP1 PUSH2 0x109D JUMP JUMPDEST PUSH2 0x64B PUSH2 0xC63 JUMP JUMPDEST JUMP JUMPDEST PUSH2 0x655 PUSH2 0x6E2 JUMP JUMPDEST ISZERO PUSH2 0x672 JUMPI PUSH1 0x40 MLOAD PUSH3 0x461BCD PUSH1 0xE5 SHL DUP2 MSTORE PUSH1 0x4 ADD PUSH2 0x3D3 SWAP1 PUSH2 0x11DB JUMP JUMPDEST CALLER PUSH1 0x0 SWAP1 DUP2 MSTORE PUSH1 0x2 PUSH1 0x20 MSTORE PUSH1 0x40 SWAP1 KECCAK256 SLOAD PUSH1 0xFF AND ISZERO ISZERO PUSH1 0x1 EQ PUSH2 0x6A6 JUMPI PUSH1 0x40 MLOAD PUSH3 0x461BCD PUSH1 0xE5 SHL DUP2 MSTORE PUSH1 0x4 ADD PUSH2 0x3D3 SWAP1 PUSH2 0x1205 JUMP JUMPDEST PUSH2 0x4C3 DUP3 DUP3 PUSH2 0xCD1 JUMP JUMPDEST PUSH2 0x6B8 PUSH2 0x6E2 JUMP JUMPDEST ISZERO PUSH2 0x6D5 JUMPI PUSH1 0x40 MLOAD PUSH3 0x461BCD PUSH1 0xE5 SHL DUP2 MSTORE PUSH1 0x4 ADD PUSH2 0x3D3 SWAP1 PUSH2 0x11DB JUMP JUMPDEST PUSH2 0x6DF CALLER DUP3 PUSH2 0xD91 JUMP JUMPDEST POP JUMP JUMPDEST PUSH1 0x8 SLOAD PUSH1 0xFF AND SWAP1 JUMP JUMPDEST PUSH2 0x6F3 PUSH2 0xA83 JUMP JUMPDEST PUSH1 0x1 PUSH1 0x1 PUSH1 0xA0 SHL SUB AND PUSH2 0x704 PUSH2 0x8E6 JUMP JUMPDEST PUSH1 0x1 PUSH1 0x1 PUSH1 0xA0 SHL SUB AND EQ PUSH2 0x72A JUMPI PUSH1 0x40 MLOAD PUSH3 0x461BCD PUSH1 0xE5 SHL DUP2 MSTORE PUSH1 0x4 ADD PUSH2 0x3D3 SWAP1 PUSH2 0x1284 JUMP JUMPDEST PUSH1 0x1 PUSH1 0x1 PUSH1 0xA0 SHL SUB DUP2 AND PUSH1 0x0 SWAP1 DUP2 MSTORE PUSH1 0x2 PUSH1 0x20 MSTORE PUSH1 0x40 SWAP1 KECCAK256 SLOAD PUSH1 0xFF AND PUSH2 0x6DF JUMPI PUSH1 0x1 DUP1 SLOAD DUP1 DUP3 ADD DUP3 SSTORE PUSH32 0xB10E2D527612073B26EECDFD717E6A320CF44B4AFAC2B0732D9FCBE2B7FA0CF6 ADD DUP1 SLOAD PUSH1 0x1 PUSH1 0x1 PUSH1 0xA0 SHL SUB NOT AND PUSH1 0x1 PUSH1 0x1 PUSH1 0xA0 SHL SUB DUP5 AND SWAP1 DUP2 OR SWAP1 SWAP2 SSTORE PUSH1 0x0 DUP2 DUP2 MSTORE PUSH1 0x2 PUSH1 0x20 MSTORE PUSH1 0x40 DUP1 DUP3 KECCAK256 DUP1 SLOAD PUSH1 0xFF NOT AND SWAP1 SWAP5 OR SWAP1 SWAP4 SSTORE SWAP2 MLOAD SWAP1 SWAP2 PUSH32 0x4550F0ACB6B43E87F5E4B34B16E7FBF8AF3B81B79B8077CA49FF3AFA15D7E911 SWAP2 LOG2 POP JUMP JUMPDEST PUSH1 0x1 PUSH1 0x1 PUSH1 0xA0 SHL SUB AND PUSH1 0x0 SWAP1 DUP2 MSTORE PUSH1 0x3 PUSH1 0x20 MSTORE PUSH1 0x40 SWAP1 KECCAK256 SLOAD SWAP1 JUMP JUMPDEST PUSH2 0x7F9 PUSH2 0xA83 JUMP JUMPDEST PUSH1 0x1 PUSH1 0x1 PUSH1 0xA0 SHL SUB AND PUSH2 0x80A PUSH2 0x8E6 JUMP JUMPDEST PUSH1 0x1 PUSH1 0x1 PUSH1 0xA0 SHL SUB AND EQ PUSH2 0x830 JUMPI PUSH1 0x40 MLOAD PUSH3 0x461BCD PUSH1 0xE5 SHL DUP2 MSTORE PUSH1 0x4 ADD PUSH2 0x3D3 SWAP1 PUSH2 0x1284 JUMP JUMPDEST PUSH1 0x0 DUP1 SLOAD PUSH1 0x40 MLOAD PUSH1 0x1 PUSH1 0x1 PUSH1 0xA0 SHL SUB SWAP1 SWAP2 AND SWAP1 PUSH32 0x8BE0079C531659141344CD1FD0A4F28419497F9722A3DAAFE3B4186F6B6457E0 SWAP1 DUP4 SWAP1 LOG3 PUSH1 0x0 DUP1 SLOAD PUSH1 0x1 PUSH1 0x1 PUSH1 0xA0 SHL SUB NOT AND SWAP1 SSTORE JUMP JUMPDEST PUSH2 0x882 PUSH2 0xA83 JUMP JUMPDEST PUSH1 0x1 PUSH1 0x1 PUSH1 0xA0 SHL SUB AND PUSH2 0x893 PUSH2 0x8E6 JUMP JUMPDEST PUSH1 0x1 PUSH1 0x1 PUSH1 0xA0 SHL SUB AND EQ PUSH2 0x8B9 JUMPI PUSH1 0x40 MLOAD PUSH3 0x461BCD PUSH1 0xE5 SHL DUP2 MSTORE PUSH1 0x4 ADD PUSH2 0x3D3 SWAP1 PUSH2 0x1284 JUMP JUMPDEST PUSH2 0x8C1 PUSH2 0x6E2 JUMP JUMPDEST ISZERO PUSH2 0x8DE JUMPI PUSH1 0x40 MLOAD PUSH3 0x461BCD PUSH1 0xE5 SHL DUP2 MSTORE PUSH1 0x4 ADD PUSH2 0x3D3 SWAP1 PUSH2 0x11DB JUMP JUMPDEST PUSH2 0x64B PUSH2 0xE77 JUMP JUMPDEST PUSH1 0x0 SLOAD PUSH1 0x1 PUSH1 0x1 PUSH1 0xA0 SHL SUB AND SWAP1 JUMP JUMPDEST PUSH1 0x60 PUSH1 0x7 DUP1 SLOAD PUSH2 0x2F4 SWAP1 PUSH2 0x148F JUMP JUMPDEST PUSH1 0x0 DUP1 PUSH1 0x4 PUSH1 0x0 PUSH2 0x913 PUSH2 0xA83 JUMP JUMPDEST PUSH1 0x1 PUSH1 0x1 PUSH1 0xA0 SHL SUB SWAP1 DUP2 AND DUP3 MSTORE PUSH1 0x20 DUP1 DUP4 ADD SWAP4 SWAP1 SWAP4 MSTORE PUSH1 0x40 SWAP2 DUP3 ADD PUSH1 0x0 SWAP1 DUP2 KECCAK256 SWAP2 DUP9 AND DUP2 MSTORE SWAP3 MSTORE SWAP1 KECCAK256 SLOAD SWAP1 POP DUP3 DUP2 LT ISZERO PUSH2 0x95F JUMPI PUSH1 0x40 MLOAD PUSH3 0x461BCD PUSH1 0xE5 SHL DUP2 MSTORE PUSH1 0x4 ADD PUSH2 0x3D3 SWAP1 PUSH2 0x1383 JUMP JUMPDEST PUSH2 0x975 PUSH2 0x96A PUSH2 0xA83 JUMP JUMPDEST DUP6 PUSH2 0x554 DUP7 DUP6 PUSH2 0x1478 JUMP JUMPDEST POP PUSH1 0x1 SWAP4 SWAP3 POP POP POP JUMP JUMPDEST PUSH1 0x0 PUSH2 0x38B PUSH2 0x98C PUSH2 0xA83 JUMP JUMPDEST DUP5 DUP5 PUSH2 0xB3B JUMP JUMPDEST PUSH1 0x1 PUSH1 0x1 PUSH1 0xA0 SHL SUB SWAP2 DUP3 AND PUSH1 0x0 SWAP1 DUP2 MSTORE PUSH1 0x4 PUSH1 0x20 SWAP1 DUP2 MSTORE PUSH1 0x40 DUP1 DUP4 KECCAK256 SWAP4 SWAP1 SWAP5 AND DUP3 MSTORE SWAP2 SWAP1 SWAP2 MSTORE KECCAK256 SLOAD SWAP1 JUMP JUMPDEST PUSH2 0x9C6 PUSH2 0xA83 JUMP JUMPDEST PUSH1 0x1 PUSH1 0x1 PUSH1 0xA0 SHL SUB AND PUSH2 0x9D7 PUSH2 0x8E6 JUMP JUMPDEST PUSH1 0x1 PUSH1 0x1 PUSH1 0xA0 SHL SUB AND EQ PUSH2 0x9FD JUMPI PUSH1 0x40 MLOAD PUSH3 0x461BCD PUSH1 0xE5 SHL DUP2 MSTORE PUSH1 0x4 ADD PUSH2 0x3D3 SWAP1 PUSH2 0x1284 JUMP JUMPDEST PUSH1 0x1 PUSH1 0x1 PUSH1 0xA0 SHL SUB DUP2 AND PUSH2 0xA23 JUMPI PUSH1 0x40 MLOAD PUSH3 0x461BCD PUSH1 0xE5 SHL DUP2 MSTORE PUSH1 0x4 ADD PUSH2 0x3D3 SWAP1 PUSH2 0x110D JUMP JUMPDEST PUSH1 0x0 DUP1 SLOAD PUSH1 0x40 MLOAD PUSH1 0x1 PUSH1 0x1 PUSH1 0xA0 SHL SUB DUP1 DUP6 AND SWAP4 SWAP3 AND SWAP2 PUSH32 0x8BE0079C531659141344CD1FD0A4F28419497F9722A3DAAFE3B4186F6B6457E0 SWAP2 LOG3 PUSH1 0x0 DUP1 SLOAD PUSH1 0x1 PUSH1 0x1 PUSH1 0xA0 SHL SUB NOT AND PUSH1 0x1 PUSH1 0x1 PUSH1 0xA0 SHL SUB SWAP3 SWAP1 SWAP3 AND SWAP2 SWAP1 SWAP2 OR SWAP1 SSTORE JUMP JUMPDEST POP POP POP JUMP JUMPDEST CALLER SWAP1 JUMP JUMPDEST PUSH1 0x1 PUSH1 0x1 PUSH1 0xA0 SHL SUB DUP4 AND PUSH2 0xAAD JUMPI PUSH1 0x40 MLOAD PUSH3 0x461BCD PUSH1 0xE5 SHL DUP2 MSTORE PUSH1 0x4 ADD PUSH2 0x3D3 SWAP1 PUSH2 0x133F JUMP JUMPDEST PUSH1 0x1 PUSH1 0x1 PUSH1 0xA0 SHL SUB DUP3 AND PUSH2 0xAD3 JUMPI PUSH1 0x40 MLOAD PUSH3 0x461BCD PUSH1 0xE5 SHL DUP2 MSTORE PUSH1 0x4 ADD PUSH2 0x3D3 SWAP1 PUSH2 0x1153 JUMP JUMPDEST PUSH1 0x1 PUSH1 0x1 PUSH1 0xA0 SHL SUB DUP1 DUP5 AND PUSH1 0x0 DUP2 DUP2 MSTORE PUSH1 0x4 PUSH1 0x20 SWAP1 DUP2 MSTORE PUSH1 0x40 DUP1 DUP4 KECCAK256 SWAP5 DUP8 AND DUP1 DUP5 MSTORE SWAP5 SWAP1 SWAP2 MSTORE SWAP1 DUP2 SWAP1 KECCAK256 DUP5 SWAP1 SSTORE MLOAD PUSH32 0x8C5BE1E5EBEC7D5BD14F71427D1E84F3DD0314C0F7B2291E5B200AC8C7C3B925 SWAP1 PUSH2 0xB2E SWAP1 DUP6 SWAP1 PUSH2 0x1449 JUMP JUMPDEST PUSH1 0x40 MLOAD DUP1 SWAP2 SUB SWAP1 LOG3 POP POP POP JUMP JUMPDEST PUSH1 0x1 PUSH1 0x1 PUSH1 0xA0 SHL SUB DUP4 AND PUSH2 0xB61 JUMPI PUSH1 0x40 MLOAD PUSH3 0x461BCD PUSH1 0xE5 SHL DUP2 MSTORE PUSH1 0x4 ADD PUSH2 0x3D3 SWAP1 PUSH2 0x12FA JUMP JUMPDEST PUSH1 0x1 PUSH1 0x1 PUSH1 0xA0 SHL SUB DUP3 AND PUSH2 0xB87 JUMPI PUSH1 0x40 MLOAD PUSH3 0x461BCD PUSH1 0xE5 SHL DUP2 MSTORE PUSH1 0x4 ADD PUSH2 0x3D3 SWAP1 PUSH2 0x105A JUMP JUMPDEST PUSH2 0xB92 DUP4 DUP4 DUP4 PUSH2 0xED2 JUMP JUMPDEST PUSH1 0x1 PUSH1 0x1 PUSH1 0xA0 SHL SUB DUP4 AND PUSH1 0x0 SWAP1 DUP2 MSTORE PUSH1 0x3 PUSH1 0x20 MSTORE PUSH1 0x40 SWAP1 KECCAK256 SLOAD DUP2 DUP2 LT ISZERO PUSH2 0xBCB JUMPI PUSH1 0x40 MLOAD PUSH3 0x461BCD PUSH1 0xE5 SHL DUP2 MSTORE PUSH1 0x4 ADD PUSH2 0x3D3 SWAP1 PUSH2 0x1195 JUMP JUMPDEST PUSH2 0xBD5 DUP3 DUP3 PUSH2 0x1478 JUMP JUMPDEST PUSH1 0x1 PUSH1 0x1 PUSH1 0xA0 SHL SUB DUP1 DUP7 AND PUSH1 0x0 SWAP1 DUP2 MSTORE PUSH1 0x3 PUSH1 0x20 MSTORE PUSH1 0x40 DUP1 DUP3 KECCAK256 SWAP4 SWAP1 SWAP4 SSTORE SWAP1 DUP6 AND DUP2 MSTORE SWAP1 DUP2 KECCAK256 DUP1 SLOAD DUP5 SWAP3 SWAP1 PUSH2 0xC0B SWAP1 DUP5 SWAP1 PUSH2 0x1460 JUMP JUMPDEST SWAP3 POP POP DUP2 SWAP1 SSTORE POP DUP3 PUSH1 0x1 PUSH1 0x1 PUSH1 0xA0 SHL SUB AND DUP5 PUSH1 0x1 PUSH1 0x1 PUSH1 0xA0 SHL SUB AND PUSH32 0xDDF252AD1BE2C89B69C2B068FC378DAA952BA7F163C4A11628F55A4DF523B3EF DUP5 PUSH1 0x40 MLOAD PUSH2 0xC55 SWAP2 SWAP1 PUSH2 0x1449 JUMP JUMPDEST PUSH1 0x40 MLOAD DUP1 SWAP2 SUB SWAP1 LOG3 POP POP POP POP JUMP JUMPDEST PUSH2 0xC6B PUSH2 0x6E2 JUMP JUMPDEST PUSH2 0xC87 JUMPI PUSH1 0x40 MLOAD PUSH3 0x461BCD PUSH1 0xE5 SHL DUP2 MSTORE PUSH1 0x4 ADD PUSH2 0x3D3 SWAP1 PUSH2 0x109D JUMP JUMPDEST PUSH1 0x8 DUP1 SLOAD PUSH1 0xFF NOT AND SWAP1 SSTORE PUSH32 0x5DB9EE0A495BF2E6FF9C91A7834C1BA4FDD244A5E8AA4E537BD38AEAE4B073AA PUSH2 0xCBA PUSH2 0xA83 JUMP JUMPDEST PUSH1 0x40 MLOAD PUSH2 0xCC7 SWAP2 SWAP1 PUSH2 0xFE8 JUMP JUMPDEST PUSH1 0x40 MLOAD DUP1 SWAP2 SUB SWAP1 LOG1 JUMP JUMPDEST PUSH1 0x1 PUSH1 0x1 PUSH1 0xA0 SHL SUB DUP3 AND PUSH2 0xCF7 JUMPI PUSH1 0x40 MLOAD PUSH3 0x461BCD PUSH1 0xE5 SHL DUP2 MSTORE PUSH1 0x4 ADD PUSH2 0x3D3 SWAP1 PUSH2 0x13C8 JUMP JUMPDEST PUSH2 0xD03 PUSH1 0x0 DUP4 DUP4 PUSH2 0xED2 JUMP JUMPDEST DUP1 PUSH1 0x5 PUSH1 0x0 DUP3 DUP3 SLOAD PUSH2 0xD15 SWAP2 SWAP1 PUSH2 0x1460 JUMP JUMPDEST SWAP1 SWAP2 SSTORE POP POP PUSH1 0x1 PUSH1 0x1 PUSH1 0xA0 SHL SUB DUP3 AND PUSH1 0x0 SWAP1 DUP2 MSTORE PUSH1 0x3 PUSH1 0x20 MSTORE PUSH1 0x40 DUP2 KECCAK256 DUP1 SLOAD DUP4 SWAP3 SWAP1 PUSH2 0xD42 SWAP1 DUP5 SWAP1 PUSH2 0x1460 JUMP JUMPDEST SWAP1 SWAP2 SSTORE POP POP PUSH1 0x40 MLOAD PUSH1 0x1 PUSH1 0x1 PUSH1 0xA0 SHL SUB DUP4 AND SWAP1 PUSH1 0x0 SWAP1 PUSH32 0xDDF252AD1BE2C89B69C2B068FC378DAA952BA7F163C4A11628F55A4DF523B3EF SWAP1 PUSH2 0xD85 SWAP1 DUP6 SWAP1 PUSH2 0x1449 JUMP JUMPDEST PUSH1 0x40 MLOAD DUP1 SWAP2 SUB SWAP1 LOG3 POP POP JUMP JUMPDEST PUSH1 0x1 PUSH1 0x1 PUSH1 0xA0 SHL SUB DUP3 AND PUSH2 0xDB7 JUMPI PUSH1 0x40 MLOAD PUSH3 0x461BCD PUSH1 0xE5 SHL DUP2 MSTORE PUSH1 0x4 ADD PUSH2 0x3D3 SWAP1 PUSH2 0x12B9 JUMP JUMPDEST PUSH2 0xDC3 DUP3 PUSH1 0x0 DUP4 PUSH2 0xED2 JUMP JUMPDEST PUSH1 0x1 PUSH1 0x1 PUSH1 0xA0 SHL SUB DUP3 AND PUSH1 0x0 SWAP1 DUP2 MSTORE PUSH1 0x3 PUSH1 0x20 MSTORE PUSH1 0x40 SWAP1 KECCAK256 SLOAD DUP2 DUP2 LT ISZERO PUSH2 0xDFC JUMPI PUSH1 0x40 MLOAD PUSH3 0x461BCD PUSH1 0xE5 SHL DUP2 MSTORE PUSH1 0x4 ADD PUSH2 0x3D3 SWAP1 PUSH2 0x10CB JUMP JUMPDEST PUSH2 0xE06 DUP3 DUP3 PUSH2 0x1478 JUMP JUMPDEST PUSH1 0x1 PUSH1 0x1 PUSH1 0xA0 SHL SUB DUP5 AND PUSH1 0x0 SWAP1 DUP2 MSTORE PUSH1 0x3 PUSH1 0x20 MSTORE PUSH1 0x40 DUP2 KECCAK256 SWAP2 SWAP1 SWAP2 SSTORE PUSH1 0x5 DUP1 SLOAD DUP5 SWAP3 SWAP1 PUSH2 0xE34 SWAP1 DUP5 SWAP1 PUSH2 0x1478 JUMP JUMPDEST SWAP1 SWAP2 SSTORE POP POP PUSH1 0x40 MLOAD PUSH1 0x0 SWAP1 PUSH1 0x1 PUSH1 0x1 PUSH1 0xA0 SHL SUB DUP6 AND SWAP1 PUSH32 0xDDF252AD1BE2C89B69C2B068FC378DAA952BA7F163C4A11628F55A4DF523B3EF SWAP1 PUSH2 0xB2E SWAP1 DUP7 SWAP1 PUSH2 0x1449 JUMP JUMPDEST PUSH2 0xE7F PUSH2 0x6E2 JUMP JUMPDEST ISZERO PUSH2 0xE9C JUMPI PUSH1 0x40 MLOAD PUSH3 0x461BCD PUSH1 0xE5 SHL DUP2 MSTORE PUSH1 0x4 ADD PUSH2 0x3D3 SWAP1 PUSH2 0x11DB JUMP JUMPDEST PUSH1 0x8 DUP1 SLOAD PUSH1 0xFF NOT AND PUSH1 0x1 OR SWAP1 SSTORE PUSH32 0x62E78CEA01BEE320CD4E420270B5EA74000D11B0C9F74754EBDBFC544B05A258 PUSH2 0xCBA PUSH2 0xA83 JUMP JUMPDEST PUSH2 0xEDD DUP4 DUP4 DUP4 PUSH2 0xA7E JUMP JUMPDEST PUSH2 0xEE5 PUSH2 0x6E2 JUMP JUMPDEST ISZERO PUSH2 0xA7E JUMPI PUSH1 0x40 MLOAD PUSH3 0x461BCD PUSH1 0xE5 SHL DUP2 MSTORE PUSH1 0x4 ADD PUSH2 0x3D3 SWAP1 PUSH2 0x13FF JUMP JUMPDEST DUP1 CALLDATALOAD PUSH1 0x1 PUSH1 0x1 PUSH1 0xA0 SHL SUB DUP2 AND DUP2 EQ PUSH2 0x581 JUMPI PUSH1 0x0 DUP1 REVERT JUMPDEST PUSH1 0x0 PUSH1 0x20 DUP3 DUP5 SUB SLT ISZERO PUSH2 0xF2A JUMPI DUP1 DUP2 REVERT JUMPDEST PUSH2 0xF33 DUP3 PUSH2 0xF02 JUMP JUMPDEST SWAP4 SWAP3 POP POP POP JUMP JUMPDEST PUSH1 0x0 DUP1 PUSH1 0x40 DUP4 DUP6 SUB SLT ISZERO PUSH2 0xF4C JUMPI DUP1 DUP2 REVERT JUMPDEST PUSH2 0xF55 DUP4 PUSH2 0xF02 JUMP JUMPDEST SWAP2 POP PUSH2 0xF63 PUSH1 0x20 DUP5 ADD PUSH2 0xF02 JUMP JUMPDEST SWAP1 POP SWAP3 POP SWAP3 SWAP1 POP JUMP JUMPDEST PUSH1 0x0 DUP1 PUSH1 0x0 PUSH1 0x60 DUP5 DUP7 SUB SLT ISZERO PUSH2 0xF80 JUMPI DUP1 DUP2 REVERT JUMPDEST PUSH2 0xF89 DUP5 PUSH2 0xF02 JUMP JUMPDEST SWAP3 POP PUSH2 0xF97 PUSH1 0x20 DUP6 ADD PUSH2 0xF02 JUMP JUMPDEST SWAP2 POP PUSH1 0x40 DUP5 ADD CALLDATALOAD SWAP1 POP SWAP3 POP SWAP3 POP SWAP3 JUMP JUMPDEST PUSH1 0x0 DUP1 PUSH1 0x40 DUP4 DUP6 SUB SLT ISZERO PUSH2 0xFB9 JUMPI DUP2 DUP3 REVERT JUMPDEST PUSH2 0xFC2 DUP4 PUSH2 0xF02 JUMP JUMPDEST SWAP5 PUSH1 0x20 SWAP4 SWAP1 SWAP4 ADD CALLDATALOAD SWAP4 POP POP POP JUMP JUMPDEST PUSH1 0x0 PUSH1 0x20 DUP3 DUP5 SUB SLT ISZERO PUSH2 0xFE1 JUMPI DUP1 DUP2 REVERT JUMPDEST POP CALLDATALOAD SWAP2 SWAP1 POP JUMP JUMPDEST PUSH1 0x1 PUSH1 0x1 PUSH1 0xA0 SHL SUB SWAP2 SWAP1 SWAP2 AND DUP2 MSTORE PUSH1 0x20 ADD SWAP1 JUMP JUMPDEST SWAP1 ISZERO ISZERO DUP2 MSTORE PUSH1 0x20 ADD SWAP1 JUMP JUMPDEST PUSH1 0x0 PUSH1 0x20 DUP1 DUP4 MSTORE DUP4 MLOAD DUP1 DUP3 DUP6 ADD MSTORE DUP3 JUMPDEST DUP2 DUP2 LT ISZERO PUSH2 0x1033 JUMPI DUP6 DUP2 ADD DUP4 ADD MLOAD DUP6 DUP3 ADD PUSH1 0x40 ADD MSTORE DUP3 ADD PUSH2 0x1017 JUMP JUMPDEST DUP2 DUP2 GT ISZERO PUSH2 0x1044 JUMPI DUP4 PUSH1 0x40 DUP4 DUP8 ADD ADD MSTORE JUMPDEST POP PUSH1 0x1F ADD PUSH1 0x1F NOT AND SWAP3 SWAP1 SWAP3 ADD PUSH1 0x40 ADD SWAP4 SWAP3 POP POP POP JUMP JUMPDEST PUSH1 0x20 DUP1 DUP3 MSTORE PUSH1 0x23 SWAP1 DUP3 ADD MSTORE PUSH32 0x45524332303A207472616E7366657220746F20746865207A65726F2061646472 PUSH1 0x40 DUP3 ADD MSTORE PUSH3 0x657373 PUSH1 0xE8 SHL PUSH1 0x60 DUP3 ADD MSTORE PUSH1 0x80 ADD SWAP1 JUMP JUMPDEST PUSH1 0x20 DUP1 DUP3 MSTORE PUSH1 0x14 SWAP1 DUP3 ADD MSTORE PUSH20 0x14185D5CD8589B194E881B9BDD081C185D5CD959 PUSH1 0x62 SHL PUSH1 0x40 DUP3 ADD MSTORE PUSH1 0x60 ADD SWAP1 JUMP JUMPDEST PUSH1 0x20 DUP1 DUP3 MSTORE PUSH1 0x22 SWAP1 DUP3 ADD MSTORE PUSH32 0x45524332303A206275726E20616D6F756E7420657863656564732062616C616E PUSH1 0x40 DUP3 ADD MSTORE PUSH2 0x6365 PUSH1 0xF0 SHL PUSH1 0x60 DUP3 ADD MSTORE PUSH1 0x80 ADD SWAP1 JUMP JUMPDEST PUSH1 0x20 DUP1 DUP3 MSTORE PUSH1 0x26 SWAP1 DUP3 ADD MSTORE PUSH32 0x4F776E61626C653A206E6577206F776E657220697320746865207A65726F2061 PUSH1 0x40 DUP3 ADD MSTORE PUSH6 0x646472657373 PUSH1 0xD0 SHL PUSH1 0x60 DUP3 ADD MSTORE PUSH1 0x80 ADD SWAP1 JUMP JUMPDEST PUSH1 0x20 DUP1 DUP3 MSTORE PUSH1 0x22 SWAP1 DUP3 ADD MSTORE PUSH32 0x45524332303A20617070726F766520746F20746865207A65726F206164647265 PUSH1 0x40 DUP3 ADD MSTORE PUSH2 0x7373 PUSH1 0xF0 SHL PUSH1 0x60 DUP3 ADD MSTORE PUSH1 0x80 ADD SWAP1 JUMP JUMPDEST PUSH1 0x20 DUP1 DUP3 MSTORE PUSH1 0x26 SWAP1 DUP3 ADD MSTORE PUSH32 0x45524332303A207472616E7366657220616D6F756E7420657863656564732062 PUSH1 0x40 DUP3 ADD MSTORE PUSH6 0x616C616E6365 PUSH1 0xD0 SHL PUSH1 0x60 DUP3 ADD MSTORE PUSH1 0x80 ADD SWAP1 JUMP JUMPDEST PUSH1 0x20 DUP1 DUP3 MSTORE PUSH1 0x10 SWAP1 DUP3 ADD MSTORE PUSH16 0x14185D5CD8589B194E881C185D5CD959 PUSH1 0x82 SHL PUSH1 0x40 DUP3 ADD MSTORE PUSH1 0x60 ADD SWAP1 JUMP JUMPDEST PUSH1 0x20 DUP1 DUP3 MSTORE PUSH1 0x18 SWAP1 DUP3 ADD MSTORE PUSH32 0x6D73672E73656E646572206D7573742062652061646D696E0000000000000000 PUSH1 0x40 DUP3 ADD MSTORE PUSH1 0x60 ADD SWAP1 JUMP JUMPDEST PUSH1 0x20 DUP1 DUP3 MSTORE PUSH1 0x28 SWAP1 DUP3 ADD MSTORE PUSH32 0x45524332303A207472616E7366657220616D6F756E7420657863656564732061 PUSH1 0x40 DUP3 ADD MSTORE PUSH8 0x6C6C6F77616E6365 PUSH1 0xC0 SHL PUSH1 0x60 DUP3 ADD MSTORE PUSH1 0x80 ADD SWAP1 JUMP JUMPDEST PUSH1 0x20 DUP1 DUP3 MSTORE DUP2 DUP2 ADD MSTORE PUSH32 0x4F776E61626C653A2063616C6C6572206973206E6F7420746865206F776E6572 PUSH1 0x40 DUP3 ADD MSTORE PUSH1 0x60 ADD SWAP1 JUMP JUMPDEST PUSH1 0x20 DUP1 DUP3 MSTORE PUSH1 0x21 SWAP1 DUP3 ADD MSTORE PUSH32 0x45524332303A206275726E2066726F6D20746865207A65726F20616464726573 PUSH1 0x40 DUP3 ADD MSTORE PUSH1 0x73 PUSH1 0xF8 SHL PUSH1 0x60 DUP3 ADD MSTORE PUSH1 0x80 ADD SWAP1 JUMP JUMPDEST PUSH1 0x20 DUP1 DUP3 MSTORE PUSH1 0x25 SWAP1 DUP3 ADD MSTORE PUSH32 0x45524332303A207472616E736665722066726F6D20746865207A65726F206164 PUSH1 0x40 DUP3 ADD MSTORE PUSH5 0x6472657373 PUSH1 0xD8 SHL PUSH1 0x60 DUP3 ADD MSTORE PUSH1 0x80 ADD SWAP1 JUMP JUMPDEST PUSH1 0x20 DUP1 DUP3 MSTORE PUSH1 0x24 SWAP1 DUP3 ADD MSTORE PUSH32 0x45524332303A20617070726F76652066726F6D20746865207A65726F20616464 PUSH1 0x40 DUP3 ADD MSTORE PUSH4 0x72657373 PUSH1 0xE0 SHL PUSH1 0x60 DUP3 ADD MSTORE PUSH1 0x80 ADD SWAP1 JUMP JUMPDEST PUSH1 0x20 DUP1 DUP3 MSTORE PUSH1 0x25 SWAP1 DUP3 ADD MSTORE PUSH32 0x45524332303A2064656372656173656420616C6C6F77616E63652062656C6F77 PUSH1 0x40 DUP3 ADD MSTORE PUSH5 0x207A65726F PUSH1 0xD8 SHL PUSH1 0x60 DUP3 ADD MSTORE PUSH1 0x80 ADD SWAP1 JUMP JUMPDEST PUSH1 0x20 DUP1 DUP3 MSTORE PUSH1 0x1F SWAP1 DUP3 ADD MSTORE PUSH32 0x45524332303A206D696E7420746F20746865207A65726F206164647265737300 PUSH1 0x40 DUP3 ADD MSTORE PUSH1 0x60 ADD SWAP1 JUMP JUMPDEST PUSH1 0x20 DUP1 DUP3 MSTORE PUSH1 0x2A SWAP1 DUP3 ADD MSTORE PUSH32 0x45524332305061757361626C653A20746F6B656E207472616E73666572207768 PUSH1 0x40 DUP3 ADD MSTORE PUSH10 0x1A5B19481C185D5CD959 PUSH1 0xB2 SHL PUSH1 0x60 DUP3 ADD MSTORE PUSH1 0x80 ADD SWAP1 JUMP JUMPDEST SWAP1 DUP2 MSTORE PUSH1 0x20 ADD SWAP1 JUMP JUMPDEST PUSH1 0xFF SWAP2 SWAP1 SWAP2 AND DUP2 MSTORE PUSH1 0x20 ADD SWAP1 JUMP JUMPDEST PUSH1 0x0 DUP3 NOT DUP3 GT ISZERO PUSH2 0x1473 JUMPI PUSH2 0x1473 PUSH2 0x14E5 JUMP JUMPDEST POP ADD SWAP1 JUMP JUMPDEST PUSH1 0x0 DUP3 DUP3 LT ISZERO PUSH2 0x148A JUMPI PUSH2 0x148A PUSH2 0x14E5 JUMP JUMPDEST POP SUB SWAP1 JUMP JUMPDEST PUSH1 0x2 DUP2 DIV PUSH1 0x1 DUP3 AND DUP1 PUSH2 0x14A3 JUMPI PUSH1 0x7F DUP3 AND SWAP2 POP JUMPDEST PUSH1 0x20 DUP3 LT DUP2 EQ ISZERO PUSH2 0x14C4 JUMPI PUSH4 0x4E487B71 PUSH1 0xE0 SHL PUSH1 0x0 MSTORE PUSH1 0x22 PUSH1 0x4 MSTORE PUSH1 0x24 PUSH1 0x0 REVERT JUMPDEST POP SWAP2 SWAP1 POP JUMP JUMPDEST PUSH1 0x0 PUSH1 0x0 NOT DUP3 EQ ISZERO PUSH2 0x14DE JUMPI PUSH2 0x14DE PUSH2 0x14E5 JUMP JUMPDEST POP PUSH1 0x1 ADD SWAP1 JUMP JUMPDEST PUSH4 0x4E487B71 PUSH1 0xE0 SHL PUSH1 0x0 MSTORE PUSH1 0x11 PUSH1 0x4 MSTORE PUSH1 0x24 PUSH1 0x0 REVERT INVALID LOG2 PUSH5 0x6970667358 0x22 SLT KECCAK256 0x2B POP SDIV MSTORE8 PUSH23 0xCE22FFA9E4125A8087E2CD3300582FB8C13E747FD22D96 SGT 0xB9 0xCB 0xF7 PUSH5 0x736F6C6343 STOP ADDMOD STOP STOP CALLER "
		},
		"gasEstimates": {
			"creation": {
				"codeDepositCost": "1085000",
				"executionCost": "infinite",
				"totalCost": "infinite"
			},
			"external": {
				"INITIAL_SUPPLY()": "1073",
				"addAdmin(address)": "65936",
				"allowance(address,address)": "infinite",
				"approve(address,uint256)": "22629",
				"balanceOf(address)": "1359",
				"burn(uint256)": "infinite",
				"decimals()": "307",
				"decreaseAllowance(address,uint256)": "infinite",
				"increaseAllowance(address,uint256)": "infinite",
				"isAdmin(address)": "infinite",
				"mint(address,uint256)": "infinite",
				"name()": "infinite",
				"owner()": "1092",
				"pause()": "infinite",
				"paused()": "1085",
				"removeAdmin(address)": "infinite",
				"renounceOwnership()": "24366",
				"symbol()": "infinite",
				"totalSupply()": "1118",
				"transfer(address,uint256)": "infinite",
				"transferFrom(address,address,uint256)": "infinite",
				"transferOwnership(address)": "24622",
				"unpause()": "infinite"
			}
		},
		"methodIdentifiers": {
			"INITIAL_SUPPLY()": "2ff2e9dc",
			"addAdmin(address)": "70480275",
			"allowance(address,address)": "dd62ed3e",
			"approve(address,uint256)": "095ea7b3",
			"balanceOf(address)": "70a08231",
			"burn(uint256)": "42966c68",
			"decimals()": "313ce567",
			"decreaseAllowance(address,uint256)": "a457c2d7",
			"increaseAllowance(address,uint256)": "39509351",
			"isAdmin(address)": "24d7806c",
			"mint(address,uint256)": "40c10f19",
			"name()": "06fdde03",
			"owner()": "8da5cb5b",
			"pause()": "8456cb59",
			"paused()": "5c975abb",
			"removeAdmin(address)": "1785f53c",
			"renounceOwnership()": "715018a6",
			"symbol()": "95d89b41",
			"totalSupply()": "18160ddd",
			"transfer(address,uint256)": "a9059cbb",
			"transferFrom(address,address,uint256)": "23b872dd",
			"transferOwnership(address)": "f2fde38b",
			"unpause()": "3f4ba83a"
		}
	},
	"abi": [
		{
			"inputs": [],
			"stateMutability": "nonpayable",
			"type": "constructor"
		},
		{
			"anonymous": false,
			"inputs": [
				{
					"indexed": true,
					"internalType": "address",
					"name": "newAdmin",
					"type": "address"
				}
			],
			"name": "AddAdminLog",
			"type": "event"
		},
		{
			"anonymous": false,
			"inputs": [
				{
					"indexed": true,
					"internalType": "address",
					"name": "owner",
					"type": "address"
				},
				{
					"indexed": true,
					"internalType": "address",
					"name": "spender",
					"type": "address"
				},
				{
					"indexed": false,
					"internalType": "uint256",
					"name": "value",
					"type": "uint256"
				}
			],
			"name": "Approval",
			"type": "event"
		},
		{
			"anonymous": false,
			"inputs": [
				{
					"indexed": true,
					"internalType": "address",
					"name": "previousOwner",
					"type": "address"
				},
				{
					"indexed": true,
					"internalType": "address",
					"name": "newOwner",
					"type": "address"
				}
			],
			"name": "OwnershipTransferred",
			"type": "event"
		},
		{
			"anonymous": false,
			"inputs": [
				{
					"indexed": false,
					"internalType": "address",
					"name": "account",
					"type": "address"
				}
			],
			"name": "Paused",
			"type": "event"
		},
		{
			"anonymous": false,
			"inputs": [
				{
					"indexed": true,
					"internalType": "address",
					"name": "removedAdmin",
					"type": "address"
				}
			],
			"name": "RemoveAdminLog",
			"type": "event"
		},
		{
			"anonymous": false,
			"inputs": [
				{
					"indexed": true,
					"internalType": "address",
					"name": "from",
					"type": "address"
				},
				{
					"indexed": true,
					"internalType": "address",
					"name": "to",
					"type": "address"
				},
				{
					"indexed": false,
					"internalType": "uint256",
					"name": "value",
					"type": "uint256"
				}
			],
			"name": "Transfer",
			"type": "event"
		},
		{
			"anonymous": false,
			"inputs": [
				{
					"indexed": false,
					"internalType": "address",
					"name": "account",
					"type": "address"
				}
			],
			"name": "Unpaused",
			"type": "event"
		},
		{
			"inputs": [],
			"name": "INITIAL_SUPPLY",
			"outputs": [
				{
					"internalType": "uint256",
					"name": "",
					"type": "uint256"
				}
			],
			"stateMutability": "view",
			"type": "function"
		},
		{
			"inputs": [
				{
					"internalType": "address",
					"name": "_address",
					"type": "address"
				}
			],
			"name": "addAdmin",
			"outputs": [],
			"stateMutability": "nonpayable",
			"type": "function"
		},
		{
			"inputs": [
				{
					"internalType": "address",
					"name": "owner",
					"type": "address"
				},
				{
					"internalType": "address",
					"name": "spender",
					"type": "address"
				}
			],
			"name": "allowance",
			"outputs": [
				{
					"internalType": "uint256",
					"name": "",
					"type": "uint256"
				}
			],
			"stateMutability": "view",
			"type": "function"
		},
		{
			"inputs": [
				{
					"internalType": "address",
					"name": "spender",
					"type": "address"
				},
				{
					"internalType": "uint256",
					"name": "amount",
					"type": "uint256"
				}
			],
			"name": "approve",
			"outputs": [
				{
					"internalType": "bool",
					"name": "",
					"type": "bool"
				}
			],
			"stateMutability": "nonpayable",
			"type": "function"
		},
		{
			"inputs": [
				{
					"internalType": "address",
					"name": "account",
					"type": "address"
				}
			],
			"name": "balanceOf",
			"outputs": [
				{
					"internalType": "uint256",
					"name": "",
					"type": "uint256"
				}
			],
			"stateMutability": "view",
			"type": "function"
		},
		{
			"inputs": [
				{
					"internalType": "uint256",
					"name": "amount",
					"type": "uint256"
				}
			],
			"name": "burn",
			"outputs": [],
			"stateMutability": "nonpayable",
			"type": "function"
		},
		{
			"inputs": [],
			"name": "decimals",
			"outputs": [
				{
					"internalType": "uint8",
					"name": "",
					"type": "uint8"
				}
			],
			"stateMutability": "view",
			"type": "function"
		},
		{
			"inputs": [
				{
					"internalType": "address",
					"name": "spender",
					"type": "address"
				},
				{
					"internalType": "uint256",
					"name": "subtractedValue",
					"type": "uint256"
				}
			],
			"name": "decreaseAllowance",
			"outputs": [
				{
					"internalType": "bool",
					"name": "",
					"type": "bool"
				}
			],
			"stateMutability": "nonpayable",
			"type": "function"
		},
		{
			"inputs": [
				{
					"internalType": "address",
					"name": "spender",
					"type": "address"
				},
				{
					"internalType": "uint256",
					"name": "addedValue",
					"type": "uint256"
				}
			],
			"name": "increaseAllowance",
			"outputs": [
				{
					"internalType": "bool",
					"name": "",
					"type": "bool"
				}
			],
			"stateMutability": "nonpayable",
			"type": "function"
		},
		{
			"inputs": [
				{
					"internalType": "address",
					"name": "_address",
					"type": "address"
				}
			],
			"name": "isAdmin",
			"outputs": [
				{
					"internalType": "bool",
					"name": "",
					"type": "bool"
				}
			],
			"stateMutability": "view",
			"type": "function"
		},
		{
			"inputs": [
				{
					"internalType": "address",
					"name": "account",
					"type": "address"
				},
				{
					"internalType": "uint256",
					"name": "amount",
					"type": "uint256"
				}
			],
			"name": "mint",
			"outputs": [],
			"stateMutability": "nonpayable",
			"type": "function"
		},
		{
			"inputs": [],
			"name": "name",
			"outputs": [
				{
					"internalType": "string",
					"name": "",
					"type": "string"
				}
			],
			"stateMutability": "view",
			"type": "function"
		},
		{
			"inputs": [],
			"name": "owner",
			"outputs": [
				{
					"internalType": "address",
					"name": "",
					"type": "address"
				}
			],
			"stateMutability": "view",
			"type": "function"
		},
		{
			"inputs": [],
			"name": "pause",
			"outputs": [],
			"stateMutability": "nonpayable",
			"type": "function"
		},
		{
			"inputs": [],
			"name": "paused",
			"outputs": [
				{
					"internalType": "bool",
					"name": "",
					"type": "bool"
				}
			],
			"stateMutability": "view",
			"type": "function"
		},
		{
			"inputs": [
				{
					"internalType": "address",
					"name": "_address",
					"type": "address"
				}
			],
			"name": "removeAdmin",
			"outputs": [],
			"stateMutability": "nonpayable",
			"type": "function"
		},
		{
			"inputs": [],
			"name": "renounceOwnership",
			"outputs": [],
			"stateMutability": "nonpayable",
			"type": "function"
		},
		{
			"inputs": [],
			"name": "symbol",
			"outputs": [
				{
					"internalType": "string",
					"name": "",
					"type": "string"
				}
			],
			"stateMutability": "view",
			"type": "function"
		},
		{
			"inputs": [],
			"name": "totalSupply",
			"outputs": [
				{
					"internalType": "uint256",
					"name": "",
					"type": "uint256"
				}
			],
			"stateMutability": "view",
			"type": "function"
		},
		{
			"inputs": [
				{
					"internalType": "address",
					"name": "recipient",
					"type": "address"
				},
				{
					"internalType": "uint256",
					"name": "amount",
					"type": "uint256"
				}
			],
			"name": "transfer",
			"outputs": [
				{
					"internalType": "bool",
					"name": "",
					"type": "bool"
				}
			],
			"stateMutability": "nonpayable",
			"type": "function"
		},
		{
			"inputs": [
				{
					"internalType": "address",
					"name": "sender",
					"type": "address"
				},
				{
					"internalType": "address",
					"name": "recipient",
					"type": "address"
				},
				{
					"internalType": "uint256",
					"name": "amount",
					"type": "uint256"
				}
			],
			"name": "transferFrom",
			"outputs": [
				{
					"internalType": "bool",
					"name": "",
					"type": "bool"
				}
			],
			"stateMutability": "nonpayable",
			"type": "function"
		},
		{
			"inputs": [
				{
					"internalType": "address",
					"name": "newOwner",
					"type": "address"
				}
			],
			"name": "transferOwnership",
			"outputs": [],
			"stateMutability": "nonpayable",
			"type": "function"
		},
		{
			"inputs": [],
			"name": "unpause",
			"outputs": [],
			"stateMutability": "nonpayable",
			"type": "function"
		}
	]
}