{
	"data": {
		"bytecode": {
			"linkReferences": {},
			"object": "60a06040523480156200001157600080fd5b5060405162003f5f38038062003f5f8339818101604052810190620000379190620003de565b8160ff16600a620000499190620005b3565b81620000569190620006f0565b848460006200006a6200028660201b60201c565b9050806000806101000a81548173ffffffffffffffffffffffffffffffffffffffff021916908373ffffffffffffffffffffffffffffffffffffffff1602179055508073ffffffffffffffffffffffffffffffffffffffff16600073ffffffffffffffffffffffffffffffffffffffff167f8be0079c531659141344cd1fd0a4f28419497f9722a3daafe3b4186f6b6457e060405160405180910390a3506001339080600181540180825580915050600190039060005260206000200160009091909190916101000a81548173ffffffffffffffffffffffffffffffffffffffff021916908373ffffffffffffffffffffffffffffffffffffffff1602179055506001600260003373ffffffffffffffffffffffffffffffffffffffff1673ffffffffffffffffffffffffffffffffffffffff16815260200190815260200160002060006101000a81548160ff0219169083151502179055508160069080519060200190620001db9291906200028e565b508060079080519060200190620001f49291906200028e565b5050506000600860006101000a81548160ff0219169083151502179055506000811162000258576040517f08c379a00000000000000000000000000000000000000000000000000000000081526004016200024f90620004be565b60405180910390fd5b80608081815250505081600e60006101000a81548160ff021916908360ff16021790555050505050620008a2565b600033905090565b8280546200029c906200079e565b90600052602060002090601f016020900481019282620002c057600085556200030c565b82601f10620002db57805160ff19168380011785556200030c565b828001600101855582156200030c579182015b828111156200030b578251825591602001919060010190620002ee565b5b5090506200031b91906200031f565b5090565b5b808211156200033a57600081600090555060010162000320565b5090565b6000620003556200034f8462000514565b620004e0565b9050828152602081018484840111156200036e57600080fd5b6200037b84828562000768565b509392505050565b600082601f8301126200039557600080fd5b8151620003a78482602086016200033e565b91505092915050565b600081519050620003c1816200086e565b92915050565b600081519050620003d88162000888565b92915050565b60008060008060808587031215620003f557600080fd5b600085015167ffffffffffffffff8111156200041057600080fd5b6200041e8782880162000383565b945050602085015167ffffffffffffffff8111156200043c57600080fd5b6200044a8782880162000383565b93505060406200045d87828801620003c7565b92505060606200047087828801620003b0565b91505092959194509250565b60006200048b60158362000547565b91507f45524332304361707065643a20636170206973203000000000000000000000006000830152602082019050919050565b60006020820190508181036000830152620004d9816200047c565b9050919050565b6000604051905081810181811067ffffffffffffffff821117156200050a576200050962000832565b5b8060405250919050565b600067ffffffffffffffff82111562000532576200053162000832565b5b601f19601f8301169050602081019050919050565b600082825260208201905092915050565b6000808291508390505b6001851115620005aa57808604811115620005825762000581620007d4565b5b6001851615620005925780820291505b8081029050620005a28562000861565b945062000562565b94509492505050565b6000620005c08262000751565b9150620005cd8362000751565b9250620005fc7fffffffffffffffffffffffffffffffffffffffffffffffffffffffffffffffff848462000604565b905092915050565b600082620006165760019050620006e9565b81620006265760009050620006e9565b81600181146200063f57600281146200064a5762000680565b6001915050620006e9565b60ff8411156200065f576200065e620007d4565b5b8360020a915084821115620006795762000678620007d4565b5b50620006e9565b5060208310610133831016604e8410600b8410161715620006ba5782820a905083811115620006b457620006b3620007d4565b5b620006e9565b620006c9848484600162000558565b92509050818404811115620006e357620006e2620007d4565b5b81810290505b9392505050565b6000620006fd8262000751565b91506200070a8362000751565b9250817fffffffffffffffffffffffffffffffffffffffffffffffffffffffffffffffff0483118215151615620007465762000745620007d4565b5b828202905092915050565b6000819050919050565b600060ff82169050919050565b60005b83811015620007885780820151818401526020810190506200076b565b8381111562000798576000848401525b50505050565b60006002820490506001821680620007b757607f821691505b60208210811415620007ce57620007cd62000803565b5b50919050565b7f4e487b7100000000000000000000000000000000000000000000000000000000600052601160045260246000fd5b7f4e487b7100000000000000000000000000000000000000000000000000000000600052602260045260246000fd5b7f4e487b7100000000000000000000000000000000000000000000000000000000600052604160045260246000fd5b60008160011c9050919050565b620008798162000751565b81146200088557600080fd5b50565b62000893816200075b565b81146200089f57600080fd5b50565b6080516136a1620008be60003960006109eb01526136a16000f3fe608060405234801561001057600080fd5b50600436106101c45760003560e01c80635c975abb116100f957806395d89b4111610097578063a9059cbb11610071578063a9059cbb146104e3578063af3da2f414610513578063dd62ed3e1461052f578063f2fde38b1461055f576101c4565b806395d89b4114610465578063981b24d014610483578063a457c2d7146104b3576101c4565b8063715018a6116100d3578063715018a61461041757806379cc6790146104215780638456cb591461043d5780638da5cb5b14610447576101c4565b80635c975abb146103ad57806370480275146103cb57806370a08231146103e7576101c4565b8063313ce567116101665780633f4ba83a116101405780633f4ba83a1461033b57806342966c68146103455780634ee2cd7e146103615780635ad748e414610391576101c4565b8063313ce567146102cf578063355274ea146102ed578063395093511461030b576101c4565b806318160ddd116101a257806318160ddd1461023357806323b872dd146102515780632405e3c61461028157806324d7806c1461029f576101c4565b806306fdde03146101c9578063095ea7b3146101e75780631785f53c14610217575b600080fd5b6101d161057b565b6040516101de9190612ee4565b60405180910390f35b61020160048036038101906101fc91906126c7565b61060d565b60405161020e9190612ec9565b60405180910390f35b610231600480360381019061022c9190612613565b61062b565b005b61023b610869565b6040516102489190613186565b60405180910390f35b61026b60048036038101906102669190612678565b610873565b6040516102789190612ec9565b60405180910390f35b610289610974565b6040516102969190613186565b60405180910390f35b6102b960048036038101906102b49190612613565b61097a565b6040516102c69190612ec9565b60405180910390f35b6102d76109d0565b6040516102e491906131a1565b60405180910390f35b6102f56109e7565b6040516103029190613186565b60405180910390f35b610325600480360381019061032091906126c7565b610a0f565b6040516103329190612ec9565b60405180910390f35b610343610abb565b005b61035f600480360381019061035a9190612703565b610b88565b005b61037b600480360381019061037691906126c7565b610b9c565b6040516103889190613186565b60405180910390f35b6103ab60048036038101906103a691906126c7565b610c0c565b005b6103b5610d32565b6040516103c29190612ec9565b60405180910390f35b6103e560048036038101906103e09190612613565b610d49565b005b61040160048036038101906103fc9190612613565b610f18565b60405161040e9190613186565b60405180910390f35b61041f610f61565b005b61043b600480360381019061043691906126c7565b61109b565b005b61044561111f565b005b61044f6111ed565b60405161045c9190612e69565b60405180910390f35b61046d611216565b60405161047a9190612ee4565b60405180910390f35b61049d60048036038101906104989190612703565b6112a8565b6040516104aa9190613186565b60405180910390f35b6104cd60048036038101906104c891906126c7565b6112d9565b6040516104da9190612ec9565b60405180910390f35b6104fd60048036038101906104f891906126c7565b6113cd565b60405161050a9190612ec9565b60405180910390f35b61052d600480360381019061052891906126c7565b6113eb565b005b6105496004803603810190610544919061263c565b611545565b6040516105569190613186565b60405180910390f35b61057960048036038101906105749190612613565b6115cc565b005b60606006805461058a906134e6565b80601f01602080910402602001604051908101604052809291908181526020018280546105b6906134e6565b80156106035780601f106105d857610100808354040283529160200191610603565b820191906000526020600020905b8154815290600101906020018083116105e657829003601f168201915b5050505050905090565b600061062161061a611775565b848461177d565b6001905092915050565b610633611775565b73ffffffffffffffffffffffffffffffffffffffff166106516111ed565b73ffffffffffffffffffffffffffffffffffffffff16146106a7576040517f08c379a000000000000000000000000000000000000000000000000000000000815260040161069e90613046565b60405180910390fd5b60005b600180549050811015610865578173ffffffffffffffffffffffffffffffffffffffff1660018281548110610708577f4e487b7100000000000000000000000000000000000000000000000000000000600052603260045260246000fd5b9060005260206000200160009054906101000a900473ffffffffffffffffffffffffffffffffffffffff1673ffffffffffffffffffffffffffffffffffffffff1614156108525760018181548110610789577f4e487b7100000000000000000000000000000000000000000000000000000000600052603260045260246000fd5b9060005260206000200160006101000a81549073ffffffffffffffffffffffffffffffffffffffff02191690556000600260008473ffffffffffffffffffffffffffffffffffffffff1673ffffffffffffffffffffffffffffffffffffffff16815260200190815260200160002060006101000a81548160ff0219169083151502179055508173ffffffffffffffffffffffffffffffffffffffff167fc715f0855a20a185f4934a71d21a10fdd4dabc049885faef1006389a1b0a160860405160405180910390a25b808061085d90613518565b9150506106aa565b5050565b6000600554905090565b6000610880848484611948565b6000600460008673ffffffffffffffffffffffffffffffffffffffff1673ffffffffffffffffffffffffffffffffffffffff16815260200190815260200160002060006108cb611775565b73ffffffffffffffffffffffffffffffffffffffff1673ffffffffffffffffffffffffffffffffffffffff1681526020019081526020016000205490508281101561094b576040517f08c379a000000000000000000000000000000000000000000000000000000000815260040161094290613026565b60405180910390fd5b61096885610957611775565b8584610963919061342a565b61177d565b60019150509392505050565b600d5481565b6000600260008373ffffffffffffffffffffffffffffffffffffffff1673ffffffffffffffffffffffffffffffffffffffff16815260200190815260200160002060009054906101000a900460ff169050919050565b6000600e60009054906101000a900460ff16905090565b60007f0000000000000000000000000000000000000000000000000000000000000000905090565b6000610ab1610a1c611775565b848460046000610a2a611775565b73ffffffffffffffffffffffffffffffffffffffff1673ffffffffffffffffffffffffffffffffffffffff16815260200190815260200160002060008873ffffffffffffffffffffffffffffffffffffffff1673ffffffffffffffffffffffffffffffffffffffff16815260200190815260200160002054610aac91906131d8565b61177d565b6001905092915050565b610ac3611775565b73ffffffffffffffffffffffffffffffffffffffff16610ae16111ed565b73ffffffffffffffffffffffffffffffffffffffff1614610b37576040517f08c379a0000000000000000000000000000000000000000000000000000000008152600401610b2e90613046565b60405180910390fd5b610b3f610d32565b610b7e576040517f08c379a0000000000000000000000000000000000000000000000000000000008152600401610b7590612f46565b60405180910390fd5b610b86611bca565b565b610b99610b93611775565b82611c6c565b50565b6000806000610be984600960008873ffffffffffffffffffffffffffffffffffffffff1673ffffffffffffffffffffffffffffffffffffffff168152602001908152602001600020611e42565b9150915081610c0057610bfb85610f18565b610c02565b805b9250505092915050565b610c14610d32565b15610c54576040517f08c379a0000000000000000000000000000000000000000000000000000000008152600401610c4b90612fe6565b60405180910390fd5b60011515600260003373ffffffffffffffffffffffffffffffffffffffff1673ffffffffffffffffffffffffffffffffffffffff16815260200190815260200160002060009054906101000a900460ff16151514610ce7576040517f08c379a0000000000000000000000000000000000000000000000000000000008152600401610cde90613006565b60405180910390fd5b610cf18282611c6c565b7f8c290dda8b933846197593e5327a54aeaf4feab1bdbc259b7d98887a1f5eb19d33838342604051610d269493929190612e84565b60405180910390a15050565b6000600860009054906101000a900460ff16905090565b610d51611775565b73ffffffffffffffffffffffffffffffffffffffff16610d6f6111ed565b73ffffffffffffffffffffffffffffffffffffffff1614610dc5576040517f08c379a0000000000000000000000000000000000000000000000000000000008152600401610dbc90613046565b60405180910390fd5b600260008273ffffffffffffffffffffffffffffffffffffffff1673ffffffffffffffffffffffffffffffffffffffff16815260200190815260200160002060009054906101000a900460ff16610f15576001819080600181540180825580915050600190039060005260206000200160009091909190916101000a81548173ffffffffffffffffffffffffffffffffffffffff021916908373ffffffffffffffffffffffffffffffffffffffff1602179055506001600260008373ffffffffffffffffffffffffffffffffffffffff1673ffffffffffffffffffffffffffffffffffffffff16815260200190815260200160002060006101000a81548160ff0219169083151502179055508073ffffffffffffffffffffffffffffffffffffffff167f4550f0acb6b43e87f5e4b34b16e7fbf8af3b81b79b8077ca49ff3afa15d7e91160405160405180910390a25b50565b6000600360008373ffffffffffffffffffffffffffffffffffffffff1673ffffffffffffffffffffffffffffffffffffffff168152602001908152602001600020549050919050565b610f69611775565b73ffffffffffffffffffffffffffffffffffffffff16610f876111ed565b73ffffffffffffffffffffffffffffffffffffffff1614610fdd576040517f08c379a0000000000000000000000000000000000000000000000000000000008152600401610fd490613046565b60405180910390fd5b600073ffffffffffffffffffffffffffffffffffffffff1660008054906101000a900473ffffffffffffffffffffffffffffffffffffffff1673ffffffffffffffffffffffffffffffffffffffff167f8be0079c531659141344cd1fd0a4f28419497f9722a3daafe3b4186f6b6457e060405160405180910390a360008060006101000a81548173ffffffffffffffffffffffffffffffffffffffff021916908373ffffffffffffffffffffffffffffffffffffffff160217905550565b60006110ae836110a9611775565b611545565b9050818110156110f3576040517f08c379a00000000000000000000000000000000000000000000000000000000081526004016110ea90613066565b60405180910390fd5b611110836110ff611775565b848461110b919061342a565b61177d565b61111a8383611c6c565b505050565b611127611775565b73ffffffffffffffffffffffffffffffffffffffff166111456111ed565b73ffffffffffffffffffffffffffffffffffffffff161461119b576040517f08c379a000000000000000000000000000000000000000000000000000000000815260040161119290613046565b60405180910390fd5b6111a3610d32565b156111e3576040517f08c379a00000000000000000000000000000000000000000000000000000000081526004016111da90612fe6565b60405180910390fd5b6111eb611f60565b565b60008060009054906101000a900473ffffffffffffffffffffffffffffffffffffffff16905090565b606060078054611225906134e6565b80601f0160208091040260200160405190810160405280929190818152602001828054611251906134e6565b801561129e5780601f106112735761010080835404028352916020019161129e565b820191906000526020600020905b81548152906001019060200180831161128157829003601f168201915b5050505050905090565b60008060006112b884600a611e42565b91509150816112ce576112c9610869565b6112d0565b805b92505050919050565b600080600460006112e8611775565b73ffffffffffffffffffffffffffffffffffffffff1673ffffffffffffffffffffffffffffffffffffffff16815260200190815260200160002060008573ffffffffffffffffffffffffffffffffffffffff1673ffffffffffffffffffffffffffffffffffffffff168152602001908152602001600020549050828110156113a5576040517f08c379a000000000000000000000000000000000000000000000000000000000815260040161139c90613126565b60405180910390fd5b6113c26113b0611775565b8585846113bd919061342a565b61177d565b600191505092915050565b60006113e16113da611775565b8484611948565b6001905092915050565b6113f3610d32565b15611433576040517f08c379a000000000000000000000000000000000000000000000000000000000815260040161142a90612fe6565b60405180910390fd5b60011515600260003373ffffffffffffffffffffffffffffffffffffffff1673ffffffffffffffffffffffffffffffffffffffff16815260200190815260200160002060009054906101000a900460ff161515146114c6576040517f08c379a00000000000000000000000000000000000000000000000000000000081526004016114bd90613006565b60405180910390fd5b6000600d5414156114fa576114d96109d0565b60ff16600a6114e891906132b2565b816114f391906133d0565b600d819055505b6115048282612003565b7f29b1a65dadc2f0d400766e35fea46a25094f621057e0a3b94e1fe53230db87c1338383426040516115399493929190612e84565b60405180910390a15050565b6000600460008473ffffffffffffffffffffffffffffffffffffffff1673ffffffffffffffffffffffffffffffffffffffff16815260200190815260200160002060008373ffffffffffffffffffffffffffffffffffffffff1673ffffffffffffffffffffffffffffffffffffffff16815260200190815260200160002054905092915050565b6115d4611775565b73ffffffffffffffffffffffffffffffffffffffff166115f26111ed565b73ffffffffffffffffffffffffffffffffffffffff1614611648576040517f08c379a000000000000000000000000000000000000000000000000000000000815260040161163f90613046565b60405180910390fd5b600073ffffffffffffffffffffffffffffffffffffffff168173ffffffffffffffffffffffffffffffffffffffff1614156116b8576040517f08c379a00000000000000000000000000000000000000000000000000000000081526004016116af90612f86565b60405180910390fd5b8073ffffffffffffffffffffffffffffffffffffffff1660008054906101000a900473ffffffffffffffffffffffffffffffffffffffff1673ffffffffffffffffffffffffffffffffffffffff167f8be0079c531659141344cd1fd0a4f28419497f9722a3daafe3b4186f6b6457e060405160405180910390a3806000806101000a81548173ffffffffffffffffffffffffffffffffffffffff021916908373ffffffffffffffffffffffffffffffffffffffff16021790555050565b600033905090565b600073ffffffffffffffffffffffffffffffffffffffff168373ffffffffffffffffffffffffffffffffffffffff1614156117ed576040517f08c379a00000000000000000000000000000000000000000000000000000000081526004016117e4906130e6565b60405180910390fd5b600073ffffffffffffffffffffffffffffffffffffffff168273ffffffffffffffffffffffffffffffffffffffff16141561185d576040517f08c379a000000000000000000000000000000000000000000000000000000000815260040161185490612fa6565b60405180910390fd5b80600460008573ffffffffffffffffffffffffffffffffffffffff1673ffffffffffffffffffffffffffffffffffffffff16815260200190815260200160002060008473ffffffffffffffffffffffffffffffffffffffff1673ffffffffffffffffffffffffffffffffffffffff168152602001908152602001600020819055508173ffffffffffffffffffffffffffffffffffffffff168373ffffffffffffffffffffffffffffffffffffffff167f8c5be1e5ebec7d5bd14f71427d1e84f3dd0314c0f7b2291e5b200ac8c7c3b9258360405161193b9190613186565b60405180910390a3505050565b600073ffffffffffffffffffffffffffffffffffffffff168373ffffffffffffffffffffffffffffffffffffffff1614156119b8576040517f08c379a00000000000000000000000000000000000000000000000000000000081526004016119af906130a6565b60405180910390fd5b600073ffffffffffffffffffffffffffffffffffffffff168273ffffffffffffffffffffffffffffffffffffffff161415611a28576040517f08c379a0000000000000000000000000000000000000000000000000000000008152600401611a1f90612f26565b60405180910390fd5b611a33838383612011565b6000600360008573ffffffffffffffffffffffffffffffffffffffff1673ffffffffffffffffffffffffffffffffffffffff16815260200190815260200160002054905081811015611aba576040517f08c379a0000000000000000000000000000000000000000000000000000000008152600401611ab190612fc6565b60405180910390fd5b8181611ac6919061342a565b600360008673ffffffffffffffffffffffffffffffffffffffff1673ffffffffffffffffffffffffffffffffffffffff1681526020019081526020016000208190555081600360008573ffffffffffffffffffffffffffffffffffffffff1673ffffffffffffffffffffffffffffffffffffffff1681526020019081526020016000206000828254611b5891906131d8565b925050819055508273ffffffffffffffffffffffffffffffffffffffff168473ffffffffffffffffffffffffffffffffffffffff167fddf252ad1be2c89b69c2b068fc378daa952ba7f163c4a11628f55a4df523b3ef84604051611bbc9190613186565b60405180910390a350505050565b611bd2610d32565b611c11576040517f08c379a0000000000000000000000000000000000000000000000000000000008152600401611c0890612f46565b60405180910390fd5b6000600860006101000a81548160ff0219169083151502179055507f5db9ee0a495bf2e6ff9c91a7834c1ba4fdd244a5e8aa4e537bd38aeae4b073aa611c55611775565b604051611c629190612e69565b60405180910390a1565b600073ffffffffffffffffffffffffffffffffffffffff168273ffffffffffffffffffffffffffffffffffffffff161415611cdc576040517f08c379a0000000000000000000000000000000000000000000000000000000008152600401611cd390613086565b60405180910390fd5b611ce882600083612011565b6000600360008473ffffffffffffffffffffffffffffffffffffffff1673ffffffffffffffffffffffffffffffffffffffff16815260200190815260200160002054905081811015611d6f576040517f08c379a0000000000000000000000000000000000000000000000000000000008152600401611d6690612f66565b60405180910390fd5b8181611d7b919061342a565b600360008573ffffffffffffffffffffffffffffffffffffffff1673ffffffffffffffffffffffffffffffffffffffff168152602001908152602001600020819055508160056000828254611dd0919061342a565b92505081905550600073ffffffffffffffffffffffffffffffffffffffff168373ffffffffffffffffffffffffffffffffffffffff167fddf252ad1be2c89b69c2b068fc378daa952ba7f163c4a11628f55a4df523b3ef84604051611e359190613186565b60405180910390a3505050565b60008060008411611e88576040517f08c379a0000000000000000000000000000000000000000000000000000000008152600401611e7f90613106565b60405180910390fd5b611e92600c612021565b841115611ed4576040517f08c379a0000000000000000000000000000000000000000000000000000000008152600401611ecb90612f06565b60405180910390fd5b6000611eec858560000161202f90919063ffffffff16565b90508360000180549050811415611f0a576000809250925050611f59565b6001846001018281548110611f48577f4e487b7100000000000000000000000000000000000000000000000000000000600052603260045260246000fd5b906000526020600020015492509250505b9250929050565b611f68610d32565b15611fa8576040517f08c379a0000000000000000000000000000000000000000000000000000000008152600401611f9f90612fe6565b60405180910390fd5b6001600860006101000a81548160ff0219169083151502179055507f62e78cea01bee320cd4e420270b5ea74000d11b0c9f74754ebdbfc544b05a258611fec611775565b604051611ff99190612e69565b60405180910390a1565b61200d8282612155565b5050565b61201c8383836121bf565b505050565b600081600001549050919050565b60008083805490501415612046576000905061214f565b600080848054905090505b808210156120d05760006120658383612279565b9050848682815481106120a1577f4e487b7100000000000000000000000000000000000000000000000000000000600052603260045260246000fd5b906000526020600020015411156120ba578091506120ca565b6001816120c791906131d8565b92505b50612051565b60008211801561212e575083856001846120ea919061342a565b81548110612121577f4e487b7100000000000000000000000000000000000000000000000000000000600052603260045260246000fd5b9060005260206000200154145b1561214957600182612140919061342a565b9250505061214f565b81925050505b92915050565b61215d6109e7565b81612166610869565b61217091906131d8565b11156121b1576040517f08c379a00000000000000000000000000000000000000000000000000000000081526004016121a8906130c6565b60405180910390fd5b6121bb82826122e0565b5050565b6121ca838383612435565b600073ffffffffffffffffffffffffffffffffffffffff168373ffffffffffffffffffffffffffffffffffffffff161415612215576122088261248d565b6122106124e0565b612274565b600073ffffffffffffffffffffffffffffffffffffffff168273ffffffffffffffffffffffffffffffffffffffff161415612260576122538361248d565b61225b6124e0565b612273565b6122698361248d565b6122728261248d565b5b5b505050565b6000600280836122899190613561565b6002856122969190613561565b6122a091906131d8565b6122aa919061322e565b6002836122b7919061322e565b6002856122c4919061322e565b6122ce91906131d8565b6122d891906131d8565b905092915050565b600073ffffffffffffffffffffffffffffffffffffffff168273ffffffffffffffffffffffffffffffffffffffff161415612350576040517f08c379a000000000000000000000000000000000000000000000000000000000815260040161234790613146565b60405180910390fd5b61235c60008383612011565b806005600082825461236e91906131d8565b9250508190555080600360008473ffffffffffffffffffffffffffffffffffffffff1673ffffffffffffffffffffffffffffffffffffffff16815260200190815260200160002060008282546123c491906131d8565b925050819055508173ffffffffffffffffffffffffffffffffffffffff16600073ffffffffffffffffffffffffffffffffffffffff167fddf252ad1be2c89b69c2b068fc378daa952ba7f163c4a11628f55a4df523b3ef836040516124299190613186565b60405180910390a35050565b6124408383836124f4565b612448610d32565b15612488576040517f08c379a000000000000000000000000000000000000000000000000000000000815260040161247f90613166565b60405180910390fd5b505050565b6124dd600960008373ffffffffffffffffffffffffffffffffffffffff1673ffffffffffffffffffffffffffffffffffffffff1681526020019081526020016000206124d883610f18565b6124f9565b50565b6124f2600a6124ed610869565b6124f9565b565b505050565b6000612505600c612021565b90508061251484600001612576565b10156125715782600001819080600181540180825580915050600190039060005260206000200160009091909190915055826001018290806001815401808255809150506001900390600052602060002001600090919091909150555b505050565b6000808280549050141561258d57600090506125e4565b816001838054905061259f919061342a565b815481106125d6577f4e487b7100000000000000000000000000000000000000000000000000000000600052603260045260246000fd5b906000526020600020015490505b919050565b6000813590506125f88161363d565b92915050565b60008135905061260d81613654565b92915050565b60006020828403121561262557600080fd5b6000612633848285016125e9565b91505092915050565b6000806040838503121561264f57600080fd5b600061265d858286016125e9565b925050602061266e858286016125e9565b9150509250929050565b60008060006060848603121561268d57600080fd5b600061269b868287016125e9565b93505060206126ac868287016125e9565b92505060406126bd868287016125fe565b9150509250925092565b600080604083850312156126da57600080fd5b60006126e8858286016125e9565b92505060206126f9858286016125fe565b9150509250929050565b60006020828403121561271557600080fd5b6000612723848285016125fe565b91505092915050565b6127358161345e565b82525050565b61274481613470565b82525050565b6000612755826131bc565b61275f81856131c7565b935061276f8185602086016134b3565b6127788161361f565b840191505092915050565b6000612790601d836131c7565b91507f4552433230536e617073686f743a206e6f6e6578697374656e742069640000006000830152602082019050919050565b60006127d06023836131c7565b91507f45524332303a207472616e7366657220746f20746865207a65726f206164647260008301527f65737300000000000000000000000000000000000000000000000000000000006020830152604082019050919050565b60006128366014836131c7565b91507f5061757361626c653a206e6f74207061757365640000000000000000000000006000830152602082019050919050565b60006128766022836131c7565b91507f45524332303a206275726e20616d6f756e7420657863656564732062616c616e60008301527f63650000000000000000000000000000000000000000000000000000000000006020830152604082019050919050565b60006128dc6026836131c7565b91507f4f776e61626c653a206e6577206f776e657220697320746865207a65726f206160008301527f64647265737300000000000000000000000000000000000000000000000000006020830152604082019050919050565b60006129426022836131c7565b91507f45524332303a20617070726f766520746f20746865207a65726f20616464726560008301527f73730000000000000000000000000000000000000000000000000000000000006020830152604082019050919050565b60006129a86026836131c7565b91507f45524332303a207472616e7366657220616d6f756e742065786365656473206260008301527f616c616e636500000000000000000000000000000000000000000000000000006020830152604082019050919050565b6000612a0e6010836131c7565b91507f5061757361626c653a20706175736564000000000000000000000000000000006000830152602082019050919050565b6000612a4e6018836131c7565b91507f6d73672e73656e646572206d7573742062652061646d696e00000000000000006000830152602082019050919050565b6000612a8e6028836131c7565b91507f45524332303a207472616e7366657220616d6f756e742065786365656473206160008301527f6c6c6f77616e63650000000000000000000000000000000000000000000000006020830152604082019050919050565b6000612af46020836131c7565b91507f4f776e61626c653a2063616c6c6572206973206e6f7420746865206f776e65726000830152602082019050919050565b6000612b346024836131c7565b91507f45524332303a206275726e20616d6f756e74206578636565647320616c6c6f7760008301527f616e6365000000000000000000000000000000000000000000000000000000006020830152604082019050919050565b6000612b9a6021836131c7565b91507f45524332303a206275726e2066726f6d20746865207a65726f2061646472657360008301527f73000000000000000000000000000000000000000000000000000000000000006020830152604082019050919050565b6000612c006025836131c7565b91507f45524332303a207472616e736665722066726f6d20746865207a65726f20616460008301527f64726573730000000000000000000000000000000000000000000000000000006020830152604082019050919050565b6000612c666019836131c7565b91507f45524332304361707065643a20636170206578636565646564000000000000006000830152602082019050919050565b6000612ca66024836131c7565b91507f45524332303a20617070726f76652066726f6d20746865207a65726f2061646460008301527f72657373000000000000000000000000000000000000000000000000000000006020830152604082019050919050565b6000612d0c6016836131c7565b91507f4552433230536e617073686f743a2069642069732030000000000000000000006000830152602082019050919050565b6000612d4c6025836131c7565b91507f45524332303a2064656372656173656420616c6c6f77616e63652062656c6f7760008301527f207a65726f0000000000000000000000000000000000000000000000000000006020830152604082019050919050565b6000612db2601f836131c7565b91507f45524332303a206d696e7420746f20746865207a65726f2061646472657373006000830152602082019050919050565b6000612df2602a836131c7565b91507f45524332305061757361626c653a20746f6b656e207472616e7366657220776860008301527f696c6520706175736564000000000000000000000000000000000000000000006020830152604082019050919050565b612e548161349c565b82525050565b612e63816134a6565b82525050565b6000602082019050612e7e600083018461272c565b92915050565b6000608082019050612e99600083018761272c565b612ea6602083018661272c565b612eb36040830185612e4b565b612ec06060830184612e4b565b95945050505050565b6000602082019050612ede600083018461273b565b92915050565b60006020820190508181036000830152612efe818461274a565b905092915050565b60006020820190508181036000830152612f1f81612783565b9050919050565b60006020820190508181036000830152612f3f816127c3565b9050919050565b60006020820190508181036000830152612f5f81612829565b9050919050565b60006020820190508181036000830152612f7f81612869565b9050919050565b60006020820190508181036000830152612f9f816128cf565b9050919050565b60006020820190508181036000830152612fbf81612935565b9050919050565b60006020820190508181036000830152612fdf8161299b565b9050919050565b60006020820190508181036000830152612fff81612a01565b9050919050565b6000602082019050818103600083015261301f81612a41565b9050919050565b6000602082019050818103600083015261303f81612a81565b9050919050565b6000602082019050818103600083015261305f81612ae7565b9050919050565b6000602082019050818103600083015261307f81612b27565b9050919050565b6000602082019050818103600083015261309f81612b8d565b9050919050565b600060208201905081810360008301526130bf81612bf3565b9050919050565b600060208201905081810360008301526130df81612c59565b9050919050565b600060208201905081810360008301526130ff81612c99565b9050919050565b6000602082019050818103600083015261311f81612cff565b9050919050565b6000602082019050818103600083015261313f81612d3f565b9050919050565b6000602082019050818103600083015261315f81612da5565b9050919050565b6000602082019050818103600083015261317f81612de5565b9050919050565b600060208201905061319b6000830184612e4b565b92915050565b60006020820190506131b66000830184612e5a565b92915050565b600081519050919050565b600082825260208201905092915050565b60006131e38261349c565b91506131ee8361349c565b9250827fffffffffffffffffffffffffffffffffffffffffffffffffffffffffffffffff0382111561322357613222613592565b5b828201905092915050565b60006132398261349c565b91506132448361349c565b925082613254576132536135c1565b5b828204905092915050565b6000808291508390505b60018511156132a95780860481111561328557613284613592565b5b60018516156132945780820291505b80810290506132a285613630565b9450613269565b94509492505050565b60006132bd8261349c565b91506132c88361349c565b92506132f57fffffffffffffffffffffffffffffffffffffffffffffffffffffffffffffffff84846132fd565b905092915050565b60008261330d57600190506133c9565b8161331b57600090506133c9565b8160018114613331576002811461333b5761336a565b60019150506133c9565b60ff84111561334d5761334c613592565b5b8360020a91508482111561336457613363613592565b5b506133c9565b5060208310610133831016604e8410600b841016171561339f5782820a90508381111561339a57613399613592565b5b6133c9565b6133ac848484600161325f565b925090508184048111156133c3576133c2613592565b5b81810290505b9392505050565b60006133db8261349c565b91506133e68361349c565b9250817fffffffffffffffffffffffffffffffffffffffffffffffffffffffffffffffff048311821515161561341f5761341e613592565b5b828202905092915050565b60006134358261349c565b91506134408361349c565b92508282101561345357613452613592565b5b828203905092915050565b60006134698261347c565b9050919050565b60008115159050919050565b600073ffffffffffffffffffffffffffffffffffffffff82169050919050565b6000819050919050565b600060ff82169050919050565b60005b838110156134d15780820151818401526020810190506134b6565b838111156134e0576000848401525b50505050565b600060028204905060018216806134fe57607f821691505b60208210811415613512576135116135f0565b5b50919050565b60006135238261349c565b91507fffffffffffffffffffffffffffffffffffffffffffffffffffffffffffffffff82141561355657613555613592565b5b600182019050919050565b600061356c8261349c565b91506135778361349c565b925082613587576135866135c1565b5b828206905092915050565b7f4e487b7100000000000000000000000000000000000000000000000000000000600052601160045260246000fd5b7f4e487b7100000000000000000000000000000000000000000000000000000000600052601260045260246000fd5b7f4e487b7100000000000000000000000000000000000000000000000000000000600052602260045260246000fd5b6000601f19601f8301169050919050565b60008160011c9050919050565b6136468161345e565b811461365157600080fd5b50565b61365d8161349c565b811461366857600080fd5b5056fea2646970667358221220b1c9162d753199ae41e1fd47b1fc179d2f8939c6533b9a53974efd07a5f9d71f64736f6c63430008000033",
			"opcodes": "PUSH1 0xA0 PUSH1 0x40 MSTORE CALLVALUE DUP1 ISZERO PUSH3 0x11 JUMPI PUSH1 0x0 DUP1 REVERT JUMPDEST POP PUSH1 0x40 MLOAD PUSH3 0x3F5F CODESIZE SUB DUP1 PUSH3 0x3F5F DUP4 CODECOPY DUP2 DUP2 ADD PUSH1 0x40 MSTORE DUP2 ADD SWAP1 PUSH3 0x37 SWAP2 SWAP1 PUSH3 0x3DE JUMP JUMPDEST DUP2 PUSH1 0xFF AND PUSH1 0xA PUSH3 0x49 SWAP2 SWAP1 PUSH3 0x5B3 JUMP JUMPDEST DUP2 PUSH3 0x56 SWAP2 SWAP1 PUSH3 0x6F0 JUMP JUMPDEST DUP5 DUP5 PUSH1 0x0 PUSH3 0x6A PUSH3 0x286 PUSH1 0x20 SHL PUSH1 0x20 SHR JUMP JUMPDEST SWAP1 POP DUP1 PUSH1 0x0 DUP1 PUSH2 0x100 EXP DUP2 SLOAD DUP2 PUSH20 0xFFFFFFFFFFFFFFFFFFFFFFFFFFFFFFFFFFFFFFFF MUL NOT AND SWAP1 DUP4 PUSH20 0xFFFFFFFFFFFFFFFFFFFFFFFFFFFFFFFFFFFFFFFF AND MUL OR SWAP1 SSTORE POP DUP1 PUSH20 0xFFFFFFFFFFFFFFFFFFFFFFFFFFFFFFFFFFFFFFFF AND PUSH1 0x0 PUSH20 0xFFFFFFFFFFFFFFFFFFFFFFFFFFFFFFFFFFFFFFFF AND PUSH32 0x8BE0079C531659141344CD1FD0A4F28419497F9722A3DAAFE3B4186F6B6457E0 PUSH1 0x40 MLOAD PUSH1 0x40 MLOAD DUP1 SWAP2 SUB SWAP1 LOG3 POP PUSH1 0x1 CALLER SWAP1 DUP1 PUSH1 0x1 DUP2 SLOAD ADD DUP1 DUP3 SSTORE DUP1 SWAP2 POP POP PUSH1 0x1 SWAP1 SUB SWAP1 PUSH1 0x0 MSTORE PUSH1 0x20 PUSH1 0x0 KECCAK256 ADD PUSH1 0x0 SWAP1 SWAP2 SWAP1 SWAP2 SWAP1 SWAP2 PUSH2 0x100 EXP DUP2 SLOAD DUP2 PUSH20 0xFFFFFFFFFFFFFFFFFFFFFFFFFFFFFFFFFFFFFFFF MUL NOT AND SWAP1 DUP4 PUSH20 0xFFFFFFFFFFFFFFFFFFFFFFFFFFFFFFFFFFFFFFFF AND MUL OR SWAP1 SSTORE POP PUSH1 0x1 PUSH1 0x2 PUSH1 0x0 CALLER PUSH20 0xFFFFFFFFFFFFFFFFFFFFFFFFFFFFFFFFFFFFFFFF AND PUSH20 0xFFFFFFFFFFFFFFFFFFFFFFFFFFFFFFFFFFFFFFFF AND DUP2 MSTORE PUSH1 0x20 ADD SWAP1 DUP2 MSTORE PUSH1 0x20 ADD PUSH1 0x0 KECCAK256 PUSH1 0x0 PUSH2 0x100 EXP DUP2 SLOAD DUP2 PUSH1 0xFF MUL NOT AND SWAP1 DUP4 ISZERO ISZERO MUL OR SWAP1 SSTORE POP DUP2 PUSH1 0x6 SWAP1 DUP1 MLOAD SWAP1 PUSH1 0x20 ADD SWAP1 PUSH3 0x1DB SWAP3 SWAP2 SWAP1 PUSH3 0x28E JUMP JUMPDEST POP DUP1 PUSH1 0x7 SWAP1 DUP1 MLOAD SWAP1 PUSH1 0x20 ADD SWAP1 PUSH3 0x1F4 SWAP3 SWAP2 SWAP1 PUSH3 0x28E JUMP JUMPDEST POP POP POP PUSH1 0x0 PUSH1 0x8 PUSH1 0x0 PUSH2 0x100 EXP DUP2 SLOAD DUP2 PUSH1 0xFF MUL NOT AND SWAP1 DUP4 ISZERO ISZERO MUL OR SWAP1 SSTORE POP PUSH1 0x0 DUP2 GT PUSH3 0x258 JUMPI PUSH1 0x40 MLOAD PUSH32 0x8C379A000000000000000000000000000000000000000000000000000000000 DUP2 MSTORE PUSH1 0x4 ADD PUSH3 0x24F SWAP1 PUSH3 0x4BE JUMP JUMPDEST PUSH1 0x40 MLOAD DUP1 SWAP2 SUB SWAP1 REVERT JUMPDEST DUP1 PUSH1 0x80 DUP2 DUP2 MSTORE POP POP POP DUP2 PUSH1 0xE PUSH1 0x0 PUSH2 0x100 EXP DUP2 SLOAD DUP2 PUSH1 0xFF MUL NOT AND SWAP1 DUP4 PUSH1 0xFF AND MUL OR SWAP1 SSTORE POP POP POP POP POP PUSH3 0x8A2 JUMP JUMPDEST PUSH1 0x0 CALLER SWAP1 POP SWAP1 JUMP JUMPDEST DUP3 DUP1 SLOAD PUSH3 0x29C SWAP1 PUSH3 0x79E JUMP JUMPDEST SWAP1 PUSH1 0x0 MSTORE PUSH1 0x20 PUSH1 0x0 KECCAK256 SWAP1 PUSH1 0x1F ADD PUSH1 0x20 SWAP1 DIV DUP2 ADD SWAP3 DUP3 PUSH3 0x2C0 JUMPI PUSH1 0x0 DUP6 SSTORE PUSH3 0x30C JUMP JUMPDEST DUP3 PUSH1 0x1F LT PUSH3 0x2DB JUMPI DUP1 MLOAD PUSH1 0xFF NOT AND DUP4 DUP1 ADD OR DUP6 SSTORE PUSH3 0x30C JUMP JUMPDEST DUP3 DUP1 ADD PUSH1 0x1 ADD DUP6 SSTORE DUP3 ISZERO PUSH3 0x30C JUMPI SWAP2 DUP3 ADD JUMPDEST DUP3 DUP2 GT ISZERO PUSH3 0x30B JUMPI DUP3 MLOAD DUP3 SSTORE SWAP2 PUSH1 0x20 ADD SWAP2 SWAP1 PUSH1 0x1 ADD SWAP1 PUSH3 0x2EE JUMP JUMPDEST JUMPDEST POP SWAP1 POP PUSH3 0x31B SWAP2 SWAP1 PUSH3 0x31F JUMP JUMPDEST POP SWAP1 JUMP JUMPDEST JUMPDEST DUP1 DUP3 GT ISZERO PUSH3 0x33A JUMPI PUSH1 0x0 DUP2 PUSH1 0x0 SWAP1 SSTORE POP PUSH1 0x1 ADD PUSH3 0x320 JUMP JUMPDEST POP SWAP1 JUMP JUMPDEST PUSH1 0x0 PUSH3 0x355 PUSH3 0x34F DUP5 PUSH3 0x514 JUMP JUMPDEST PUSH3 0x4E0 JUMP JUMPDEST SWAP1 POP DUP3 DUP2 MSTORE PUSH1 0x20 DUP2 ADD DUP5 DUP5 DUP5 ADD GT ISZERO PUSH3 0x36E JUMPI PUSH1 0x0 DUP1 REVERT JUMPDEST PUSH3 0x37B DUP5 DUP3 DUP6 PUSH3 0x768 JUMP JUMPDEST POP SWAP4 SWAP3 POP POP POP JUMP JUMPDEST PUSH1 0x0 DUP3 PUSH1 0x1F DUP4 ADD SLT PUSH3 0x395 JUMPI PUSH1 0x0 DUP1 REVERT JUMPDEST DUP2 MLOAD PUSH3 0x3A7 DUP5 DUP3 PUSH1 0x20 DUP7 ADD PUSH3 0x33E JUMP JUMPDEST SWAP2 POP POP SWAP3 SWAP2 POP POP JUMP JUMPDEST PUSH1 0x0 DUP2 MLOAD SWAP1 POP PUSH3 0x3C1 DUP2 PUSH3 0x86E JUMP JUMPDEST SWAP3 SWAP2 POP POP JUMP JUMPDEST PUSH1 0x0 DUP2 MLOAD SWAP1 POP PUSH3 0x3D8 DUP2 PUSH3 0x888 JUMP JUMPDEST SWAP3 SWAP2 POP POP JUMP JUMPDEST PUSH1 0x0 DUP1 PUSH1 0x0 DUP1 PUSH1 0x80 DUP6 DUP8 SUB SLT ISZERO PUSH3 0x3F5 JUMPI PUSH1 0x0 DUP1 REVERT JUMPDEST PUSH1 0x0 DUP6 ADD MLOAD PUSH8 0xFFFFFFFFFFFFFFFF DUP2 GT ISZERO PUSH3 0x410 JUMPI PUSH1 0x0 DUP1 REVERT JUMPDEST PUSH3 0x41E DUP8 DUP3 DUP9 ADD PUSH3 0x383 JUMP JUMPDEST SWAP5 POP POP PUSH1 0x20 DUP6 ADD MLOAD PUSH8 0xFFFFFFFFFFFFFFFF DUP2 GT ISZERO PUSH3 0x43C JUMPI PUSH1 0x0 DUP1 REVERT JUMPDEST PUSH3 0x44A DUP8 DUP3 DUP9 ADD PUSH3 0x383 JUMP JUMPDEST SWAP4 POP POP PUSH1 0x40 PUSH3 0x45D DUP8 DUP3 DUP9 ADD PUSH3 0x3C7 JUMP JUMPDEST SWAP3 POP POP PUSH1 0x60 PUSH3 0x470 DUP8 DUP3 DUP9 ADD PUSH3 0x3B0 JUMP JUMPDEST SWAP2 POP POP SWAP3 SWAP6 SWAP2 SWAP5 POP SWAP3 POP JUMP JUMPDEST PUSH1 0x0 PUSH3 0x48B PUSH1 0x15 DUP4 PUSH3 0x547 JUMP JUMPDEST SWAP2 POP PUSH32 0x45524332304361707065643A2063617020697320300000000000000000000000 PUSH1 0x0 DUP4 ADD MSTORE PUSH1 0x20 DUP3 ADD SWAP1 POP SWAP2 SWAP1 POP JUMP JUMPDEST PUSH1 0x0 PUSH1 0x20 DUP3 ADD SWAP1 POP DUP2 DUP2 SUB PUSH1 0x0 DUP4 ADD MSTORE PUSH3 0x4D9 DUP2 PUSH3 0x47C JUMP JUMPDEST SWAP1 POP SWAP2 SWAP1 POP JUMP JUMPDEST PUSH1 0x0 PUSH1 0x40 MLOAD SWAP1 POP DUP2 DUP2 ADD DUP2 DUP2 LT PUSH8 0xFFFFFFFFFFFFFFFF DUP3 GT OR ISZERO PUSH3 0x50A JUMPI PUSH3 0x509 PUSH3 0x832 JUMP JUMPDEST JUMPDEST DUP1 PUSH1 0x40 MSTORE POP SWAP2 SWAP1 POP JUMP JUMPDEST PUSH1 0x0 PUSH8 0xFFFFFFFFFFFFFFFF DUP3 GT ISZERO PUSH3 0x532 JUMPI PUSH3 0x531 PUSH3 0x832 JUMP JUMPDEST JUMPDEST PUSH1 0x1F NOT PUSH1 0x1F DUP4 ADD AND SWAP1 POP PUSH1 0x20 DUP2 ADD SWAP1 POP SWAP2 SWAP1 POP JUMP JUMPDEST PUSH1 0x0 DUP3 DUP3 MSTORE PUSH1 0x20 DUP3 ADD SWAP1 POP SWAP3 SWAP2 POP POP JUMP JUMPDEST PUSH1 0x0 DUP1 DUP3 SWAP2 POP DUP4 SWAP1 POP JUMPDEST PUSH1 0x1 DUP6 GT ISZERO PUSH3 0x5AA JUMPI DUP1 DUP7 DIV DUP2 GT ISZERO PUSH3 0x582 JUMPI PUSH3 0x581 PUSH3 0x7D4 JUMP JUMPDEST JUMPDEST PUSH1 0x1 DUP6 AND ISZERO PUSH3 0x592 JUMPI DUP1 DUP3 MUL SWAP2 POP JUMPDEST DUP1 DUP2 MUL SWAP1 POP PUSH3 0x5A2 DUP6 PUSH3 0x861 JUMP JUMPDEST SWAP5 POP PUSH3 0x562 JUMP JUMPDEST SWAP5 POP SWAP5 SWAP3 POP POP POP JUMP JUMPDEST PUSH1 0x0 PUSH3 0x5C0 DUP3 PUSH3 0x751 JUMP JUMPDEST SWAP2 POP PUSH3 0x5CD DUP4 PUSH3 0x751 JUMP JUMPDEST SWAP3 POP PUSH3 0x5FC PUSH32 0xFFFFFFFFFFFFFFFFFFFFFFFFFFFFFFFFFFFFFFFFFFFFFFFFFFFFFFFFFFFFFFFF DUP5 DUP5 PUSH3 0x604 JUMP JUMPDEST SWAP1 POP SWAP3 SWAP2 POP POP JUMP JUMPDEST PUSH1 0x0 DUP3 PUSH3 0x616 JUMPI PUSH1 0x1 SWAP1 POP PUSH3 0x6E9 JUMP JUMPDEST DUP2 PUSH3 0x626 JUMPI PUSH1 0x0 SWAP1 POP PUSH3 0x6E9 JUMP JUMPDEST DUP2 PUSH1 0x1 DUP2 EQ PUSH3 0x63F JUMPI PUSH1 0x2 DUP2 EQ PUSH3 0x64A JUMPI PUSH3 0x680 JUMP JUMPDEST PUSH1 0x1 SWAP2 POP POP PUSH3 0x6E9 JUMP JUMPDEST PUSH1 0xFF DUP5 GT ISZERO PUSH3 0x65F JUMPI PUSH3 0x65E PUSH3 0x7D4 JUMP JUMPDEST JUMPDEST DUP4 PUSH1 0x2 EXP SWAP2 POP DUP5 DUP3 GT ISZERO PUSH3 0x679 JUMPI PUSH3 0x678 PUSH3 0x7D4 JUMP JUMPDEST JUMPDEST POP PUSH3 0x6E9 JUMP JUMPDEST POP PUSH1 0x20 DUP4 LT PUSH2 0x133 DUP4 LT AND PUSH1 0x4E DUP5 LT PUSH1 0xB DUP5 LT AND OR ISZERO PUSH3 0x6BA JUMPI DUP3 DUP3 EXP SWAP1 POP DUP4 DUP2 GT ISZERO PUSH3 0x6B4 JUMPI PUSH3 0x6B3 PUSH3 0x7D4 JUMP JUMPDEST JUMPDEST PUSH3 0x6E9 JUMP JUMPDEST PUSH3 0x6C9 DUP5 DUP5 DUP5 PUSH1 0x1 PUSH3 0x558 JUMP JUMPDEST SWAP3 POP SWAP1 POP DUP2 DUP5 DIV DUP2 GT ISZERO PUSH3 0x6E3 JUMPI PUSH3 0x6E2 PUSH3 0x7D4 JUMP JUMPDEST JUMPDEST DUP2 DUP2 MUL SWAP1 POP JUMPDEST SWAP4 SWAP3 POP POP POP JUMP JUMPDEST PUSH1 0x0 PUSH3 0x6FD DUP3 PUSH3 0x751 JUMP JUMPDEST SWAP2 POP PUSH3 0x70A DUP4 PUSH3 0x751 JUMP JUMPDEST SWAP3 POP DUP2 PUSH32 0xFFFFFFFFFFFFFFFFFFFFFFFFFFFFFFFFFFFFFFFFFFFFFFFFFFFFFFFFFFFFFFFF DIV DUP4 GT DUP3 ISZERO ISZERO AND ISZERO PUSH3 0x746 JUMPI PUSH3 0x745 PUSH3 0x7D4 JUMP JUMPDEST JUMPDEST DUP3 DUP3 MUL SWAP1 POP SWAP3 SWAP2 POP POP JUMP JUMPDEST PUSH1 0x0 DUP2 SWAP1 POP SWAP2 SWAP1 POP JUMP JUMPDEST PUSH1 0x0 PUSH1 0xFF DUP3 AND SWAP1 POP SWAP2 SWAP1 POP JUMP JUMPDEST PUSH1 0x0 JUMPDEST DUP4 DUP2 LT ISZERO PUSH3 0x788 JUMPI DUP1 DUP3 ADD MLOAD DUP2 DUP5 ADD MSTORE PUSH1 0x20 DUP2 ADD SWAP1 POP PUSH3 0x76B JUMP JUMPDEST DUP4 DUP2 GT ISZERO PUSH3 0x798 JUMPI PUSH1 0x0 DUP5 DUP5 ADD MSTORE JUMPDEST POP POP POP POP JUMP JUMPDEST PUSH1 0x0 PUSH1 0x2 DUP3 DIV SWAP1 POP PUSH1 0x1 DUP3 AND DUP1 PUSH3 0x7B7 JUMPI PUSH1 0x7F DUP3 AND SWAP2 POP JUMPDEST PUSH1 0x20 DUP3 LT DUP2 EQ ISZERO PUSH3 0x7CE JUMPI PUSH3 0x7CD PUSH3 0x803 JUMP JUMPDEST JUMPDEST POP SWAP2 SWAP1 POP JUMP JUMPDEST PUSH32 0x4E487B7100000000000000000000000000000000000000000000000000000000 PUSH1 0x0 MSTORE PUSH1 0x11 PUSH1 0x4 MSTORE PUSH1 0x24 PUSH1 0x0 REVERT JUMPDEST PUSH32 0x4E487B7100000000000000000000000000000000000000000000000000000000 PUSH1 0x0 MSTORE PUSH1 0x22 PUSH1 0x4 MSTORE PUSH1 0x24 PUSH1 0x0 REVERT JUMPDEST PUSH32 0x4E487B7100000000000000000000000000000000000000000000000000000000 PUSH1 0x0 MSTORE PUSH1 0x41 PUSH1 0x4 MSTORE PUSH1 0x24 PUSH1 0x0 REVERT JUMPDEST PUSH1 0x0 DUP2 PUSH1 0x1 SHR SWAP1 POP SWAP2 SWAP1 POP JUMP JUMPDEST PUSH3 0x879 DUP2 PUSH3 0x751 JUMP JUMPDEST DUP2 EQ PUSH3 0x885 JUMPI PUSH1 0x0 DUP1 REVERT JUMPDEST POP JUMP JUMPDEST PUSH3 0x893 DUP2 PUSH3 0x75B JUMP JUMPDEST DUP2 EQ PUSH3 0x89F JUMPI PUSH1 0x0 DUP1 REVERT JUMPDEST POP JUMP JUMPDEST PUSH1 0x80 MLOAD PUSH2 0x36A1 PUSH3 0x8BE PUSH1 0x0 CODECOPY PUSH1 0x0 PUSH2 0x9EB ADD MSTORE PUSH2 0x36A1 PUSH1 0x0 RETURN INVALID PUSH1 0x80 PUSH1 0x40 MSTORE CALLVALUE DUP1 ISZERO PUSH2 0x10 JUMPI PUSH1 0x0 DUP1 REVERT JUMPDEST POP PUSH1 0x4 CALLDATASIZE LT PUSH2 0x1C4 JUMPI PUSH1 0x0 CALLDATALOAD PUSH1 0xE0 SHR DUP1 PUSH4 0x5C975ABB GT PUSH2 0xF9 JUMPI DUP1 PUSH4 0x95D89B41 GT PUSH2 0x97 JUMPI DUP1 PUSH4 0xA9059CBB GT PUSH2 0x71 JUMPI DUP1 PUSH4 0xA9059CBB EQ PUSH2 0x4E3 JUMPI DUP1 PUSH4 0xAF3DA2F4 EQ PUSH2 0x513 JUMPI DUP1 PUSH4 0xDD62ED3E EQ PUSH2 0x52F JUMPI DUP1 PUSH4 0xF2FDE38B EQ PUSH2 0x55F JUMPI PUSH2 0x1C4 JUMP JUMPDEST DUP1 PUSH4 0x95D89B41 EQ PUSH2 0x465 JUMPI DUP1 PUSH4 0x981B24D0 EQ PUSH2 0x483 JUMPI DUP1 PUSH4 0xA457C2D7 EQ PUSH2 0x4B3 JUMPI PUSH2 0x1C4 JUMP JUMPDEST DUP1 PUSH4 0x715018A6 GT PUSH2 0xD3 JUMPI DUP1 PUSH4 0x715018A6 EQ PUSH2 0x417 JUMPI DUP1 PUSH4 0x79CC6790 EQ PUSH2 0x421 JUMPI DUP1 PUSH4 0x8456CB59 EQ PUSH2 0x43D JUMPI DUP1 PUSH4 0x8DA5CB5B EQ PUSH2 0x447 JUMPI PUSH2 0x1C4 JUMP JUMPDEST DUP1 PUSH4 0x5C975ABB EQ PUSH2 0x3AD JUMPI DUP1 PUSH4 0x70480275 EQ PUSH2 0x3CB JUMPI DUP1 PUSH4 0x70A08231 EQ PUSH2 0x3E7 JUMPI PUSH2 0x1C4 JUMP JUMPDEST DUP1 PUSH4 0x313CE567 GT PUSH2 0x166 JUMPI DUP1 PUSH4 0x3F4BA83A GT PUSH2 0x140 JUMPI DUP1 PUSH4 0x3F4BA83A EQ PUSH2 0x33B JUMPI DUP1 PUSH4 0x42966C68 EQ PUSH2 0x345 JUMPI DUP1 PUSH4 0x4EE2CD7E EQ PUSH2 0x361 JUMPI DUP1 PUSH4 0x5AD748E4 EQ PUSH2 0x391 JUMPI PUSH2 0x1C4 JUMP JUMPDEST DUP1 PUSH4 0x313CE567 EQ PUSH2 0x2CF JUMPI DUP1 PUSH4 0x355274EA EQ PUSH2 0x2ED JUMPI DUP1 PUSH4 0x39509351 EQ PUSH2 0x30B JUMPI PUSH2 0x1C4 JUMP JUMPDEST DUP1 PUSH4 0x18160DDD GT PUSH2 0x1A2 JUMPI DUP1 PUSH4 0x18160DDD EQ PUSH2 0x233 JUMPI DUP1 PUSH4 0x23B872DD EQ PUSH2 0x251 JUMPI DUP1 PUSH4 0x2405E3C6 EQ PUSH2 0x281 JUMPI DUP1 PUSH4 0x24D7806C EQ PUSH2 0x29F JUMPI PUSH2 0x1C4 JUMP JUMPDEST DUP1 PUSH4 0x6FDDE03 EQ PUSH2 0x1C9 JUMPI DUP1 PUSH4 0x95EA7B3 EQ PUSH2 0x1E7 JUMPI DUP1 PUSH4 0x1785F53C EQ PUSH2 0x217 JUMPI JUMPDEST PUSH1 0x0 DUP1 REVERT JUMPDEST PUSH2 0x1D1 PUSH2 0x57B JUMP JUMPDEST PUSH1 0x40 MLOAD PUSH2 0x1DE SWAP2 SWAP1 PUSH2 0x2EE4 JUMP JUMPDEST PUSH1 0x40 MLOAD DUP1 SWAP2 SUB SWAP1 RETURN JUMPDEST PUSH2 0x201 PUSH1 0x4 DUP1 CALLDATASIZE SUB DUP2 ADD SWAP1 PUSH2 0x1FC SWAP2 SWAP1 PUSH2 0x26C7 JUMP JUMPDEST PUSH2 0x60D JUMP JUMPDEST PUSH1 0x40 MLOAD PUSH2 0x20E SWAP2 SWAP1 PUSH2 0x2EC9 JUMP JUMPDEST PUSH1 0x40 MLOAD DUP1 SWAP2 SUB SWAP1 RETURN JUMPDEST PUSH2 0x231 PUSH1 0x4 DUP1 CALLDATASIZE SUB DUP2 ADD SWAP1 PUSH2 0x22C SWAP2 SWAP1 PUSH2 0x2613 JUMP JUMPDEST PUSH2 0x62B JUMP JUMPDEST STOP JUMPDEST PUSH2 0x23B PUSH2 0x869 JUMP JUMPDEST PUSH1 0x40 MLOAD PUSH2 0x248 SWAP2 SWAP1 PUSH2 0x3186 JUMP JUMPDEST PUSH1 0x40 MLOAD DUP1 SWAP2 SUB SWAP1 RETURN JUMPDEST PUSH2 0x26B PUSH1 0x4 DUP1 CALLDATASIZE SUB DUP2 ADD SWAP1 PUSH2 0x266 SWAP2 SWAP1 PUSH2 0x2678 JUMP JUMPDEST PUSH2 0x873 JUMP JUMPDEST PUSH1 0x40 MLOAD PUSH2 0x278 SWAP2 SWAP1 PUSH2 0x2EC9 JUMP JUMPDEST PUSH1 0x40 MLOAD DUP1 SWAP2 SUB SWAP1 RETURN JUMPDEST PUSH2 0x289 PUSH2 0x974 JUMP JUMPDEST PUSH1 0x40 MLOAD PUSH2 0x296 SWAP2 SWAP1 PUSH2 0x3186 JUMP JUMPDEST PUSH1 0x40 MLOAD DUP1 SWAP2 SUB SWAP1 RETURN JUMPDEST PUSH2 0x2B9 PUSH1 0x4 DUP1 CALLDATASIZE SUB DUP2 ADD SWAP1 PUSH2 0x2B4 SWAP2 SWAP1 PUSH2 0x2613 JUMP JUMPDEST PUSH2 0x97A JUMP JUMPDEST PUSH1 0x40 MLOAD PUSH2 0x2C6 SWAP2 SWAP1 PUSH2 0x2EC9 JUMP JUMPDEST PUSH1 0x40 MLOAD DUP1 SWAP2 SUB SWAP1 RETURN JUMPDEST PUSH2 0x2D7 PUSH2 0x9D0 JUMP JUMPDEST PUSH1 0x40 MLOAD PUSH2 0x2E4 SWAP2 SWAP1 PUSH2 0x31A1 JUMP JUMPDEST PUSH1 0x40 MLOAD DUP1 SWAP2 SUB SWAP1 RETURN JUMPDEST PUSH2 0x2F5 PUSH2 0x9E7 JUMP JUMPDEST PUSH1 0x40 MLOAD PUSH2 0x302 SWAP2 SWAP1 PUSH2 0x3186 JUMP JUMPDEST PUSH1 0x40 MLOAD DUP1 SWAP2 SUB SWAP1 RETURN JUMPDEST PUSH2 0x325 PUSH1 0x4 DUP1 CALLDATASIZE SUB DUP2 ADD SWAP1 PUSH2 0x320 SWAP2 SWAP1 PUSH2 0x26C7 JUMP JUMPDEST PUSH2 0xA0F JUMP JUMPDEST PUSH1 0x40 MLOAD PUSH2 0x332 SWAP2 SWAP1 PUSH2 0x2EC9 JUMP JUMPDEST PUSH1 0x40 MLOAD DUP1 SWAP2 SUB SWAP1 RETURN JUMPDEST PUSH2 0x343 PUSH2 0xABB JUMP JUMPDEST STOP JUMPDEST PUSH2 0x35F PUSH1 0x4 DUP1 CALLDATASIZE SUB DUP2 ADD SWAP1 PUSH2 0x35A SWAP2 SWAP1 PUSH2 0x2703 JUMP JUMPDEST PUSH2 0xB88 JUMP JUMPDEST STOP JUMPDEST PUSH2 0x37B PUSH1 0x4 DUP1 CALLDATASIZE SUB DUP2 ADD SWAP1 PUSH2 0x376 SWAP2 SWAP1 PUSH2 0x26C7 JUMP JUMPDEST PUSH2 0xB9C JUMP JUMPDEST PUSH1 0x40 MLOAD PUSH2 0x388 SWAP2 SWAP1 PUSH2 0x3186 JUMP JUMPDEST PUSH1 0x40 MLOAD DUP1 SWAP2 SUB SWAP1 RETURN JUMPDEST PUSH2 0x3AB PUSH1 0x4 DUP1 CALLDATASIZE SUB DUP2 ADD SWAP1 PUSH2 0x3A6 SWAP2 SWAP1 PUSH2 0x26C7 JUMP JUMPDEST PUSH2 0xC0C JUMP JUMPDEST STOP JUMPDEST PUSH2 0x3B5 PUSH2 0xD32 JUMP JUMPDEST PUSH1 0x40 MLOAD PUSH2 0x3C2 SWAP2 SWAP1 PUSH2 0x2EC9 JUMP JUMPDEST PUSH1 0x40 MLOAD DUP1 SWAP2 SUB SWAP1 RETURN JUMPDEST PUSH2 0x3E5 PUSH1 0x4 DUP1 CALLDATASIZE SUB DUP2 ADD SWAP1 PUSH2 0x3E0 SWAP2 SWAP1 PUSH2 0x2613 JUMP JUMPDEST PUSH2 0xD49 JUMP JUMPDEST STOP JUMPDEST PUSH2 0x401 PUSH1 0x4 DUP1 CALLDATASIZE SUB DUP2 ADD SWAP1 PUSH2 0x3FC SWAP2 SWAP1 PUSH2 0x2613 JUMP JUMPDEST PUSH2 0xF18 JUMP JUMPDEST PUSH1 0x40 MLOAD PUSH2 0x40E SWAP2 SWAP1 PUSH2 0x3186 JUMP JUMPDEST PUSH1 0x40 MLOAD DUP1 SWAP2 SUB SWAP1 RETURN JUMPDEST PUSH2 0x41F PUSH2 0xF61 JUMP JUMPDEST STOP JUMPDEST PUSH2 0x43B PUSH1 0x4 DUP1 CALLDATASIZE SUB DUP2 ADD SWAP1 PUSH2 0x436 SWAP2 SWAP1 PUSH2 0x26C7 JUMP JUMPDEST PUSH2 0x109B JUMP JUMPDEST STOP JUMPDEST PUSH2 0x445 PUSH2 0x111F JUMP JUMPDEST STOP JUMPDEST PUSH2 0x44F PUSH2 0x11ED JUMP JUMPDEST PUSH1 0x40 MLOAD PUSH2 0x45C SWAP2 SWAP1 PUSH2 0x2E69 JUMP JUMPDEST PUSH1 0x40 MLOAD DUP1 SWAP2 SUB SWAP1 RETURN JUMPDEST PUSH2 0x46D PUSH2 0x1216 JUMP JUMPDEST PUSH1 0x40 MLOAD PUSH2 0x47A SWAP2 SWAP1 PUSH2 0x2EE4 JUMP JUMPDEST PUSH1 0x40 MLOAD DUP1 SWAP2 SUB SWAP1 RETURN JUMPDEST PUSH2 0x49D PUSH1 0x4 DUP1 CALLDATASIZE SUB DUP2 ADD SWAP1 PUSH2 0x498 SWAP2 SWAP1 PUSH2 0x2703 JUMP JUMPDEST PUSH2 0x12A8 JUMP JUMPDEST PUSH1 0x40 MLOAD PUSH2 0x4AA SWAP2 SWAP1 PUSH2 0x3186 JUMP JUMPDEST PUSH1 0x40 MLOAD DUP1 SWAP2 SUB SWAP1 RETURN JUMPDEST PUSH2 0x4CD PUSH1 0x4 DUP1 CALLDATASIZE SUB DUP2 ADD SWAP1 PUSH2 0x4C8 SWAP2 SWAP1 PUSH2 0x26C7 JUMP JUMPDEST PUSH2 0x12D9 JUMP JUMPDEST PUSH1 0x40 MLOAD PUSH2 0x4DA SWAP2 SWAP1 PUSH2 0x2EC9 JUMP JUMPDEST PUSH1 0x40 MLOAD DUP1 SWAP2 SUB SWAP1 RETURN JUMPDEST PUSH2 0x4FD PUSH1 0x4 DUP1 CALLDATASIZE SUB DUP2 ADD SWAP1 PUSH2 0x4F8 SWAP2 SWAP1 PUSH2 0x26C7 JUMP JUMPDEST PUSH2 0x13CD JUMP JUMPDEST PUSH1 0x40 MLOAD PUSH2 0x50A SWAP2 SWAP1 PUSH2 0x2EC9 JUMP JUMPDEST PUSH1 0x40 MLOAD DUP1 SWAP2 SUB SWAP1 RETURN JUMPDEST PUSH2 0x52D PUSH1 0x4 DUP1 CALLDATASIZE SUB DUP2 ADD SWAP1 PUSH2 0x528 SWAP2 SWAP1 PUSH2 0x26C7 JUMP JUMPDEST PUSH2 0x13EB JUMP JUMPDEST STOP JUMPDEST PUSH2 0x549 PUSH1 0x4 DUP1 CALLDATASIZE SUB DUP2 ADD SWAP1 PUSH2 0x544 SWAP2 SWAP1 PUSH2 0x263C JUMP JUMPDEST PUSH2 0x1545 JUMP JUMPDEST PUSH1 0x40 MLOAD PUSH2 0x556 SWAP2 SWAP1 PUSH2 0x3186 JUMP JUMPDEST PUSH1 0x40 MLOAD DUP1 SWAP2 SUB SWAP1 RETURN JUMPDEST PUSH2 0x579 PUSH1 0x4 DUP1 CALLDATASIZE SUB DUP2 ADD SWAP1 PUSH2 0x574 SWAP2 SWAP1 PUSH2 0x2613 JUMP JUMPDEST PUSH2 0x15CC JUMP JUMPDEST STOP JUMPDEST PUSH1 0x60 PUSH1 0x6 DUP1 SLOAD PUSH2 0x58A SWAP1 PUSH2 0x34E6 JUMP JUMPDEST DUP1 PUSH1 0x1F ADD PUSH1 0x20 DUP1 SWAP2 DIV MUL PUSH1 0x20 ADD PUSH1 0x40 MLOAD SWAP1 DUP2 ADD PUSH1 0x40 MSTORE DUP1 SWAP3 SWAP2 SWAP1 DUP2 DUP2 MSTORE PUSH1 0x20 ADD DUP3 DUP1 SLOAD PUSH2 0x5B6 SWAP1 PUSH2 0x34E6 JUMP JUMPDEST DUP1 ISZERO PUSH2 0x603 JUMPI DUP1 PUSH1 0x1F LT PUSH2 0x5D8 JUMPI PUSH2 0x100 DUP1 DUP4 SLOAD DIV MUL DUP4 MSTORE SWAP2 PUSH1 0x20 ADD SWAP2 PUSH2 0x603 JUMP JUMPDEST DUP3 ADD SWAP2 SWAP1 PUSH1 0x0 MSTORE PUSH1 0x20 PUSH1 0x0 KECCAK256 SWAP1 JUMPDEST DUP2 SLOAD DUP2 MSTORE SWAP1 PUSH1 0x1 ADD SWAP1 PUSH1 0x20 ADD DUP1 DUP4 GT PUSH2 0x5E6 JUMPI DUP3 SWAP1 SUB PUSH1 0x1F AND DUP3 ADD SWAP2 JUMPDEST POP POP POP POP POP SWAP1 POP SWAP1 JUMP JUMPDEST PUSH1 0x0 PUSH2 0x621 PUSH2 0x61A PUSH2 0x1775 JUMP JUMPDEST DUP5 DUP5 PUSH2 0x177D JUMP JUMPDEST PUSH1 0x1 SWAP1 POP SWAP3 SWAP2 POP POP JUMP JUMPDEST PUSH2 0x633 PUSH2 0x1775 JUMP JUMPDEST PUSH20 0xFFFFFFFFFFFFFFFFFFFFFFFFFFFFFFFFFFFFFFFF AND PUSH2 0x651 PUSH2 0x11ED JUMP JUMPDEST PUSH20 0xFFFFFFFFFFFFFFFFFFFFFFFFFFFFFFFFFFFFFFFF AND EQ PUSH2 0x6A7 JUMPI PUSH1 0x40 MLOAD PUSH32 0x8C379A000000000000000000000000000000000000000000000000000000000 DUP2 MSTORE PUSH1 0x4 ADD PUSH2 0x69E SWAP1 PUSH2 0x3046 JUMP JUMPDEST PUSH1 0x40 MLOAD DUP1 SWAP2 SUB SWAP1 REVERT JUMPDEST PUSH1 0x0 JUMPDEST PUSH1 0x1 DUP1 SLOAD SWAP1 POP DUP2 LT ISZERO PUSH2 0x865 JUMPI DUP2 PUSH20 0xFFFFFFFFFFFFFFFFFFFFFFFFFFFFFFFFFFFFFFFF AND PUSH1 0x1 DUP3 DUP2 SLOAD DUP2 LT PUSH2 0x708 JUMPI PUSH32 0x4E487B7100000000000000000000000000000000000000000000000000000000 PUSH1 0x0 MSTORE PUSH1 0x32 PUSH1 0x4 MSTORE PUSH1 0x24 PUSH1 0x0 REVERT JUMPDEST SWAP1 PUSH1 0x0 MSTORE PUSH1 0x20 PUSH1 0x0 KECCAK256 ADD PUSH1 0x0 SWAP1 SLOAD SWAP1 PUSH2 0x100 EXP SWAP1 DIV PUSH20 0xFFFFFFFFFFFFFFFFFFFFFFFFFFFFFFFFFFFFFFFF AND PUSH20 0xFFFFFFFFFFFFFFFFFFFFFFFFFFFFFFFFFFFFFFFF AND EQ ISZERO PUSH2 0x852 JUMPI PUSH1 0x1 DUP2 DUP2 SLOAD DUP2 LT PUSH2 0x789 JUMPI PUSH32 0x4E487B7100000000000000000000000000000000000000000000000000000000 PUSH1 0x0 MSTORE PUSH1 0x32 PUSH1 0x4 MSTORE PUSH1 0x24 PUSH1 0x0 REVERT JUMPDEST SWAP1 PUSH1 0x0 MSTORE PUSH1 0x20 PUSH1 0x0 KECCAK256 ADD PUSH1 0x0 PUSH2 0x100 EXP DUP2 SLOAD SWAP1 PUSH20 0xFFFFFFFFFFFFFFFFFFFFFFFFFFFFFFFFFFFFFFFF MUL NOT AND SWAP1 SSTORE PUSH1 0x0 PUSH1 0x2 PUSH1 0x0 DUP5 PUSH20 0xFFFFFFFFFFFFFFFFFFFFFFFFFFFFFFFFFFFFFFFF AND PUSH20 0xFFFFFFFFFFFFFFFFFFFFFFFFFFFFFFFFFFFFFFFF AND DUP2 MSTORE PUSH1 0x20 ADD SWAP1 DUP2 MSTORE PUSH1 0x20 ADD PUSH1 0x0 KECCAK256 PUSH1 0x0 PUSH2 0x100 EXP DUP2 SLOAD DUP2 PUSH1 0xFF MUL NOT AND SWAP1 DUP4 ISZERO ISZERO MUL OR SWAP1 SSTORE POP DUP2 PUSH20 0xFFFFFFFFFFFFFFFFFFFFFFFFFFFFFFFFFFFFFFFF AND PUSH32 0xC715F0855A20A185F4934A71D21A10FDD4DABC049885FAEF1006389A1B0A1608 PUSH1 0x40 MLOAD PUSH1 0x40 MLOAD DUP1 SWAP2 SUB SWAP1 LOG2 JUMPDEST DUP1 DUP1 PUSH2 0x85D SWAP1 PUSH2 0x3518 JUMP JUMPDEST SWAP2 POP POP PUSH2 0x6AA JUMP JUMPDEST POP POP JUMP JUMPDEST PUSH1 0x0 PUSH1 0x5 SLOAD SWAP1 POP SWAP1 JUMP JUMPDEST PUSH1 0x0 PUSH2 0x880 DUP5 DUP5 DUP5 PUSH2 0x1948 JUMP JUMPDEST PUSH1 0x0 PUSH1 0x4 PUSH1 0x0 DUP7 PUSH20 0xFFFFFFFFFFFFFFFFFFFFFFFFFFFFFFFFFFFFFFFF AND PUSH20 0xFFFFFFFFFFFFFFFFFFFFFFFFFFFFFFFFFFFFFFFF AND DUP2 MSTORE PUSH1 0x20 ADD SWAP1 DUP2 MSTORE PUSH1 0x20 ADD PUSH1 0x0 KECCAK256 PUSH1 0x0 PUSH2 0x8CB PUSH2 0x1775 JUMP JUMPDEST PUSH20 0xFFFFFFFFFFFFFFFFFFFFFFFFFFFFFFFFFFFFFFFF AND PUSH20 0xFFFFFFFFFFFFFFFFFFFFFFFFFFFFFFFFFFFFFFFF AND DUP2 MSTORE PUSH1 0x20 ADD SWAP1 DUP2 MSTORE PUSH1 0x20 ADD PUSH1 0x0 KECCAK256 SLOAD SWAP1 POP DUP3 DUP2 LT ISZERO PUSH2 0x94B JUMPI PUSH1 0x40 MLOAD PUSH32 0x8C379A000000000000000000000000000000000000000000000000000000000 DUP2 MSTORE PUSH1 0x4 ADD PUSH2 0x942 SWAP1 PUSH2 0x3026 JUMP JUMPDEST PUSH1 0x40 MLOAD DUP1 SWAP2 SUB SWAP1 REVERT JUMPDEST PUSH2 0x968 DUP6 PUSH2 0x957 PUSH2 0x1775 JUMP JUMPDEST DUP6 DUP5 PUSH2 0x963 SWAP2 SWAP1 PUSH2 0x342A JUMP JUMPDEST PUSH2 0x177D JUMP JUMPDEST PUSH1 0x1 SWAP2 POP POP SWAP4 SWAP3 POP POP POP JUMP JUMPDEST PUSH1 0xD SLOAD DUP2 JUMP JUMPDEST PUSH1 0x0 PUSH1 0x2 PUSH1 0x0 DUP4 PUSH20 0xFFFFFFFFFFFFFFFFFFFFFFFFFFFFFFFFFFFFFFFF AND PUSH20 0xFFFFFFFFFFFFFFFFFFFFFFFFFFFFFFFFFFFFFFFF AND DUP2 MSTORE PUSH1 0x20 ADD SWAP1 DUP2 MSTORE PUSH1 0x20 ADD PUSH1 0x0 KECCAK256 PUSH1 0x0 SWAP1 SLOAD SWAP1 PUSH2 0x100 EXP SWAP1 DIV PUSH1 0xFF AND SWAP1 POP SWAP2 SWAP1 POP JUMP JUMPDEST PUSH1 0x0 PUSH1 0xE PUSH1 0x0 SWAP1 SLOAD SWAP1 PUSH2 0x100 EXP SWAP1 DIV PUSH1 0xFF AND SWAP1 POP SWAP1 JUMP JUMPDEST PUSH1 0x0 PUSH32 0x0 SWAP1 POP SWAP1 JUMP JUMPDEST PUSH1 0x0 PUSH2 0xAB1 PUSH2 0xA1C PUSH2 0x1775 JUMP JUMPDEST DUP5 DUP5 PUSH1 0x4 PUSH1 0x0 PUSH2 0xA2A PUSH2 0x1775 JUMP JUMPDEST PUSH20 0xFFFFFFFFFFFFFFFFFFFFFFFFFFFFFFFFFFFFFFFF AND PUSH20 0xFFFFFFFFFFFFFFFFFFFFFFFFFFFFFFFFFFFFFFFF AND DUP2 MSTORE PUSH1 0x20 ADD SWAP1 DUP2 MSTORE PUSH1 0x20 ADD PUSH1 0x0 KECCAK256 PUSH1 0x0 DUP9 PUSH20 0xFFFFFFFFFFFFFFFFFFFFFFFFFFFFFFFFFFFFFFFF AND PUSH20 0xFFFFFFFFFFFFFFFFFFFFFFFFFFFFFFFFFFFFFFFF AND DUP2 MSTORE PUSH1 0x20 ADD SWAP1 DUP2 MSTORE PUSH1 0x20 ADD PUSH1 0x0 KECCAK256 SLOAD PUSH2 0xAAC SWAP2 SWAP1 PUSH2 0x31D8 JUMP JUMPDEST PUSH2 0x177D JUMP JUMPDEST PUSH1 0x1 SWAP1 POP SWAP3 SWAP2 POP POP JUMP JUMPDEST PUSH2 0xAC3 PUSH2 0x1775 JUMP JUMPDEST PUSH20 0xFFFFFFFFFFFFFFFFFFFFFFFFFFFFFFFFFFFFFFFF AND PUSH2 0xAE1 PUSH2 0x11ED JUMP JUMPDEST PUSH20 0xFFFFFFFFFFFFFFFFFFFFFFFFFFFFFFFFFFFFFFFF AND EQ PUSH2 0xB37 JUMPI PUSH1 0x40 MLOAD PUSH32 0x8C379A000000000000000000000000000000000000000000000000000000000 DUP2 MSTORE PUSH1 0x4 ADD PUSH2 0xB2E SWAP1 PUSH2 0x3046 JUMP JUMPDEST PUSH1 0x40 MLOAD DUP1 SWAP2 SUB SWAP1 REVERT JUMPDEST PUSH2 0xB3F PUSH2 0xD32 JUMP JUMPDEST PUSH2 0xB7E JUMPI PUSH1 0x40 MLOAD PUSH32 0x8C379A000000000000000000000000000000000000000000000000000000000 DUP2 MSTORE PUSH1 0x4 ADD PUSH2 0xB75 SWAP1 PUSH2 0x2F46 JUMP JUMPDEST PUSH1 0x40 MLOAD DUP1 SWAP2 SUB SWAP1 REVERT JUMPDEST PUSH2 0xB86 PUSH2 0x1BCA JUMP JUMPDEST JUMP JUMPDEST PUSH2 0xB99 PUSH2 0xB93 PUSH2 0x1775 JUMP JUMPDEST DUP3 PUSH2 0x1C6C JUMP JUMPDEST POP JUMP JUMPDEST PUSH1 0x0 DUP1 PUSH1 0x0 PUSH2 0xBE9 DUP5 PUSH1 0x9 PUSH1 0x0 DUP9 PUSH20 0xFFFFFFFFFFFFFFFFFFFFFFFFFFFFFFFFFFFFFFFF AND PUSH20 0xFFFFFFFFFFFFFFFFFFFFFFFFFFFFFFFFFFFFFFFF AND DUP2 MSTORE PUSH1 0x20 ADD SWAP1 DUP2 MSTORE PUSH1 0x20 ADD PUSH1 0x0 KECCAK256 PUSH2 0x1E42 JUMP JUMPDEST SWAP2 POP SWAP2 POP DUP2 PUSH2 0xC00 JUMPI PUSH2 0xBFB DUP6 PUSH2 0xF18 JUMP JUMPDEST PUSH2 0xC02 JUMP JUMPDEST DUP1 JUMPDEST SWAP3 POP POP POP SWAP3 SWAP2 POP POP JUMP JUMPDEST PUSH2 0xC14 PUSH2 0xD32 JUMP JUMPDEST ISZERO PUSH2 0xC54 JUMPI PUSH1 0x40 MLOAD PUSH32 0x8C379A000000000000000000000000000000000000000000000000000000000 DUP2 MSTORE PUSH1 0x4 ADD PUSH2 0xC4B SWAP1 PUSH2 0x2FE6 JUMP JUMPDEST PUSH1 0x40 MLOAD DUP1 SWAP2 SUB SWAP1 REVERT JUMPDEST PUSH1 0x1 ISZERO ISZERO PUSH1 0x2 PUSH1 0x0 CALLER PUSH20 0xFFFFFFFFFFFFFFFFFFFFFFFFFFFFFFFFFFFFFFFF AND PUSH20 0xFFFFFFFFFFFFFFFFFFFFFFFFFFFFFFFFFFFFFFFF AND DUP2 MSTORE PUSH1 0x20 ADD SWAP1 DUP2 MSTORE PUSH1 0x20 ADD PUSH1 0x0 KECCAK256 PUSH1 0x0 SWAP1 SLOAD SWAP1 PUSH2 0x100 EXP SWAP1 DIV PUSH1 0xFF AND ISZERO ISZERO EQ PUSH2 0xCE7 JUMPI PUSH1 0x40 MLOAD PUSH32 0x8C379A000000000000000000000000000000000000000000000000000000000 DUP2 MSTORE PUSH1 0x4 ADD PUSH2 0xCDE SWAP1 PUSH2 0x3006 JUMP JUMPDEST PUSH1 0x40 MLOAD DUP1 SWAP2 SUB SWAP1 REVERT JUMPDEST PUSH2 0xCF1 DUP3 DUP3 PUSH2 0x1C6C JUMP JUMPDEST PUSH32 0x8C290DDA8B933846197593E5327A54AEAF4FEAB1BDBC259B7D98887A1F5EB19D CALLER DUP4 DUP4 TIMESTAMP PUSH1 0x40 MLOAD PUSH2 0xD26 SWAP5 SWAP4 SWAP3 SWAP2 SWAP1 PUSH2 0x2E84 JUMP JUMPDEST PUSH1 0x40 MLOAD DUP1 SWAP2 SUB SWAP1 LOG1 POP POP JUMP JUMPDEST PUSH1 0x0 PUSH1 0x8 PUSH1 0x0 SWAP1 SLOAD SWAP1 PUSH2 0x100 EXP SWAP1 DIV PUSH1 0xFF AND SWAP1 POP SWAP1 JUMP JUMPDEST PUSH2 0xD51 PUSH2 0x1775 JUMP JUMPDEST PUSH20 0xFFFFFFFFFFFFFFFFFFFFFFFFFFFFFFFFFFFFFFFF AND PUSH2 0xD6F PUSH2 0x11ED JUMP JUMPDEST PUSH20 0xFFFFFFFFFFFFFFFFFFFFFFFFFFFFFFFFFFFFFFFF AND EQ PUSH2 0xDC5 JUMPI PUSH1 0x40 MLOAD PUSH32 0x8C379A000000000000000000000000000000000000000000000000000000000 DUP2 MSTORE PUSH1 0x4 ADD PUSH2 0xDBC SWAP1 PUSH2 0x3046 JUMP JUMPDEST PUSH1 0x40 MLOAD DUP1 SWAP2 SUB SWAP1 REVERT JUMPDEST PUSH1 0x2 PUSH1 0x0 DUP3 PUSH20 0xFFFFFFFFFFFFFFFFFFFFFFFFFFFFFFFFFFFFFFFF AND PUSH20 0xFFFFFFFFFFFFFFFFFFFFFFFFFFFFFFFFFFFFFFFF AND DUP2 MSTORE PUSH1 0x20 ADD SWAP1 DUP2 MSTORE PUSH1 0x20 ADD PUSH1 0x0 KECCAK256 PUSH1 0x0 SWAP1 SLOAD SWAP1 PUSH2 0x100 EXP SWAP1 DIV PUSH1 0xFF AND PUSH2 0xF15 JUMPI PUSH1 0x1 DUP2 SWAP1 DUP1 PUSH1 0x1 DUP2 SLOAD ADD DUP1 DUP3 SSTORE DUP1 SWAP2 POP POP PUSH1 0x1 SWAP1 SUB SWAP1 PUSH1 0x0 MSTORE PUSH1 0x20 PUSH1 0x0 KECCAK256 ADD PUSH1 0x0 SWAP1 SWAP2 SWAP1 SWAP2 SWAP1 SWAP2 PUSH2 0x100 EXP DUP2 SLOAD DUP2 PUSH20 0xFFFFFFFFFFFFFFFFFFFFFFFFFFFFFFFFFFFFFFFF MUL NOT AND SWAP1 DUP4 PUSH20 0xFFFFFFFFFFFFFFFFFFFFFFFFFFFFFFFFFFFFFFFF AND MUL OR SWAP1 SSTORE POP PUSH1 0x1 PUSH1 0x2 PUSH1 0x0 DUP4 PUSH20 0xFFFFFFFFFFFFFFFFFFFFFFFFFFFFFFFFFFFFFFFF AND PUSH20 0xFFFFFFFFFFFFFFFFFFFFFFFFFFFFFFFFFFFFFFFF AND DUP2 MSTORE PUSH1 0x20 ADD SWAP1 DUP2 MSTORE PUSH1 0x20 ADD PUSH1 0x0 KECCAK256 PUSH1 0x0 PUSH2 0x100 EXP DUP2 SLOAD DUP2 PUSH1 0xFF MUL NOT AND SWAP1 DUP4 ISZERO ISZERO MUL OR SWAP1 SSTORE POP DUP1 PUSH20 0xFFFFFFFFFFFFFFFFFFFFFFFFFFFFFFFFFFFFFFFF AND PUSH32 0x4550F0ACB6B43E87F5E4B34B16E7FBF8AF3B81B79B8077CA49FF3AFA15D7E911 PUSH1 0x40 MLOAD PUSH1 0x40 MLOAD DUP1 SWAP2 SUB SWAP1 LOG2 JUMPDEST POP JUMP JUMPDEST PUSH1 0x0 PUSH1 0x3 PUSH1 0x0 DUP4 PUSH20 0xFFFFFFFFFFFFFFFFFFFFFFFFFFFFFFFFFFFFFFFF AND PUSH20 0xFFFFFFFFFFFFFFFFFFFFFFFFFFFFFFFFFFFFFFFF AND DUP2 MSTORE PUSH1 0x20 ADD SWAP1 DUP2 MSTORE PUSH1 0x20 ADD PUSH1 0x0 KECCAK256 SLOAD SWAP1 POP SWAP2 SWAP1 POP JUMP JUMPDEST PUSH2 0xF69 PUSH2 0x1775 JUMP JUMPDEST PUSH20 0xFFFFFFFFFFFFFFFFFFFFFFFFFFFFFFFFFFFFFFFF AND PUSH2 0xF87 PUSH2 0x11ED JUMP JUMPDEST PUSH20 0xFFFFFFFFFFFFFFFFFFFFFFFFFFFFFFFFFFFFFFFF AND EQ PUSH2 0xFDD JUMPI PUSH1 0x40 MLOAD PUSH32 0x8C379A000000000000000000000000000000000000000000000000000000000 DUP2 MSTORE PUSH1 0x4 ADD PUSH2 0xFD4 SWAP1 PUSH2 0x3046 JUMP JUMPDEST PUSH1 0x40 MLOAD DUP1 SWAP2 SUB SWAP1 REVERT JUMPDEST PUSH1 0x0 PUSH20 0xFFFFFFFFFFFFFFFFFFFFFFFFFFFFFFFFFFFFFFFF AND PUSH1 0x0 DUP1 SLOAD SWAP1 PUSH2 0x100 EXP SWAP1 DIV PUSH20 0xFFFFFFFFFFFFFFFFFFFFFFFFFFFFFFFFFFFFFFFF AND PUSH20 0xFFFFFFFFFFFFFFFFFFFFFFFFFFFFFFFFFFFFFFFF AND PUSH32 0x8BE0079C531659141344CD1FD0A4F28419497F9722A3DAAFE3B4186F6B6457E0 PUSH1 0x40 MLOAD PUSH1 0x40 MLOAD DUP1 SWAP2 SUB SWAP1 LOG3 PUSH1 0x0 DUP1 PUSH1 0x0 PUSH2 0x100 EXP DUP2 SLOAD DUP2 PUSH20 0xFFFFFFFFFFFFFFFFFFFFFFFFFFFFFFFFFFFFFFFF MUL NOT AND SWAP1 DUP4 PUSH20 0xFFFFFFFFFFFFFFFFFFFFFFFFFFFFFFFFFFFFFFFF AND MUL OR SWAP1 SSTORE POP JUMP JUMPDEST PUSH1 0x0 PUSH2 0x10AE DUP4 PUSH2 0x10A9 PUSH2 0x1775 JUMP JUMPDEST PUSH2 0x1545 JUMP JUMPDEST SWAP1 POP DUP2 DUP2 LT ISZERO PUSH2 0x10F3 JUMPI PUSH1 0x40 MLOAD PUSH32 0x8C379A000000000000000000000000000000000000000000000000000000000 DUP2 MSTORE PUSH1 0x4 ADD PUSH2 0x10EA SWAP1 PUSH2 0x3066 JUMP JUMPDEST PUSH1 0x40 MLOAD DUP1 SWAP2 SUB SWAP1 REVERT JUMPDEST PUSH2 0x1110 DUP4 PUSH2 0x10FF PUSH2 0x1775 JUMP JUMPDEST DUP5 DUP5 PUSH2 0x110B SWAP2 SWAP1 PUSH2 0x342A JUMP JUMPDEST PUSH2 0x177D JUMP JUMPDEST PUSH2 0x111A DUP4 DUP4 PUSH2 0x1C6C JUMP JUMPDEST POP POP POP JUMP JUMPDEST PUSH2 0x1127 PUSH2 0x1775 JUMP JUMPDEST PUSH20 0xFFFFFFFFFFFFFFFFFFFFFFFFFFFFFFFFFFFFFFFF AND PUSH2 0x1145 PUSH2 0x11ED JUMP JUMPDEST PUSH20 0xFFFFFFFFFFFFFFFFFFFFFFFFFFFFFFFFFFFFFFFF AND EQ PUSH2 0x119B JUMPI PUSH1 0x40 MLOAD PUSH32 0x8C379A000000000000000000000000000000000000000000000000000000000 DUP2 MSTORE PUSH1 0x4 ADD PUSH2 0x1192 SWAP1 PUSH2 0x3046 JUMP JUMPDEST PUSH1 0x40 MLOAD DUP1 SWAP2 SUB SWAP1 REVERT JUMPDEST PUSH2 0x11A3 PUSH2 0xD32 JUMP JUMPDEST ISZERO PUSH2 0x11E3 JUMPI PUSH1 0x40 MLOAD PUSH32 0x8C379A000000000000000000000000000000000000000000000000000000000 DUP2 MSTORE PUSH1 0x4 ADD PUSH2 0x11DA SWAP1 PUSH2 0x2FE6 JUMP JUMPDEST PUSH1 0x40 MLOAD DUP1 SWAP2 SUB SWAP1 REVERT JUMPDEST PUSH2 0x11EB PUSH2 0x1F60 JUMP JUMPDEST JUMP JUMPDEST PUSH1 0x0 DUP1 PUSH1 0x0 SWAP1 SLOAD SWAP1 PUSH2 0x100 EXP SWAP1 DIV PUSH20 0xFFFFFFFFFFFFFFFFFFFFFFFFFFFFFFFFFFFFFFFF AND SWAP1 POP SWAP1 JUMP JUMPDEST PUSH1 0x60 PUSH1 0x7 DUP1 SLOAD PUSH2 0x1225 SWAP1 PUSH2 0x34E6 JUMP JUMPDEST DUP1 PUSH1 0x1F ADD PUSH1 0x20 DUP1 SWAP2 DIV MUL PUSH1 0x20 ADD PUSH1 0x40 MLOAD SWAP1 DUP2 ADD PUSH1 0x40 MSTORE DUP1 SWAP3 SWAP2 SWAP1 DUP2 DUP2 MSTORE PUSH1 0x20 ADD DUP3 DUP1 SLOAD PUSH2 0x1251 SWAP1 PUSH2 0x34E6 JUMP JUMPDEST DUP1 ISZERO PUSH2 0x129E JUMPI DUP1 PUSH1 0x1F LT PUSH2 0x1273 JUMPI PUSH2 0x100 DUP1 DUP4 SLOAD DIV MUL DUP4 MSTORE SWAP2 PUSH1 0x20 ADD SWAP2 PUSH2 0x129E JUMP JUMPDEST DUP3 ADD SWAP2 SWAP1 PUSH1 0x0 MSTORE PUSH1 0x20 PUSH1 0x0 KECCAK256 SWAP1 JUMPDEST DUP2 SLOAD DUP2 MSTORE SWAP1 PUSH1 0x1 ADD SWAP1 PUSH1 0x20 ADD DUP1 DUP4 GT PUSH2 0x1281 JUMPI DUP3 SWAP1 SUB PUSH1 0x1F AND DUP3 ADD SWAP2 JUMPDEST POP POP POP POP POP SWAP1 POP SWAP1 JUMP JUMPDEST PUSH1 0x0 DUP1 PUSH1 0x0 PUSH2 0x12B8 DUP5 PUSH1 0xA PUSH2 0x1E42 JUMP JUMPDEST SWAP2 POP SWAP2 POP DUP2 PUSH2 0x12CE JUMPI PUSH2 0x12C9 PUSH2 0x869 JUMP JUMPDEST PUSH2 0x12D0 JUMP JUMPDEST DUP1 JUMPDEST SWAP3 POP POP POP SWAP2 SWAP1 POP JUMP JUMPDEST PUSH1 0x0 DUP1 PUSH1 0x4 PUSH1 0x0 PUSH2 0x12E8 PUSH2 0x1775 JUMP JUMPDEST PUSH20 0xFFFFFFFFFFFFFFFFFFFFFFFFFFFFFFFFFFFFFFFF AND PUSH20 0xFFFFFFFFFFFFFFFFFFFFFFFFFFFFFFFFFFFFFFFF AND DUP2 MSTORE PUSH1 0x20 ADD SWAP1 DUP2 MSTORE PUSH1 0x20 ADD PUSH1 0x0 KECCAK256 PUSH1 0x0 DUP6 PUSH20 0xFFFFFFFFFFFFFFFFFFFFFFFFFFFFFFFFFFFFFFFF AND PUSH20 0xFFFFFFFFFFFFFFFFFFFFFFFFFFFFFFFFFFFFFFFF AND DUP2 MSTORE PUSH1 0x20 ADD SWAP1 DUP2 MSTORE PUSH1 0x20 ADD PUSH1 0x0 KECCAK256 SLOAD SWAP1 POP DUP3 DUP2 LT ISZERO PUSH2 0x13A5 JUMPI PUSH1 0x40 MLOAD PUSH32 0x8C379A000000000000000000000000000000000000000000000000000000000 DUP2 MSTORE PUSH1 0x4 ADD PUSH2 0x139C SWAP1 PUSH2 0x3126 JUMP JUMPDEST PUSH1 0x40 MLOAD DUP1 SWAP2 SUB SWAP1 REVERT JUMPDEST PUSH2 0x13C2 PUSH2 0x13B0 PUSH2 0x1775 JUMP JUMPDEST DUP6 DUP6 DUP5 PUSH2 0x13BD SWAP2 SWAP1 PUSH2 0x342A JUMP JUMPDEST PUSH2 0x177D JUMP JUMPDEST PUSH1 0x1 SWAP2 POP POP SWAP3 SWAP2 POP POP JUMP JUMPDEST PUSH1 0x0 PUSH2 0x13E1 PUSH2 0x13DA PUSH2 0x1775 JUMP JUMPDEST DUP5 DUP5 PUSH2 0x1948 JUMP JUMPDEST PUSH1 0x1 SWAP1 POP SWAP3 SWAP2 POP POP JUMP JUMPDEST PUSH2 0x13F3 PUSH2 0xD32 JUMP JUMPDEST ISZERO PUSH2 0x1433 JUMPI PUSH1 0x40 MLOAD PUSH32 0x8C379A000000000000000000000000000000000000000000000000000000000 DUP2 MSTORE PUSH1 0x4 ADD PUSH2 0x142A SWAP1 PUSH2 0x2FE6 JUMP JUMPDEST PUSH1 0x40 MLOAD DUP1 SWAP2 SUB SWAP1 REVERT JUMPDEST PUSH1 0x1 ISZERO ISZERO PUSH1 0x2 PUSH1 0x0 CALLER PUSH20 0xFFFFFFFFFFFFFFFFFFFFFFFFFFFFFFFFFFFFFFFF AND PUSH20 0xFFFFFFFFFFFFFFFFFFFFFFFFFFFFFFFFFFFFFFFF AND DUP2 MSTORE PUSH1 0x20 ADD SWAP1 DUP2 MSTORE PUSH1 0x20 ADD PUSH1 0x0 KECCAK256 PUSH1 0x0 SWAP1 SLOAD SWAP1 PUSH2 0x100 EXP SWAP1 DIV PUSH1 0xFF AND ISZERO ISZERO EQ PUSH2 0x14C6 JUMPI PUSH1 0x40 MLOAD PUSH32 0x8C379A000000000000000000000000000000000000000000000000000000000 DUP2 MSTORE PUSH1 0x4 ADD PUSH2 0x14BD SWAP1 PUSH2 0x3006 JUMP JUMPDEST PUSH1 0x40 MLOAD DUP1 SWAP2 SUB SWAP1 REVERT JUMPDEST PUSH1 0x0 PUSH1 0xD SLOAD EQ ISZERO PUSH2 0x14FA JUMPI PUSH2 0x14D9 PUSH2 0x9D0 JUMP JUMPDEST PUSH1 0xFF AND PUSH1 0xA PUSH2 0x14E8 SWAP2 SWAP1 PUSH2 0x32B2 JUMP JUMPDEST DUP2 PUSH2 0x14F3 SWAP2 SWAP1 PUSH2 0x33D0 JUMP JUMPDEST PUSH1 0xD DUP2 SWAP1 SSTORE POP JUMPDEST PUSH2 0x1504 DUP3 DUP3 PUSH2 0x2003 JUMP JUMPDEST PUSH32 0x29B1A65DADC2F0D400766E35FEA46A25094F621057E0A3B94E1FE53230DB87C1 CALLER DUP4 DUP4 TIMESTAMP PUSH1 0x40 MLOAD PUSH2 0x1539 SWAP5 SWAP4 SWAP3 SWAP2 SWAP1 PUSH2 0x2E84 JUMP JUMPDEST PUSH1 0x40 MLOAD DUP1 SWAP2 SUB SWAP1 LOG1 POP POP JUMP JUMPDEST PUSH1 0x0 PUSH1 0x4 PUSH1 0x0 DUP5 PUSH20 0xFFFFFFFFFFFFFFFFFFFFFFFFFFFFFFFFFFFFFFFF AND PUSH20 0xFFFFFFFFFFFFFFFFFFFFFFFFFFFFFFFFFFFFFFFF AND DUP2 MSTORE PUSH1 0x20 ADD SWAP1 DUP2 MSTORE PUSH1 0x20 ADD PUSH1 0x0 KECCAK256 PUSH1 0x0 DUP4 PUSH20 0xFFFFFFFFFFFFFFFFFFFFFFFFFFFFFFFFFFFFFFFF AND PUSH20 0xFFFFFFFFFFFFFFFFFFFFFFFFFFFFFFFFFFFFFFFF AND DUP2 MSTORE PUSH1 0x20 ADD SWAP1 DUP2 MSTORE PUSH1 0x20 ADD PUSH1 0x0 KECCAK256 SLOAD SWAP1 POP SWAP3 SWAP2 POP POP JUMP JUMPDEST PUSH2 0x15D4 PUSH2 0x1775 JUMP JUMPDEST PUSH20 0xFFFFFFFFFFFFFFFFFFFFFFFFFFFFFFFFFFFFFFFF AND PUSH2 0x15F2 PUSH2 0x11ED JUMP JUMPDEST PUSH20 0xFFFFFFFFFFFFFFFFFFFFFFFFFFFFFFFFFFFFFFFF AND EQ PUSH2 0x1648 JUMPI PUSH1 0x40 MLOAD PUSH32 0x8C379A000000000000000000000000000000000000000000000000000000000 DUP2 MSTORE PUSH1 0x4 ADD PUSH2 0x163F SWAP1 PUSH2 0x3046 JUMP JUMPDEST PUSH1 0x40 MLOAD DUP1 SWAP2 SUB SWAP1 REVERT JUMPDEST PUSH1 0x0 PUSH20 0xFFFFFFFFFFFFFFFFFFFFFFFFFFFFFFFFFFFFFFFF AND DUP2 PUSH20 0xFFFFFFFFFFFFFFFFFFFFFFFFFFFFFFFFFFFFFFFF AND EQ ISZERO PUSH2 0x16B8 JUMPI PUSH1 0x40 MLOAD PUSH32 0x8C379A000000000000000000000000000000000000000000000000000000000 DUP2 MSTORE PUSH1 0x4 ADD PUSH2 0x16AF SWAP1 PUSH2 0x2F86 JUMP JUMPDEST PUSH1 0x40 MLOAD DUP1 SWAP2 SUB SWAP1 REVERT JUMPDEST DUP1 PUSH20 0xFFFFFFFFFFFFFFFFFFFFFFFFFFFFFFFFFFFFFFFF AND PUSH1 0x0 DUP1 SLOAD SWAP1 PUSH2 0x100 EXP SWAP1 DIV PUSH20 0xFFFFFFFFFFFFFFFFFFFFFFFFFFFFFFFFFFFFFFFF AND PUSH20 0xFFFFFFFFFFFFFFFFFFFFFFFFFFFFFFFFFFFFFFFF AND PUSH32 0x8BE0079C531659141344CD1FD0A4F28419497F9722A3DAAFE3B4186F6B6457E0 PUSH1 0x40 MLOAD PUSH1 0x40 MLOAD DUP1 SWAP2 SUB SWAP1 LOG3 DUP1 PUSH1 0x0 DUP1 PUSH2 0x100 EXP DUP2 SLOAD DUP2 PUSH20 0xFFFFFFFFFFFFFFFFFFFFFFFFFFFFFFFFFFFFFFFF MUL NOT AND SWAP1 DUP4 PUSH20 0xFFFFFFFFFFFFFFFFFFFFFFFFFFFFFFFFFFFFFFFF AND MUL OR SWAP1 SSTORE POP POP JUMP JUMPDEST PUSH1 0x0 CALLER SWAP1 POP SWAP1 JUMP JUMPDEST PUSH1 0x0 PUSH20 0xFFFFFFFFFFFFFFFFFFFFFFFFFFFFFFFFFFFFFFFF AND DUP4 PUSH20 0xFFFFFFFFFFFFFFFFFFFFFFFFFFFFFFFFFFFFFFFF AND EQ ISZERO PUSH2 0x17ED JUMPI PUSH1 0x40 MLOAD PUSH32 0x8C379A000000000000000000000000000000000000000000000000000000000 DUP2 MSTORE PUSH1 0x4 ADD PUSH2 0x17E4 SWAP1 PUSH2 0x30E6 JUMP JUMPDEST PUSH1 0x40 MLOAD DUP1 SWAP2 SUB SWAP1 REVERT JUMPDEST PUSH1 0x0 PUSH20 0xFFFFFFFFFFFFFFFFFFFFFFFFFFFFFFFFFFFFFFFF AND DUP3 PUSH20 0xFFFFFFFFFFFFFFFFFFFFFFFFFFFFFFFFFFFFFFFF AND EQ ISZERO PUSH2 0x185D JUMPI PUSH1 0x40 MLOAD PUSH32 0x8C379A000000000000000000000000000000000000000000000000000000000 DUP2 MSTORE PUSH1 0x4 ADD PUSH2 0x1854 SWAP1 PUSH2 0x2FA6 JUMP JUMPDEST PUSH1 0x40 MLOAD DUP1 SWAP2 SUB SWAP1 REVERT JUMPDEST DUP1 PUSH1 0x4 PUSH1 0x0 DUP6 PUSH20 0xFFFFFFFFFFFFFFFFFFFFFFFFFFFFFFFFFFFFFFFF AND PUSH20 0xFFFFFFFFFFFFFFFFFFFFFFFFFFFFFFFFFFFFFFFF AND DUP2 MSTORE PUSH1 0x20 ADD SWAP1 DUP2 MSTORE PUSH1 0x20 ADD PUSH1 0x0 KECCAK256 PUSH1 0x0 DUP5 PUSH20 0xFFFFFFFFFFFFFFFFFFFFFFFFFFFFFFFFFFFFFFFF AND PUSH20 0xFFFFFFFFFFFFFFFFFFFFFFFFFFFFFFFFFFFFFFFF AND DUP2 MSTORE PUSH1 0x20 ADD SWAP1 DUP2 MSTORE PUSH1 0x20 ADD PUSH1 0x0 KECCAK256 DUP2 SWAP1 SSTORE POP DUP2 PUSH20 0xFFFFFFFFFFFFFFFFFFFFFFFFFFFFFFFFFFFFFFFF AND DUP4 PUSH20 0xFFFFFFFFFFFFFFFFFFFFFFFFFFFFFFFFFFFFFFFF AND PUSH32 0x8C5BE1E5EBEC7D5BD14F71427D1E84F3DD0314C0F7B2291E5B200AC8C7C3B925 DUP4 PUSH1 0x40 MLOAD PUSH2 0x193B SWAP2 SWAP1 PUSH2 0x3186 JUMP JUMPDEST PUSH1 0x40 MLOAD DUP1 SWAP2 SUB SWAP1 LOG3 POP POP POP JUMP JUMPDEST PUSH1 0x0 PUSH20 0xFFFFFFFFFFFFFFFFFFFFFFFFFFFFFFFFFFFFFFFF AND DUP4 PUSH20 0xFFFFFFFFFFFFFFFFFFFFFFFFFFFFFFFFFFFFFFFF AND EQ ISZERO PUSH2 0x19B8 JUMPI PUSH1 0x40 MLOAD PUSH32 0x8C379A000000000000000000000000000000000000000000000000000000000 DUP2 MSTORE PUSH1 0x4 ADD PUSH2 0x19AF SWAP1 PUSH2 0x30A6 JUMP JUMPDEST PUSH1 0x40 MLOAD DUP1 SWAP2 SUB SWAP1 REVERT JUMPDEST PUSH1 0x0 PUSH20 0xFFFFFFFFFFFFFFFFFFFFFFFFFFFFFFFFFFFFFFFF AND DUP3 PUSH20 0xFFFFFFFFFFFFFFFFFFFFFFFFFFFFFFFFFFFFFFFF AND EQ ISZERO PUSH2 0x1A28 JUMPI PUSH1 0x40 MLOAD PUSH32 0x8C379A000000000000000000000000000000000000000000000000000000000 DUP2 MSTORE PUSH1 0x4 ADD PUSH2 0x1A1F SWAP1 PUSH2 0x2F26 JUMP JUMPDEST PUSH1 0x40 MLOAD DUP1 SWAP2 SUB SWAP1 REVERT JUMPDEST PUSH2 0x1A33 DUP4 DUP4 DUP4 PUSH2 0x2011 JUMP JUMPDEST PUSH1 0x0 PUSH1 0x3 PUSH1 0x0 DUP6 PUSH20 0xFFFFFFFFFFFFFFFFFFFFFFFFFFFFFFFFFFFFFFFF AND PUSH20 0xFFFFFFFFFFFFFFFFFFFFFFFFFFFFFFFFFFFFFFFF AND DUP2 MSTORE PUSH1 0x20 ADD SWAP1 DUP2 MSTORE PUSH1 0x20 ADD PUSH1 0x0 KECCAK256 SLOAD SWAP1 POP DUP2 DUP2 LT ISZERO PUSH2 0x1ABA JUMPI PUSH1 0x40 MLOAD PUSH32 0x8C379A000000000000000000000000000000000000000000000000000000000 DUP2 MSTORE PUSH1 0x4 ADD PUSH2 0x1AB1 SWAP1 PUSH2 0x2FC6 JUMP JUMPDEST PUSH1 0x40 MLOAD DUP1 SWAP2 SUB SWAP1 REVERT JUMPDEST DUP2 DUP2 PUSH2 0x1AC6 SWAP2 SWAP1 PUSH2 0x342A JUMP JUMPDEST PUSH1 0x3 PUSH1 0x0 DUP7 PUSH20 0xFFFFFFFFFFFFFFFFFFFFFFFFFFFFFFFFFFFFFFFF AND PUSH20 0xFFFFFFFFFFFFFFFFFFFFFFFFFFFFFFFFFFFFFFFF AND DUP2 MSTORE PUSH1 0x20 ADD SWAP1 DUP2 MSTORE PUSH1 0x20 ADD PUSH1 0x0 KECCAK256 DUP2 SWAP1 SSTORE POP DUP2 PUSH1 0x3 PUSH1 0x0 DUP6 PUSH20 0xFFFFFFFFFFFFFFFFFFFFFFFFFFFFFFFFFFFFFFFF AND PUSH20 0xFFFFFFFFFFFFFFFFFFFFFFFFFFFFFFFFFFFFFFFF AND DUP2 MSTORE PUSH1 0x20 ADD SWAP1 DUP2 MSTORE PUSH1 0x20 ADD PUSH1 0x0 KECCAK256 PUSH1 0x0 DUP3 DUP3 SLOAD PUSH2 0x1B58 SWAP2 SWAP1 PUSH2 0x31D8 JUMP JUMPDEST SWAP3 POP POP DUP2 SWAP1 SSTORE POP DUP3 PUSH20 0xFFFFFFFFFFFFFFFFFFFFFFFFFFFFFFFFFFFFFFFF AND DUP5 PUSH20 0xFFFFFFFFFFFFFFFFFFFFFFFFFFFFFFFFFFFFFFFF AND PUSH32 0xDDF252AD1BE2C89B69C2B068FC378DAA952BA7F163C4A11628F55A4DF523B3EF DUP5 PUSH1 0x40 MLOAD PUSH2 0x1BBC SWAP2 SWAP1 PUSH2 0x3186 JUMP JUMPDEST PUSH1 0x40 MLOAD DUP1 SWAP2 SUB SWAP1 LOG3 POP POP POP POP JUMP JUMPDEST PUSH2 0x1BD2 PUSH2 0xD32 JUMP JUMPDEST PUSH2 0x1C11 JUMPI PUSH1 0x40 MLOAD PUSH32 0x8C379A000000000000000000000000000000000000000000000000000000000 DUP2 MSTORE PUSH1 0x4 ADD PUSH2 0x1C08 SWAP1 PUSH2 0x2F46 JUMP JUMPDEST PUSH1 0x40 MLOAD DUP1 SWAP2 SUB SWAP1 REVERT JUMPDEST PUSH1 0x0 PUSH1 0x8 PUSH1 0x0 PUSH2 0x100 EXP DUP2 SLOAD DUP2 PUSH1 0xFF MUL NOT AND SWAP1 DUP4 ISZERO ISZERO MUL OR SWAP1 SSTORE POP PUSH32 0x5DB9EE0A495BF2E6FF9C91A7834C1BA4FDD244A5E8AA4E537BD38AEAE4B073AA PUSH2 0x1C55 PUSH2 0x1775 JUMP JUMPDEST PUSH1 0x40 MLOAD PUSH2 0x1C62 SWAP2 SWAP1 PUSH2 0x2E69 JUMP JUMPDEST PUSH1 0x40 MLOAD DUP1 SWAP2 SUB SWAP1 LOG1 JUMP JUMPDEST PUSH1 0x0 PUSH20 0xFFFFFFFFFFFFFFFFFFFFFFFFFFFFFFFFFFFFFFFF AND DUP3 PUSH20 0xFFFFFFFFFFFFFFFFFFFFFFFFFFFFFFFFFFFFFFFF AND EQ ISZERO PUSH2 0x1CDC JUMPI PUSH1 0x40 MLOAD PUSH32 0x8C379A000000000000000000000000000000000000000000000000000000000 DUP2 MSTORE PUSH1 0x4 ADD PUSH2 0x1CD3 SWAP1 PUSH2 0x3086 JUMP JUMPDEST PUSH1 0x40 MLOAD DUP1 SWAP2 SUB SWAP1 REVERT JUMPDEST PUSH2 0x1CE8 DUP3 PUSH1 0x0 DUP4 PUSH2 0x2011 JUMP JUMPDEST PUSH1 0x0 PUSH1 0x3 PUSH1 0x0 DUP5 PUSH20 0xFFFFFFFFFFFFFFFFFFFFFFFFFFFFFFFFFFFFFFFF AND PUSH20 0xFFFFFFFFFFFFFFFFFFFFFFFFFFFFFFFFFFFFFFFF AND DUP2 MSTORE PUSH1 0x20 ADD SWAP1 DUP2 MSTORE PUSH1 0x20 ADD PUSH1 0x0 KECCAK256 SLOAD SWAP1 POP DUP2 DUP2 LT ISZERO PUSH2 0x1D6F JUMPI PUSH1 0x40 MLOAD PUSH32 0x8C379A000000000000000000000000000000000000000000000000000000000 DUP2 MSTORE PUSH1 0x4 ADD PUSH2 0x1D66 SWAP1 PUSH2 0x2F66 JUMP JUMPDEST PUSH1 0x40 MLOAD DUP1 SWAP2 SUB SWAP1 REVERT JUMPDEST DUP2 DUP2 PUSH2 0x1D7B SWAP2 SWAP1 PUSH2 0x342A JUMP JUMPDEST PUSH1 0x3 PUSH1 0x0 DUP6 PUSH20 0xFFFFFFFFFFFFFFFFFFFFFFFFFFFFFFFFFFFFFFFF AND PUSH20 0xFFFFFFFFFFFFFFFFFFFFFFFFFFFFFFFFFFFFFFFF AND DUP2 MSTORE PUSH1 0x20 ADD SWAP1 DUP2 MSTORE PUSH1 0x20 ADD PUSH1 0x0 KECCAK256 DUP2 SWAP1 SSTORE POP DUP2 PUSH1 0x5 PUSH1 0x0 DUP3 DUP3 SLOAD PUSH2 0x1DD0 SWAP2 SWAP1 PUSH2 0x342A JUMP JUMPDEST SWAP3 POP POP DUP2 SWAP1 SSTORE POP PUSH1 0x0 PUSH20 0xFFFFFFFFFFFFFFFFFFFFFFFFFFFFFFFFFFFFFFFF AND DUP4 PUSH20 0xFFFFFFFFFFFFFFFFFFFFFFFFFFFFFFFFFFFFFFFF AND PUSH32 0xDDF252AD1BE2C89B69C2B068FC378DAA952BA7F163C4A11628F55A4DF523B3EF DUP5 PUSH1 0x40 MLOAD PUSH2 0x1E35 SWAP2 SWAP1 PUSH2 0x3186 JUMP JUMPDEST PUSH1 0x40 MLOAD DUP1 SWAP2 SUB SWAP1 LOG3 POP POP POP JUMP JUMPDEST PUSH1 0x0 DUP1 PUSH1 0x0 DUP5 GT PUSH2 0x1E88 JUMPI PUSH1 0x40 MLOAD PUSH32 0x8C379A000000000000000000000000000000000000000000000000000000000 DUP2 MSTORE PUSH1 0x4 ADD PUSH2 0x1E7F SWAP1 PUSH2 0x3106 JUMP JUMPDEST PUSH1 0x40 MLOAD DUP1 SWAP2 SUB SWAP1 REVERT JUMPDEST PUSH2 0x1E92 PUSH1 0xC PUSH2 0x2021 JUMP JUMPDEST DUP5 GT ISZERO PUSH2 0x1ED4 JUMPI PUSH1 0x40 MLOAD PUSH32 0x8C379A000000000000000000000000000000000000000000000000000000000 DUP2 MSTORE PUSH1 0x4 ADD PUSH2 0x1ECB SWAP1 PUSH2 0x2F06 JUMP JUMPDEST PUSH1 0x40 MLOAD DUP1 SWAP2 SUB SWAP1 REVERT JUMPDEST PUSH1 0x0 PUSH2 0x1EEC DUP6 DUP6 PUSH1 0x0 ADD PUSH2 0x202F SWAP1 SWAP2 SWAP1 PUSH4 0xFFFFFFFF AND JUMP JUMPDEST SWAP1 POP DUP4 PUSH1 0x0 ADD DUP1 SLOAD SWAP1 POP DUP2 EQ ISZERO PUSH2 0x1F0A JUMPI PUSH1 0x0 DUP1 SWAP3 POP SWAP3 POP POP PUSH2 0x1F59 JUMP JUMPDEST PUSH1 0x1 DUP5 PUSH1 0x1 ADD DUP3 DUP2 SLOAD DUP2 LT PUSH2 0x1F48 JUMPI PUSH32 0x4E487B7100000000000000000000000000000000000000000000000000000000 PUSH1 0x0 MSTORE PUSH1 0x32 PUSH1 0x4 MSTORE PUSH1 0x24 PUSH1 0x0 REVERT JUMPDEST SWAP1 PUSH1 0x0 MSTORE PUSH1 0x20 PUSH1 0x0 KECCAK256 ADD SLOAD SWAP3 POP SWAP3 POP POP JUMPDEST SWAP3 POP SWAP3 SWAP1 POP JUMP JUMPDEST PUSH2 0x1F68 PUSH2 0xD32 JUMP JUMPDEST ISZERO PUSH2 0x1FA8 JUMPI PUSH1 0x40 MLOAD PUSH32 0x8C379A000000000000000000000000000000000000000000000000000000000 DUP2 MSTORE PUSH1 0x4 ADD PUSH2 0x1F9F SWAP1 PUSH2 0x2FE6 JUMP JUMPDEST PUSH1 0x40 MLOAD DUP1 SWAP2 SUB SWAP1 REVERT JUMPDEST PUSH1 0x1 PUSH1 0x8 PUSH1 0x0 PUSH2 0x100 EXP DUP2 SLOAD DUP2 PUSH1 0xFF MUL NOT AND SWAP1 DUP4 ISZERO ISZERO MUL OR SWAP1 SSTORE POP PUSH32 0x62E78CEA01BEE320CD4E420270B5EA74000D11B0C9F74754EBDBFC544B05A258 PUSH2 0x1FEC PUSH2 0x1775 JUMP JUMPDEST PUSH1 0x40 MLOAD PUSH2 0x1FF9 SWAP2 SWAP1 PUSH2 0x2E69 JUMP JUMPDEST PUSH1 0x40 MLOAD DUP1 SWAP2 SUB SWAP1 LOG1 JUMP JUMPDEST PUSH2 0x200D DUP3 DUP3 PUSH2 0x2155 JUMP JUMPDEST POP POP JUMP JUMPDEST PUSH2 0x201C DUP4 DUP4 DUP4 PUSH2 0x21BF JUMP JUMPDEST POP POP POP JUMP JUMPDEST PUSH1 0x0 DUP2 PUSH1 0x0 ADD SLOAD SWAP1 POP SWAP2 SWAP1 POP JUMP JUMPDEST PUSH1 0x0 DUP1 DUP4 DUP1 SLOAD SWAP1 POP EQ ISZERO PUSH2 0x2046 JUMPI PUSH1 0x0 SWAP1 POP PUSH2 0x214F JUMP JUMPDEST PUSH1 0x0 DUP1 DUP5 DUP1 SLOAD SWAP1 POP SWAP1 POP JUMPDEST DUP1 DUP3 LT ISZERO PUSH2 0x20D0 JUMPI PUSH1 0x0 PUSH2 0x2065 DUP4 DUP4 PUSH2 0x2279 JUMP JUMPDEST SWAP1 POP DUP5 DUP7 DUP3 DUP2 SLOAD DUP2 LT PUSH2 0x20A1 JUMPI PUSH32 0x4E487B7100000000000000000000000000000000000000000000000000000000 PUSH1 0x0 MSTORE PUSH1 0x32 PUSH1 0x4 MSTORE PUSH1 0x24 PUSH1 0x0 REVERT JUMPDEST SWAP1 PUSH1 0x0 MSTORE PUSH1 0x20 PUSH1 0x0 KECCAK256 ADD SLOAD GT ISZERO PUSH2 0x20BA JUMPI DUP1 SWAP2 POP PUSH2 0x20CA JUMP JUMPDEST PUSH1 0x1 DUP2 PUSH2 0x20C7 SWAP2 SWAP1 PUSH2 0x31D8 JUMP JUMPDEST SWAP3 POP JUMPDEST POP PUSH2 0x2051 JUMP JUMPDEST PUSH1 0x0 DUP3 GT DUP1 ISZERO PUSH2 0x212E JUMPI POP DUP4 DUP6 PUSH1 0x1 DUP5 PUSH2 0x20EA SWAP2 SWAP1 PUSH2 0x342A JUMP JUMPDEST DUP2 SLOAD DUP2 LT PUSH2 0x2121 JUMPI PUSH32 0x4E487B7100000000000000000000000000000000000000000000000000000000 PUSH1 0x0 MSTORE PUSH1 0x32 PUSH1 0x4 MSTORE PUSH1 0x24 PUSH1 0x0 REVERT JUMPDEST SWAP1 PUSH1 0x0 MSTORE PUSH1 0x20 PUSH1 0x0 KECCAK256 ADD SLOAD EQ JUMPDEST ISZERO PUSH2 0x2149 JUMPI PUSH1 0x1 DUP3 PUSH2 0x2140 SWAP2 SWAP1 PUSH2 0x342A JUMP JUMPDEST SWAP3 POP POP POP PUSH2 0x214F JUMP JUMPDEST DUP2 SWAP3 POP POP POP JUMPDEST SWAP3 SWAP2 POP POP JUMP JUMPDEST PUSH2 0x215D PUSH2 0x9E7 JUMP JUMPDEST DUP2 PUSH2 0x2166 PUSH2 0x869 JUMP JUMPDEST PUSH2 0x2170 SWAP2 SWAP1 PUSH2 0x31D8 JUMP JUMPDEST GT ISZERO PUSH2 0x21B1 JUMPI PUSH1 0x40 MLOAD PUSH32 0x8C379A000000000000000000000000000000000000000000000000000000000 DUP2 MSTORE PUSH1 0x4 ADD PUSH2 0x21A8 SWAP1 PUSH2 0x30C6 JUMP JUMPDEST PUSH1 0x40 MLOAD DUP1 SWAP2 SUB SWAP1 REVERT JUMPDEST PUSH2 0x21BB DUP3 DUP3 PUSH2 0x22E0 JUMP JUMPDEST POP POP JUMP JUMPDEST PUSH2 0x21CA DUP4 DUP4 DUP4 PUSH2 0x2435 JUMP JUMPDEST PUSH1 0x0 PUSH20 0xFFFFFFFFFFFFFFFFFFFFFFFFFFFFFFFFFFFFFFFF AND DUP4 PUSH20 0xFFFFFFFFFFFFFFFFFFFFFFFFFFFFFFFFFFFFFFFF AND EQ ISZERO PUSH2 0x2215 JUMPI PUSH2 0x2208 DUP3 PUSH2 0x248D JUMP JUMPDEST PUSH2 0x2210 PUSH2 0x24E0 JUMP JUMPDEST PUSH2 0x2274 JUMP JUMPDEST PUSH1 0x0 PUSH20 0xFFFFFFFFFFFFFFFFFFFFFFFFFFFFFFFFFFFFFFFF AND DUP3 PUSH20 0xFFFFFFFFFFFFFFFFFFFFFFFFFFFFFFFFFFFFFFFF AND EQ ISZERO PUSH2 0x2260 JUMPI PUSH2 0x2253 DUP4 PUSH2 0x248D JUMP JUMPDEST PUSH2 0x225B PUSH2 0x24E0 JUMP JUMPDEST PUSH2 0x2273 JUMP JUMPDEST PUSH2 0x2269 DUP4 PUSH2 0x248D JUMP JUMPDEST PUSH2 0x2272 DUP3 PUSH2 0x248D JUMP JUMPDEST JUMPDEST JUMPDEST POP POP POP JUMP JUMPDEST PUSH1 0x0 PUSH1 0x2 DUP1 DUP4 PUSH2 0x2289 SWAP2 SWAP1 PUSH2 0x3561 JUMP JUMPDEST PUSH1 0x2 DUP6 PUSH2 0x2296 SWAP2 SWAP1 PUSH2 0x3561 JUMP JUMPDEST PUSH2 0x22A0 SWAP2 SWAP1 PUSH2 0x31D8 JUMP JUMPDEST PUSH2 0x22AA SWAP2 SWAP1 PUSH2 0x322E JUMP JUMPDEST PUSH1 0x2 DUP4 PUSH2 0x22B7 SWAP2 SWAP1 PUSH2 0x322E JUMP JUMPDEST PUSH1 0x2 DUP6 PUSH2 0x22C4 SWAP2 SWAP1 PUSH2 0x322E JUMP JUMPDEST PUSH2 0x22CE SWAP2 SWAP1 PUSH2 0x31D8 JUMP JUMPDEST PUSH2 0x22D8 SWAP2 SWAP1 PUSH2 0x31D8 JUMP JUMPDEST SWAP1 POP SWAP3 SWAP2 POP POP JUMP JUMPDEST PUSH1 0x0 PUSH20 0xFFFFFFFFFFFFFFFFFFFFFFFFFFFFFFFFFFFFFFFF AND DUP3 PUSH20 0xFFFFFFFFFFFFFFFFFFFFFFFFFFFFFFFFFFFFFFFF AND EQ ISZERO PUSH2 0x2350 JUMPI PUSH1 0x40 MLOAD PUSH32 0x8C379A000000000000000000000000000000000000000000000000000000000 DUP2 MSTORE PUSH1 0x4 ADD PUSH2 0x2347 SWAP1 PUSH2 0x3146 JUMP JUMPDEST PUSH1 0x40 MLOAD DUP1 SWAP2 SUB SWAP1 REVERT JUMPDEST PUSH2 0x235C PUSH1 0x0 DUP4 DUP4 PUSH2 0x2011 JUMP JUMPDEST DUP1 PUSH1 0x5 PUSH1 0x0 DUP3 DUP3 SLOAD PUSH2 0x236E SWAP2 SWAP1 PUSH2 0x31D8 JUMP JUMPDEST SWAP3 POP POP DUP2 SWAP1 SSTORE POP DUP1 PUSH1 0x3 PUSH1 0x0 DUP5 PUSH20 0xFFFFFFFFFFFFFFFFFFFFFFFFFFFFFFFFFFFFFFFF AND PUSH20 0xFFFFFFFFFFFFFFFFFFFFFFFFFFFFFFFFFFFFFFFF AND DUP2 MSTORE PUSH1 0x20 ADD SWAP1 DUP2 MSTORE PUSH1 0x20 ADD PUSH1 0x0 KECCAK256 PUSH1 0x0 DUP3 DUP3 SLOAD PUSH2 0x23C4 SWAP2 SWAP1 PUSH2 0x31D8 JUMP JUMPDEST SWAP3 POP POP DUP2 SWAP1 SSTORE POP DUP2 PUSH20 0xFFFFFFFFFFFFFFFFFFFFFFFFFFFFFFFFFFFFFFFF AND PUSH1 0x0 PUSH20 0xFFFFFFFFFFFFFFFFFFFFFFFFFFFFFFFFFFFFFFFF AND PUSH32 0xDDF252AD1BE2C89B69C2B068FC378DAA952BA7F163C4A11628F55A4DF523B3EF DUP4 PUSH1 0x40 MLOAD PUSH2 0x2429 SWAP2 SWAP1 PUSH2 0x3186 JUMP JUMPDEST PUSH1 0x40 MLOAD DUP1 SWAP2 SUB SWAP1 LOG3 POP POP JUMP JUMPDEST PUSH2 0x2440 DUP4 DUP4 DUP4 PUSH2 0x24F4 JUMP JUMPDEST PUSH2 0x2448 PUSH2 0xD32 JUMP JUMPDEST ISZERO PUSH2 0x2488 JUMPI PUSH1 0x40 MLOAD PUSH32 0x8C379A000000000000000000000000000000000000000000000000000000000 DUP2 MSTORE PUSH1 0x4 ADD PUSH2 0x247F SWAP1 PUSH2 0x3166 JUMP JUMPDEST PUSH1 0x40 MLOAD DUP1 SWAP2 SUB SWAP1 REVERT JUMPDEST POP POP POP JUMP JUMPDEST PUSH2 0x24DD PUSH1 0x9 PUSH1 0x0 DUP4 PUSH20 0xFFFFFFFFFFFFFFFFFFFFFFFFFFFFFFFFFFFFFFFF AND PUSH20 0xFFFFFFFFFFFFFFFFFFFFFFFFFFFFFFFFFFFFFFFF AND DUP2 MSTORE PUSH1 0x20 ADD SWAP1 DUP2 MSTORE PUSH1 0x20 ADD PUSH1 0x0 KECCAK256 PUSH2 0x24D8 DUP4 PUSH2 0xF18 JUMP JUMPDEST PUSH2 0x24F9 JUMP JUMPDEST POP JUMP JUMPDEST PUSH2 0x24F2 PUSH1 0xA PUSH2 0x24ED PUSH2 0x869 JUMP JUMPDEST PUSH2 0x24F9 JUMP JUMPDEST JUMP JUMPDEST POP POP POP JUMP JUMPDEST PUSH1 0x0 PUSH2 0x2505 PUSH1 0xC PUSH2 0x2021 JUMP JUMPDEST SWAP1 POP DUP1 PUSH2 0x2514 DUP5 PUSH1 0x0 ADD PUSH2 0x2576 JUMP JUMPDEST LT ISZERO PUSH2 0x2571 JUMPI DUP3 PUSH1 0x0 ADD DUP2 SWAP1 DUP1 PUSH1 0x1 DUP2 SLOAD ADD DUP1 DUP3 SSTORE DUP1 SWAP2 POP POP PUSH1 0x1 SWAP1 SUB SWAP1 PUSH1 0x0 MSTORE PUSH1 0x20 PUSH1 0x0 KECCAK256 ADD PUSH1 0x0 SWAP1 SWAP2 SWAP1 SWAP2 SWAP1 SWAP2 POP SSTORE DUP3 PUSH1 0x1 ADD DUP3 SWAP1 DUP1 PUSH1 0x1 DUP2 SLOAD ADD DUP1 DUP3 SSTORE DUP1 SWAP2 POP POP PUSH1 0x1 SWAP1 SUB SWAP1 PUSH1 0x0 MSTORE PUSH1 0x20 PUSH1 0x0 KECCAK256 ADD PUSH1 0x0 SWAP1 SWAP2 SWAP1 SWAP2 SWAP1 SWAP2 POP SSTORE JUMPDEST POP POP POP JUMP JUMPDEST PUSH1 0x0 DUP1 DUP3 DUP1 SLOAD SWAP1 POP EQ ISZERO PUSH2 0x258D JUMPI PUSH1 0x0 SWAP1 POP PUSH2 0x25E4 JUMP JUMPDEST DUP2 PUSH1 0x1 DUP4 DUP1 SLOAD SWAP1 POP PUSH2 0x259F SWAP2 SWAP1 PUSH2 0x342A JUMP JUMPDEST DUP2 SLOAD DUP2 LT PUSH2 0x25D6 JUMPI PUSH32 0x4E487B7100000000000000000000000000000000000000000000000000000000 PUSH1 0x0 MSTORE PUSH1 0x32 PUSH1 0x4 MSTORE PUSH1 0x24 PUSH1 0x0 REVERT JUMPDEST SWAP1 PUSH1 0x0 MSTORE PUSH1 0x20 PUSH1 0x0 KECCAK256 ADD SLOAD SWAP1 POP JUMPDEST SWAP2 SWAP1 POP JUMP JUMPDEST PUSH1 0x0 DUP2 CALLDATALOAD SWAP1 POP PUSH2 0x25F8 DUP2 PUSH2 0x363D JUMP JUMPDEST SWAP3 SWAP2 POP POP JUMP JUMPDEST PUSH1 0x0 DUP2 CALLDATALOAD SWAP1 POP PUSH2 0x260D DUP2 PUSH2 0x3654 JUMP JUMPDEST SWAP3 SWAP2 POP POP JUMP JUMPDEST PUSH1 0x0 PUSH1 0x20 DUP3 DUP5 SUB SLT ISZERO PUSH2 0x2625 JUMPI PUSH1 0x0 DUP1 REVERT JUMPDEST PUSH1 0x0 PUSH2 0x2633 DUP5 DUP3 DUP6 ADD PUSH2 0x25E9 JUMP JUMPDEST SWAP2 POP POP SWAP3 SWAP2 POP POP JUMP JUMPDEST PUSH1 0x0 DUP1 PUSH1 0x40 DUP4 DUP6 SUB SLT ISZERO PUSH2 0x264F JUMPI PUSH1 0x0 DUP1 REVERT JUMPDEST PUSH1 0x0 PUSH2 0x265D DUP6 DUP3 DUP7 ADD PUSH2 0x25E9 JUMP JUMPDEST SWAP3 POP POP PUSH1 0x20 PUSH2 0x266E DUP6 DUP3 DUP7 ADD PUSH2 0x25E9 JUMP JUMPDEST SWAP2 POP POP SWAP3 POP SWAP3 SWAP1 POP JUMP JUMPDEST PUSH1 0x0 DUP1 PUSH1 0x0 PUSH1 0x60 DUP5 DUP7 SUB SLT ISZERO PUSH2 0x268D JUMPI PUSH1 0x0 DUP1 REVERT JUMPDEST PUSH1 0x0 PUSH2 0x269B DUP7 DUP3 DUP8 ADD PUSH2 0x25E9 JUMP JUMPDEST SWAP4 POP POP PUSH1 0x20 PUSH2 0x26AC DUP7 DUP3 DUP8 ADD PUSH2 0x25E9 JUMP JUMPDEST SWAP3 POP POP PUSH1 0x40 PUSH2 0x26BD DUP7 DUP3 DUP8 ADD PUSH2 0x25FE JUMP JUMPDEST SWAP2 POP POP SWAP3 POP SWAP3 POP SWAP3 JUMP JUMPDEST PUSH1 0x0 DUP1 PUSH1 0x40 DUP4 DUP6 SUB SLT ISZERO PUSH2 0x26DA JUMPI PUSH1 0x0 DUP1 REVERT JUMPDEST PUSH1 0x0 PUSH2 0x26E8 DUP6 DUP3 DUP7 ADD PUSH2 0x25E9 JUMP JUMPDEST SWAP3 POP POP PUSH1 0x20 PUSH2 0x26F9 DUP6 DUP3 DUP7 ADD PUSH2 0x25FE JUMP JUMPDEST SWAP2 POP POP SWAP3 POP SWAP3 SWAP1 POP JUMP JUMPDEST PUSH1 0x0 PUSH1 0x20 DUP3 DUP5 SUB SLT ISZERO PUSH2 0x2715 JUMPI PUSH1 0x0 DUP1 REVERT JUMPDEST PUSH1 0x0 PUSH2 0x2723 DUP5 DUP3 DUP6 ADD PUSH2 0x25FE JUMP JUMPDEST SWAP2 POP POP SWAP3 SWAP2 POP POP JUMP JUMPDEST PUSH2 0x2735 DUP2 PUSH2 0x345E JUMP JUMPDEST DUP3 MSTORE POP POP JUMP JUMPDEST PUSH2 0x2744 DUP2 PUSH2 0x3470 JUMP JUMPDEST DUP3 MSTORE POP POP JUMP JUMPDEST PUSH1 0x0 PUSH2 0x2755 DUP3 PUSH2 0x31BC JUMP JUMPDEST PUSH2 0x275F DUP2 DUP6 PUSH2 0x31C7 JUMP JUMPDEST SWAP4 POP PUSH2 0x276F DUP2 DUP6 PUSH1 0x20 DUP7 ADD PUSH2 0x34B3 JUMP JUMPDEST PUSH2 0x2778 DUP2 PUSH2 0x361F JUMP JUMPDEST DUP5 ADD SWAP2 POP POP SWAP3 SWAP2 POP POP JUMP JUMPDEST PUSH1 0x0 PUSH2 0x2790 PUSH1 0x1D DUP4 PUSH2 0x31C7 JUMP JUMPDEST SWAP2 POP PUSH32 0x4552433230536E617073686F743A206E6F6E6578697374656E74206964000000 PUSH1 0x0 DUP4 ADD MSTORE PUSH1 0x20 DUP3 ADD SWAP1 POP SWAP2 SWAP1 POP JUMP JUMPDEST PUSH1 0x0 PUSH2 0x27D0 PUSH1 0x23 DUP4 PUSH2 0x31C7 JUMP JUMPDEST SWAP2 POP PUSH32 0x45524332303A207472616E7366657220746F20746865207A65726F2061646472 PUSH1 0x0 DUP4 ADD MSTORE PUSH32 0x6573730000000000000000000000000000000000000000000000000000000000 PUSH1 0x20 DUP4 ADD MSTORE PUSH1 0x40 DUP3 ADD SWAP1 POP SWAP2 SWAP1 POP JUMP JUMPDEST PUSH1 0x0 PUSH2 0x2836 PUSH1 0x14 DUP4 PUSH2 0x31C7 JUMP JUMPDEST SWAP2 POP PUSH32 0x5061757361626C653A206E6F7420706175736564000000000000000000000000 PUSH1 0x0 DUP4 ADD MSTORE PUSH1 0x20 DUP3 ADD SWAP1 POP SWAP2 SWAP1 POP JUMP JUMPDEST PUSH1 0x0 PUSH2 0x2876 PUSH1 0x22 DUP4 PUSH2 0x31C7 JUMP JUMPDEST SWAP2 POP PUSH32 0x45524332303A206275726E20616D6F756E7420657863656564732062616C616E PUSH1 0x0 DUP4 ADD MSTORE PUSH32 0x6365000000000000000000000000000000000000000000000000000000000000 PUSH1 0x20 DUP4 ADD MSTORE PUSH1 0x40 DUP3 ADD SWAP1 POP SWAP2 SWAP1 POP JUMP JUMPDEST PUSH1 0x0 PUSH2 0x28DC PUSH1 0x26 DUP4 PUSH2 0x31C7 JUMP JUMPDEST SWAP2 POP PUSH32 0x4F776E61626C653A206E6577206F776E657220697320746865207A65726F2061 PUSH1 0x0 DUP4 ADD MSTORE PUSH32 0x6464726573730000000000000000000000000000000000000000000000000000 PUSH1 0x20 DUP4 ADD MSTORE PUSH1 0x40 DUP3 ADD SWAP1 POP SWAP2 SWAP1 POP JUMP JUMPDEST PUSH1 0x0 PUSH2 0x2942 PUSH1 0x22 DUP4 PUSH2 0x31C7 JUMP JUMPDEST SWAP2 POP PUSH32 0x45524332303A20617070726F766520746F20746865207A65726F206164647265 PUSH1 0x0 DUP4 ADD MSTORE PUSH32 0x7373000000000000000000000000000000000000000000000000000000000000 PUSH1 0x20 DUP4 ADD MSTORE PUSH1 0x40 DUP3 ADD SWAP1 POP SWAP2 SWAP1 POP JUMP JUMPDEST PUSH1 0x0 PUSH2 0x29A8 PUSH1 0x26 DUP4 PUSH2 0x31C7 JUMP JUMPDEST SWAP2 POP PUSH32 0x45524332303A207472616E7366657220616D6F756E7420657863656564732062 PUSH1 0x0 DUP4 ADD MSTORE PUSH32 0x616C616E63650000000000000000000000000000000000000000000000000000 PUSH1 0x20 DUP4 ADD MSTORE PUSH1 0x40 DUP3 ADD SWAP1 POP SWAP2 SWAP1 POP JUMP JUMPDEST PUSH1 0x0 PUSH2 0x2A0E PUSH1 0x10 DUP4 PUSH2 0x31C7 JUMP JUMPDEST SWAP2 POP PUSH32 0x5061757361626C653A2070617573656400000000000000000000000000000000 PUSH1 0x0 DUP4 ADD MSTORE PUSH1 0x20 DUP3 ADD SWAP1 POP SWAP2 SWAP1 POP JUMP JUMPDEST PUSH1 0x0 PUSH2 0x2A4E PUSH1 0x18 DUP4 PUSH2 0x31C7 JUMP JUMPDEST SWAP2 POP PUSH32 0x6D73672E73656E646572206D7573742062652061646D696E0000000000000000 PUSH1 0x0 DUP4 ADD MSTORE PUSH1 0x20 DUP3 ADD SWAP1 POP SWAP2 SWAP1 POP JUMP JUMPDEST PUSH1 0x0 PUSH2 0x2A8E PUSH1 0x28 DUP4 PUSH2 0x31C7 JUMP JUMPDEST SWAP2 POP PUSH32 0x45524332303A207472616E7366657220616D6F756E7420657863656564732061 PUSH1 0x0 DUP4 ADD MSTORE PUSH32 0x6C6C6F77616E6365000000000000000000000000000000000000000000000000 PUSH1 0x20 DUP4 ADD MSTORE PUSH1 0x40 DUP3 ADD SWAP1 POP SWAP2 SWAP1 POP JUMP JUMPDEST PUSH1 0x0 PUSH2 0x2AF4 PUSH1 0x20 DUP4 PUSH2 0x31C7 JUMP JUMPDEST SWAP2 POP PUSH32 0x4F776E61626C653A2063616C6C6572206973206E6F7420746865206F776E6572 PUSH1 0x0 DUP4 ADD MSTORE PUSH1 0x20 DUP3 ADD SWAP1 POP SWAP2 SWAP1 POP JUMP JUMPDEST PUSH1 0x0 PUSH2 0x2B34 PUSH1 0x24 DUP4 PUSH2 0x31C7 JUMP JUMPDEST SWAP2 POP PUSH32 0x45524332303A206275726E20616D6F756E74206578636565647320616C6C6F77 PUSH1 0x0 DUP4 ADD MSTORE PUSH32 0x616E636500000000000000000000000000000000000000000000000000000000 PUSH1 0x20 DUP4 ADD MSTORE PUSH1 0x40 DUP3 ADD SWAP1 POP SWAP2 SWAP1 POP JUMP JUMPDEST PUSH1 0x0 PUSH2 0x2B9A PUSH1 0x21 DUP4 PUSH2 0x31C7 JUMP JUMPDEST SWAP2 POP PUSH32 0x45524332303A206275726E2066726F6D20746865207A65726F20616464726573 PUSH1 0x0 DUP4 ADD MSTORE PUSH32 0x7300000000000000000000000000000000000000000000000000000000000000 PUSH1 0x20 DUP4 ADD MSTORE PUSH1 0x40 DUP3 ADD SWAP1 POP SWAP2 SWAP1 POP JUMP JUMPDEST PUSH1 0x0 PUSH2 0x2C00 PUSH1 0x25 DUP4 PUSH2 0x31C7 JUMP JUMPDEST SWAP2 POP PUSH32 0x45524332303A207472616E736665722066726F6D20746865207A65726F206164 PUSH1 0x0 DUP4 ADD MSTORE PUSH32 0x6472657373000000000000000000000000000000000000000000000000000000 PUSH1 0x20 DUP4 ADD MSTORE PUSH1 0x40 DUP3 ADD SWAP1 POP SWAP2 SWAP1 POP JUMP JUMPDEST PUSH1 0x0 PUSH2 0x2C66 PUSH1 0x19 DUP4 PUSH2 0x31C7 JUMP JUMPDEST SWAP2 POP PUSH32 0x45524332304361707065643A2063617020657863656564656400000000000000 PUSH1 0x0 DUP4 ADD MSTORE PUSH1 0x20 DUP3 ADD SWAP1 POP SWAP2 SWAP1 POP JUMP JUMPDEST PUSH1 0x0 PUSH2 0x2CA6 PUSH1 0x24 DUP4 PUSH2 0x31C7 JUMP JUMPDEST SWAP2 POP PUSH32 0x45524332303A20617070726F76652066726F6D20746865207A65726F20616464 PUSH1 0x0 DUP4 ADD MSTORE PUSH32 0x7265737300000000000000000000000000000000000000000000000000000000 PUSH1 0x20 DUP4 ADD MSTORE PUSH1 0x40 DUP3 ADD SWAP1 POP SWAP2 SWAP1 POP JUMP JUMPDEST PUSH1 0x0 PUSH2 0x2D0C PUSH1 0x16 DUP4 PUSH2 0x31C7 JUMP JUMPDEST SWAP2 POP PUSH32 0x4552433230536E617073686F743A206964206973203000000000000000000000 PUSH1 0x0 DUP4 ADD MSTORE PUSH1 0x20 DUP3 ADD SWAP1 POP SWAP2 SWAP1 POP JUMP JUMPDEST PUSH1 0x0 PUSH2 0x2D4C PUSH1 0x25 DUP4 PUSH2 0x31C7 JUMP JUMPDEST SWAP2 POP PUSH32 0x45524332303A2064656372656173656420616C6C6F77616E63652062656C6F77 PUSH1 0x0 DUP4 ADD MSTORE PUSH32 0x207A65726F000000000000000000000000000000000000000000000000000000 PUSH1 0x20 DUP4 ADD MSTORE PUSH1 0x40 DUP3 ADD SWAP1 POP SWAP2 SWAP1 POP JUMP JUMPDEST PUSH1 0x0 PUSH2 0x2DB2 PUSH1 0x1F DUP4 PUSH2 0x31C7 JUMP JUMPDEST SWAP2 POP PUSH32 0x45524332303A206D696E7420746F20746865207A65726F206164647265737300 PUSH1 0x0 DUP4 ADD MSTORE PUSH1 0x20 DUP3 ADD SWAP1 POP SWAP2 SWAP1 POP JUMP JUMPDEST PUSH1 0x0 PUSH2 0x2DF2 PUSH1 0x2A DUP4 PUSH2 0x31C7 JUMP JUMPDEST SWAP2 POP PUSH32 0x45524332305061757361626C653A20746F6B656E207472616E73666572207768 PUSH1 0x0 DUP4 ADD MSTORE PUSH32 0x696C652070617573656400000000000000000000000000000000000000000000 PUSH1 0x20 DUP4 ADD MSTORE PUSH1 0x40 DUP3 ADD SWAP1 POP SWAP2 SWAP1 POP JUMP JUMPDEST PUSH2 0x2E54 DUP2 PUSH2 0x349C JUMP JUMPDEST DUP3 MSTORE POP POP JUMP JUMPDEST PUSH2 0x2E63 DUP2 PUSH2 0x34A6 JUMP JUMPDEST DUP3 MSTORE POP POP JUMP JUMPDEST PUSH1 0x0 PUSH1 0x20 DUP3 ADD SWAP1 POP PUSH2 0x2E7E PUSH1 0x0 DUP4 ADD DUP5 PUSH2 0x272C JUMP JUMPDEST SWAP3 SWAP2 POP POP JUMP JUMPDEST PUSH1 0x0 PUSH1 0x80 DUP3 ADD SWAP1 POP PUSH2 0x2E99 PUSH1 0x0 DUP4 ADD DUP8 PUSH2 0x272C JUMP JUMPDEST PUSH2 0x2EA6 PUSH1 0x20 DUP4 ADD DUP7 PUSH2 0x272C JUMP JUMPDEST PUSH2 0x2EB3 PUSH1 0x40 DUP4 ADD DUP6 PUSH2 0x2E4B JUMP JUMPDEST PUSH2 0x2EC0 PUSH1 0x60 DUP4 ADD DUP5 PUSH2 0x2E4B JUMP JUMPDEST SWAP6 SWAP5 POP POP POP POP POP JUMP JUMPDEST PUSH1 0x0 PUSH1 0x20 DUP3 ADD SWAP1 POP PUSH2 0x2EDE PUSH1 0x0 DUP4 ADD DUP5 PUSH2 0x273B JUMP JUMPDEST SWAP3 SWAP2 POP POP JUMP JUMPDEST PUSH1 0x0 PUSH1 0x20 DUP3 ADD SWAP1 POP DUP2 DUP2 SUB PUSH1 0x0 DUP4 ADD MSTORE PUSH2 0x2EFE DUP2 DUP5 PUSH2 0x274A JUMP JUMPDEST SWAP1 POP SWAP3 SWAP2 POP POP JUMP JUMPDEST PUSH1 0x0 PUSH1 0x20 DUP3 ADD SWAP1 POP DUP2 DUP2 SUB PUSH1 0x0 DUP4 ADD MSTORE PUSH2 0x2F1F DUP2 PUSH2 0x2783 JUMP JUMPDEST SWAP1 POP SWAP2 SWAP1 POP JUMP JUMPDEST PUSH1 0x0 PUSH1 0x20 DUP3 ADD SWAP1 POP DUP2 DUP2 SUB PUSH1 0x0 DUP4 ADD MSTORE PUSH2 0x2F3F DUP2 PUSH2 0x27C3 JUMP JUMPDEST SWAP1 POP SWAP2 SWAP1 POP JUMP JUMPDEST PUSH1 0x0 PUSH1 0x20 DUP3 ADD SWAP1 POP DUP2 DUP2 SUB PUSH1 0x0 DUP4 ADD MSTORE PUSH2 0x2F5F DUP2 PUSH2 0x2829 JUMP JUMPDEST SWAP1 POP SWAP2 SWAP1 POP JUMP JUMPDEST PUSH1 0x0 PUSH1 0x20 DUP3 ADD SWAP1 POP DUP2 DUP2 SUB PUSH1 0x0 DUP4 ADD MSTORE PUSH2 0x2F7F DUP2 PUSH2 0x2869 JUMP JUMPDEST SWAP1 POP SWAP2 SWAP1 POP JUMP JUMPDEST PUSH1 0x0 PUSH1 0x20 DUP3 ADD SWAP1 POP DUP2 DUP2 SUB PUSH1 0x0 DUP4 ADD MSTORE PUSH2 0x2F9F DUP2 PUSH2 0x28CF JUMP JUMPDEST SWAP1 POP SWAP2 SWAP1 POP JUMP JUMPDEST PUSH1 0x0 PUSH1 0x20 DUP3 ADD SWAP1 POP DUP2 DUP2 SUB PUSH1 0x0 DUP4 ADD MSTORE PUSH2 0x2FBF DUP2 PUSH2 0x2935 JUMP JUMPDEST SWAP1 POP SWAP2 SWAP1 POP JUMP JUMPDEST PUSH1 0x0 PUSH1 0x20 DUP3 ADD SWAP1 POP DUP2 DUP2 SUB PUSH1 0x0 DUP4 ADD MSTORE PUSH2 0x2FDF DUP2 PUSH2 0x299B JUMP JUMPDEST SWAP1 POP SWAP2 SWAP1 POP JUMP JUMPDEST PUSH1 0x0 PUSH1 0x20 DUP3 ADD SWAP1 POP DUP2 DUP2 SUB PUSH1 0x0 DUP4 ADD MSTORE PUSH2 0x2FFF DUP2 PUSH2 0x2A01 JUMP JUMPDEST SWAP1 POP SWAP2 SWAP1 POP JUMP JUMPDEST PUSH1 0x0 PUSH1 0x20 DUP3 ADD SWAP1 POP DUP2 DUP2 SUB PUSH1 0x0 DUP4 ADD MSTORE PUSH2 0x301F DUP2 PUSH2 0x2A41 JUMP JUMPDEST SWAP1 POP SWAP2 SWAP1 POP JUMP JUMPDEST PUSH1 0x0 PUSH1 0x20 DUP3 ADD SWAP1 POP DUP2 DUP2 SUB PUSH1 0x0 DUP4 ADD MSTORE PUSH2 0x303F DUP2 PUSH2 0x2A81 JUMP JUMPDEST SWAP1 POP SWAP2 SWAP1 POP JUMP JUMPDEST PUSH1 0x0 PUSH1 0x20 DUP3 ADD SWAP1 POP DUP2 DUP2 SUB PUSH1 0x0 DUP4 ADD MSTORE PUSH2 0x305F DUP2 PUSH2 0x2AE7 JUMP JUMPDEST SWAP1 POP SWAP2 SWAP1 POP JUMP JUMPDEST PUSH1 0x0 PUSH1 0x20 DUP3 ADD SWAP1 POP DUP2 DUP2 SUB PUSH1 0x0 DUP4 ADD MSTORE PUSH2 0x307F DUP2 PUSH2 0x2B27 JUMP JUMPDEST SWAP1 POP SWAP2 SWAP1 POP JUMP JUMPDEST PUSH1 0x0 PUSH1 0x20 DUP3 ADD SWAP1 POP DUP2 DUP2 SUB PUSH1 0x0 DUP4 ADD MSTORE PUSH2 0x309F DUP2 PUSH2 0x2B8D JUMP JUMPDEST SWAP1 POP SWAP2 SWAP1 POP JUMP JUMPDEST PUSH1 0x0 PUSH1 0x20 DUP3 ADD SWAP1 POP DUP2 DUP2 SUB PUSH1 0x0 DUP4 ADD MSTORE PUSH2 0x30BF DUP2 PUSH2 0x2BF3 JUMP JUMPDEST SWAP1 POP SWAP2 SWAP1 POP JUMP JUMPDEST PUSH1 0x0 PUSH1 0x20 DUP3 ADD SWAP1 POP DUP2 DUP2 SUB PUSH1 0x0 DUP4 ADD MSTORE PUSH2 0x30DF DUP2 PUSH2 0x2C59 JUMP JUMPDEST SWAP1 POP SWAP2 SWAP1 POP JUMP JUMPDEST PUSH1 0x0 PUSH1 0x20 DUP3 ADD SWAP1 POP DUP2 DUP2 SUB PUSH1 0x0 DUP4 ADD MSTORE PUSH2 0x30FF DUP2 PUSH2 0x2C99 JUMP JUMPDEST SWAP1 POP SWAP2 SWAP1 POP JUMP JUMPDEST PUSH1 0x0 PUSH1 0x20 DUP3 ADD SWAP1 POP DUP2 DUP2 SUB PUSH1 0x0 DUP4 ADD MSTORE PUSH2 0x311F DUP2 PUSH2 0x2CFF JUMP JUMPDEST SWAP1 POP SWAP2 SWAP1 POP JUMP JUMPDEST PUSH1 0x0 PUSH1 0x20 DUP3 ADD SWAP1 POP DUP2 DUP2 SUB PUSH1 0x0 DUP4 ADD MSTORE PUSH2 0x313F DUP2 PUSH2 0x2D3F JUMP JUMPDEST SWAP1 POP SWAP2 SWAP1 POP JUMP JUMPDEST PUSH1 0x0 PUSH1 0x20 DUP3 ADD SWAP1 POP DUP2 DUP2 SUB PUSH1 0x0 DUP4 ADD MSTORE PUSH2 0x315F DUP2 PUSH2 0x2DA5 JUMP JUMPDEST SWAP1 POP SWAP2 SWAP1 POP JUMP JUMPDEST PUSH1 0x0 PUSH1 0x20 DUP3 ADD SWAP1 POP DUP2 DUP2 SUB PUSH1 0x0 DUP4 ADD MSTORE PUSH2 0x317F DUP2 PUSH2 0x2DE5 JUMP JUMPDEST SWAP1 POP SWAP2 SWAP1 POP JUMP JUMPDEST PUSH1 0x0 PUSH1 0x20 DUP3 ADD SWAP1 POP PUSH2 0x319B PUSH1 0x0 DUP4 ADD DUP5 PUSH2 0x2E4B JUMP JUMPDEST SWAP3 SWAP2 POP POP JUMP JUMPDEST PUSH1 0x0 PUSH1 0x20 DUP3 ADD SWAP1 POP PUSH2 0x31B6 PUSH1 0x0 DUP4 ADD DUP5 PUSH2 0x2E5A JUMP JUMPDEST SWAP3 SWAP2 POP POP JUMP JUMPDEST PUSH1 0x0 DUP2 MLOAD SWAP1 POP SWAP2 SWAP1 POP JUMP JUMPDEST PUSH1 0x0 DUP3 DUP3 MSTORE PUSH1 0x20 DUP3 ADD SWAP1 POP SWAP3 SWAP2 POP POP JUMP JUMPDEST PUSH1 0x0 PUSH2 0x31E3 DUP3 PUSH2 0x349C JUMP JUMPDEST SWAP2 POP PUSH2 0x31EE DUP4 PUSH2 0x349C JUMP JUMPDEST SWAP3 POP DUP3 PUSH32 0xFFFFFFFFFFFFFFFFFFFFFFFFFFFFFFFFFFFFFFFFFFFFFFFFFFFFFFFFFFFFFFFF SUB DUP3 GT ISZERO PUSH2 0x3223 JUMPI PUSH2 0x3222 PUSH2 0x3592 JUMP JUMPDEST JUMPDEST DUP3 DUP3 ADD SWAP1 POP SWAP3 SWAP2 POP POP JUMP JUMPDEST PUSH1 0x0 PUSH2 0x3239 DUP3 PUSH2 0x349C JUMP JUMPDEST SWAP2 POP PUSH2 0x3244 DUP4 PUSH2 0x349C JUMP JUMPDEST SWAP3 POP DUP3 PUSH2 0x3254 JUMPI PUSH2 0x3253 PUSH2 0x35C1 JUMP JUMPDEST JUMPDEST DUP3 DUP3 DIV SWAP1 POP SWAP3 SWAP2 POP POP JUMP JUMPDEST PUSH1 0x0 DUP1 DUP3 SWAP2 POP DUP4 SWAP1 POP JUMPDEST PUSH1 0x1 DUP6 GT ISZERO PUSH2 0x32A9 JUMPI DUP1 DUP7 DIV DUP2 GT ISZERO PUSH2 0x3285 JUMPI PUSH2 0x3284 PUSH2 0x3592 JUMP JUMPDEST JUMPDEST PUSH1 0x1 DUP6 AND ISZERO PUSH2 0x3294 JUMPI DUP1 DUP3 MUL SWAP2 POP JUMPDEST DUP1 DUP2 MUL SWAP1 POP PUSH2 0x32A2 DUP6 PUSH2 0x3630 JUMP JUMPDEST SWAP5 POP PUSH2 0x3269 JUMP JUMPDEST SWAP5 POP SWAP5 SWAP3 POP POP POP JUMP JUMPDEST PUSH1 0x0 PUSH2 0x32BD DUP3 PUSH2 0x349C JUMP JUMPDEST SWAP2 POP PUSH2 0x32C8 DUP4 PUSH2 0x349C JUMP JUMPDEST SWAP3 POP PUSH2 0x32F5 PUSH32 0xFFFFFFFFFFFFFFFFFFFFFFFFFFFFFFFFFFFFFFFFFFFFFFFFFFFFFFFFFFFFFFFF DUP5 DUP5 PUSH2 0x32FD JUMP JUMPDEST SWAP1 POP SWAP3 SWAP2 POP POP JUMP JUMPDEST PUSH1 0x0 DUP3 PUSH2 0x330D JUMPI PUSH1 0x1 SWAP1 POP PUSH2 0x33C9 JUMP JUMPDEST DUP2 PUSH2 0x331B JUMPI PUSH1 0x0 SWAP1 POP PUSH2 0x33C9 JUMP JUMPDEST DUP2 PUSH1 0x1 DUP2 EQ PUSH2 0x3331 JUMPI PUSH1 0x2 DUP2 EQ PUSH2 0x333B JUMPI PUSH2 0x336A JUMP JUMPDEST PUSH1 0x1 SWAP2 POP POP PUSH2 0x33C9 JUMP JUMPDEST PUSH1 0xFF DUP5 GT ISZERO PUSH2 0x334D JUMPI PUSH2 0x334C PUSH2 0x3592 JUMP JUMPDEST JUMPDEST DUP4 PUSH1 0x2 EXP SWAP2 POP DUP5 DUP3 GT ISZERO PUSH2 0x3364 JUMPI PUSH2 0x3363 PUSH2 0x3592 JUMP JUMPDEST JUMPDEST POP PUSH2 0x33C9 JUMP JUMPDEST POP PUSH1 0x20 DUP4 LT PUSH2 0x133 DUP4 LT AND PUSH1 0x4E DUP5 LT PUSH1 0xB DUP5 LT AND OR ISZERO PUSH2 0x339F JUMPI DUP3 DUP3 EXP SWAP1 POP DUP4 DUP2 GT ISZERO PUSH2 0x339A JUMPI PUSH2 0x3399 PUSH2 0x3592 JUMP JUMPDEST JUMPDEST PUSH2 0x33C9 JUMP JUMPDEST PUSH2 0x33AC DUP5 DUP5 DUP5 PUSH1 0x1 PUSH2 0x325F JUMP JUMPDEST SWAP3 POP SWAP1 POP DUP2 DUP5 DIV DUP2 GT ISZERO PUSH2 0x33C3 JUMPI PUSH2 0x33C2 PUSH2 0x3592 JUMP JUMPDEST JUMPDEST DUP2 DUP2 MUL SWAP1 POP JUMPDEST SWAP4 SWAP3 POP POP POP JUMP JUMPDEST PUSH1 0x0 PUSH2 0x33DB DUP3 PUSH2 0x349C JUMP JUMPDEST SWAP2 POP PUSH2 0x33E6 DUP4 PUSH2 0x349C JUMP JUMPDEST SWAP3 POP DUP2 PUSH32 0xFFFFFFFFFFFFFFFFFFFFFFFFFFFFFFFFFFFFFFFFFFFFFFFFFFFFFFFFFFFFFFFF DIV DUP4 GT DUP3 ISZERO ISZERO AND ISZERO PUSH2 0x341F JUMPI PUSH2 0x341E PUSH2 0x3592 JUMP JUMPDEST JUMPDEST DUP3 DUP3 MUL SWAP1 POP SWAP3 SWAP2 POP POP JUMP JUMPDEST PUSH1 0x0 PUSH2 0x3435 DUP3 PUSH2 0x349C JUMP JUMPDEST SWAP2 POP PUSH2 0x3440 DUP4 PUSH2 0x349C JUMP JUMPDEST SWAP3 POP DUP3 DUP3 LT ISZERO PUSH2 0x3453 JUMPI PUSH2 0x3452 PUSH2 0x3592 JUMP JUMPDEST JUMPDEST DUP3 DUP3 SUB SWAP1 POP SWAP3 SWAP2 POP POP JUMP JUMPDEST PUSH1 0x0 PUSH2 0x3469 DUP3 PUSH2 0x347C JUMP JUMPDEST SWAP1 POP SWAP2 SWAP1 POP JUMP JUMPDEST PUSH1 0x0 DUP2 ISZERO ISZERO SWAP1 POP SWAP2 SWAP1 POP JUMP JUMPDEST PUSH1 0x0 PUSH20 0xFFFFFFFFFFFFFFFFFFFFFFFFFFFFFFFFFFFFFFFF DUP3 AND SWAP1 POP SWAP2 SWAP1 POP JUMP JUMPDEST PUSH1 0x0 DUP2 SWAP1 POP SWAP2 SWAP1 POP JUMP JUMPDEST PUSH1 0x0 PUSH1 0xFF DUP3 AND SWAP1 POP SWAP2 SWAP1 POP JUMP JUMPDEST PUSH1 0x0 JUMPDEST DUP4 DUP2 LT ISZERO PUSH2 0x34D1 JUMPI DUP1 DUP3 ADD MLOAD DUP2 DUP5 ADD MSTORE PUSH1 0x20 DUP2 ADD SWAP1 POP PUSH2 0x34B6 JUMP JUMPDEST DUP4 DUP2 GT ISZERO PUSH2 0x34E0 JUMPI PUSH1 0x0 DUP5 DUP5 ADD MSTORE JUMPDEST POP POP POP POP JUMP JUMPDEST PUSH1 0x0 PUSH1 0x2 DUP3 DIV SWAP1 POP PUSH1 0x1 DUP3 AND DUP1 PUSH2 0x34FE JUMPI PUSH1 0x7F DUP3 AND SWAP2 POP JUMPDEST PUSH1 0x20 DUP3 LT DUP2 EQ ISZERO PUSH2 0x3512 JUMPI PUSH2 0x3511 PUSH2 0x35F0 JUMP JUMPDEST JUMPDEST POP SWAP2 SWAP1 POP JUMP JUMPDEST PUSH1 0x0 PUSH2 0x3523 DUP3 PUSH2 0x349C JUMP JUMPDEST SWAP2 POP PUSH32 0xFFFFFFFFFFFFFFFFFFFFFFFFFFFFFFFFFFFFFFFFFFFFFFFFFFFFFFFFFFFFFFFF DUP3 EQ ISZERO PUSH2 0x3556 JUMPI PUSH2 0x3555 PUSH2 0x3592 JUMP JUMPDEST JUMPDEST PUSH1 0x1 DUP3 ADD SWAP1 POP SWAP2 SWAP1 POP JUMP JUMPDEST PUSH1 0x0 PUSH2 0x356C DUP3 PUSH2 0x349C JUMP JUMPDEST SWAP2 POP PUSH2 0x3577 DUP4 PUSH2 0x349C JUMP JUMPDEST SWAP3 POP DUP3 PUSH2 0x3587 JUMPI PUSH2 0x3586 PUSH2 0x35C1 JUMP JUMPDEST JUMPDEST DUP3 DUP3 MOD SWAP1 POP SWAP3 SWAP2 POP POP JUMP JUMPDEST PUSH32 0x4E487B7100000000000000000000000000000000000000000000000000000000 PUSH1 0x0 MSTORE PUSH1 0x11 PUSH1 0x4 MSTORE PUSH1 0x24 PUSH1 0x0 REVERT JUMPDEST PUSH32 0x4E487B7100000000000000000000000000000000000000000000000000000000 PUSH1 0x0 MSTORE PUSH1 0x12 PUSH1 0x4 MSTORE PUSH1 0x24 PUSH1 0x0 REVERT JUMPDEST PUSH32 0x4E487B7100000000000000000000000000000000000000000000000000000000 PUSH1 0x0 MSTORE PUSH1 0x22 PUSH1 0x4 MSTORE PUSH1 0x24 PUSH1 0x0 REVERT JUMPDEST PUSH1 0x0 PUSH1 0x1F NOT PUSH1 0x1F DUP4 ADD AND SWAP1 POP SWAP2 SWAP1 POP JUMP JUMPDEST PUSH1 0x0 DUP2 PUSH1 0x1 SHR SWAP1 POP SWAP2 SWAP1 POP JUMP JUMPDEST PUSH2 0x3646 DUP2 PUSH2 0x345E JUMP JUMPDEST DUP2 EQ PUSH2 0x3651 JUMPI PUSH1 0x0 DUP1 REVERT JUMPDEST POP JUMP JUMPDEST PUSH2 0x365D DUP2 PUSH2 0x349C JUMP JUMPDEST DUP2 EQ PUSH2 0x3668 JUMPI PUSH1 0x0 DUP1 REVERT JUMPDEST POP JUMP INVALID LOG2 PUSH5 0x6970667358 0x22 SLT KECCAK256 0xB1 0xC9 AND 0x2D PUSH22 0x3199AE41E1FD47B1FC179D2F8939C6533B9A53974EFD SMOD 0xA5 0xF9 0xD7 0x1F PUSH5 0x736F6C6343 STOP ADDMOD STOP STOP CALLER "
		},
		"gasEstimates": {
			"creation": {
				"codeDepositCost": "2797000",
				"executionCost": "infinite",
				"totalCost": "infinite"
			},
			"external": {
				"addAdmin(address)": "66303",
				"allowance(address,address)": "infinite",
				"approve(address,uint256)": "infinite",
				"balanceOf(address)": "1631",
				"balanceOfAt(address,uint256)": "infinite",
				"burn(uint256)": "infinite",
				"burnByAdmin(address,uint256)": "infinite",
				"burnFrom(address,uint256)": "infinite",
				"cap()": "infinite",
				"decimals()": "1225",
				"decreaseAllowance(address,uint256)": "infinite",
				"increaseAllowance(address,uint256)": "infinite",
				"initial_supply()": "1219",
				"isAdmin(address)": "1695",
				"mintByAdmin(address,uint256)": "infinite",
				"name()": "infinite",
				"owner()": "1333",
				"pause()": "infinite",
				"paused()": "1225",
				"removeAdmin(address)": "infinite",
				"renounceOwnership()": "24374",
				"symbol()": "infinite",
				"totalSupply()": "1183",
				"totalSupplyAt(uint256)": "infinite",
				"transfer(address,uint256)": "infinite",
				"transferFrom(address,address,uint256)": "infinite",
				"transferOwnership(address)": "24788",
				"unpause()": "infinite"
			},
			"internal": {
				"_beforeTokenTransfer(address,address,uint256)": "infinite",
				"_mint(address,uint256)": "infinite"
			}
		},
		"methodIdentifiers": {
			"addAdmin(address)": "70480275",
			"allowance(address,address)": "dd62ed3e",
			"approve(address,uint256)": "095ea7b3",
			"balanceOf(address)": "70a08231",
			"balanceOfAt(address,uint256)": "4ee2cd7e",
			"burn(uint256)": "42966c68",
			"burnByAdmin(address,uint256)": "5ad748e4",
			"burnFrom(address,uint256)": "79cc6790",
			"cap()": "355274ea",
			"decimals()": "313ce567",
			"decreaseAllowance(address,uint256)": "a457c2d7",
			"increaseAllowance(address,uint256)": "39509351",
			"initial_supply()": "2405e3c6",
			"isAdmin(address)": "24d7806c",
			"mintByAdmin(address,uint256)": "af3da2f4",
			"name()": "06fdde03",
			"owner()": "8da5cb5b",
			"pause()": "8456cb59",
			"paused()": "5c975abb",
			"removeAdmin(address)": "1785f53c",
			"renounceOwnership()": "715018a6",
			"symbol()": "95d89b41",
			"totalSupply()": "18160ddd",
			"totalSupplyAt(uint256)": "981b24d0",
			"transfer(address,uint256)": "a9059cbb",
			"transferFrom(address,address,uint256)": "23b872dd",
			"transferOwnership(address)": "f2fde38b",
			"unpause()": "3f4ba83a"
		}
	},
	"abi": [
		{
			"inputs": [
				{
					"internalType": "string",
					"name": "_setName",
					"type": "string"
				},
				{
					"internalType": "string",
					"name": "_setSymbol",
					"type": "string"
				},
				{
					"internalType": "uint8",
					"name": "_setDecimals",
					"type": "uint8"
				},
				{
					"internalType": "uint256",
					"name": "_setCap",
					"type": "uint256"
				}
			],
			"stateMutability": "nonpayable",
			"type": "constructor"
		},
		{
			"anonymous": false,
			"inputs": [
				{
					"indexed": true,
					"internalType": "address",
					"name": "newAdmin",
					"type": "address"
				}
			],
			"name": "AddAdminLog",
			"type": "event"
		},
		{
			"anonymous": false,
			"inputs": [
				{
					"indexed": true,
					"internalType": "address",
					"name": "owner",
					"type": "address"
				},
				{
					"indexed": true,
					"internalType": "address",
					"name": "spender",
					"type": "address"
				},
				{
					"indexed": false,
					"internalType": "uint256",
					"name": "value",
					"type": "uint256"
				}
			],
			"name": "Approval",
			"type": "event"
		},
		{
			"anonymous": false,
			"inputs": [
				{
					"indexed": false,
					"internalType": "address",
					"name": "admin",
					"type": "address"
				},
				{
					"indexed": false,
					"internalType": "address",
					"name": "account",
					"type": "address"
				},
				{
					"indexed": false,
					"internalType": "uint256",
					"name": "amount",
					"type": "uint256"
				},
				{
					"indexed": false,
					"internalType": "uint256",
					"name": "timeStamp",
					"type": "uint256"
				}
			],
			"name": "BurnByAdmin",
			"type": "event"
		},
		{
			"anonymous": false,
			"inputs": [
				{
					"indexed": false,
					"internalType": "address",
					"name": "admin",
					"type": "address"
				},
				{
					"indexed": false,
					"internalType": "address",
					"name": "to",
					"type": "address"
				},
				{
					"indexed": false,
					"internalType": "uint256",
					"name": "amount",
					"type": "uint256"
				},
				{
					"indexed": false,
					"internalType": "uint256",
					"name": "timeStamp",
					"type": "uint256"
				}
			],
			"name": "MintByAdmin",
			"type": "event"
		},
		{
			"anonymous": false,
			"inputs": [
				{
					"indexed": true,
					"internalType": "address",
					"name": "previousOwner",
					"type": "address"
				},
				{
					"indexed": true,
					"internalType": "address",
					"name": "newOwner",
					"type": "address"
				}
			],
			"name": "OwnershipTransferred",
			"type": "event"
		},
		{
			"anonymous": false,
			"inputs": [
				{
					"indexed": false,
					"internalType": "address",
					"name": "account",
					"type": "address"
				}
			],
			"name": "Paused",
			"type": "event"
		},
		{
			"anonymous": false,
			"inputs": [
				{
					"indexed": true,
					"internalType": "address",
					"name": "removedAdmin",
					"type": "address"
				}
			],
			"name": "RemoveAdminLog",
			"type": "event"
		},
		{
			"anonymous": false,
			"inputs": [
				{
					"indexed": false,
					"internalType": "uint256",
					"name": "id",
					"type": "uint256"
				}
			],
			"name": "Snapshot",
			"type": "event"
		},
		{
			"anonymous": false,
			"inputs": [
				{
					"indexed": true,
					"internalType": "address",
					"name": "from",
					"type": "address"
				},
				{
					"indexed": true,
					"internalType": "address",
					"name": "to",
					"type": "address"
				},
				{
					"indexed": false,
					"internalType": "uint256",
					"name": "value",
					"type": "uint256"
				}
			],
			"name": "Transfer",
			"type": "event"
		},
		{
			"anonymous": false,
			"inputs": [
				{
					"indexed": false,
					"internalType": "address",
					"name": "account",
					"type": "address"
				}
			],
			"name": "Unpaused",
			"type": "event"
		},
		{
			"inputs": [
				{
					"internalType": "address",
					"name": "_address",
					"type": "address"
				}
			],
			"name": "addAdmin",
			"outputs": [],
			"stateMutability": "nonpayable",
			"type": "function"
		},
		{
			"inputs": [
				{
					"internalType": "address",
					"name": "owner",
					"type": "address"
				},
				{
					"internalType": "address",
					"name": "spender",
					"type": "address"
				}
			],
			"name": "allowance",
			"outputs": [
				{
					"internalType": "uint256",
					"name": "",
					"type": "uint256"
				}
			],
			"stateMutability": "view",
			"type": "function"
		},
		{
			"inputs": [
				{
					"internalType": "address",
					"name": "spender",
					"type": "address"
				},
				{
					"internalType": "uint256",
					"name": "amount",
					"type": "uint256"
				}
			],
			"name": "approve",
			"outputs": [
				{
					"internalType": "bool",
					"name": "",
					"type": "bool"
				}
			],
			"stateMutability": "nonpayable",
			"type": "function"
		},
		{
			"inputs": [
				{
					"internalType": "address",
					"name": "account",
					"type": "address"
				}
			],
			"name": "balanceOf",
			"outputs": [
				{
					"internalType": "uint256",
					"name": "",
					"type": "uint256"
				}
			],
			"stateMutability": "view",
			"type": "function"
		},
		{
			"inputs": [
				{
					"internalType": "address",
					"name": "account",
					"type": "address"
				},
				{
					"internalType": "uint256",
					"name": "snapshotId",
					"type": "uint256"
				}
			],
			"name": "balanceOfAt",
			"outputs": [
				{
					"internalType": "uint256",
					"name": "",
					"type": "uint256"
				}
			],
			"stateMutability": "view",
			"type": "function"
		},
		{
			"inputs": [
				{
					"internalType": "uint256",
					"name": "amount",
					"type": "uint256"
				}
			],
			"name": "burn",
			"outputs": [],
			"stateMutability": "nonpayable",
			"type": "function"
		},
		{
			"inputs": [
				{
					"internalType": "address",
					"name": "_account",
					"type": "address"
				},
				{
					"internalType": "uint256",
					"name": "_amount",
					"type": "uint256"
				}
			],
			"name": "burnByAdmin",
			"outputs": [],
			"stateMutability": "nonpayable",
			"type": "function"
		},
		{
			"inputs": [
				{
					"internalType": "address",
					"name": "account",
					"type": "address"
				},
				{
					"internalType": "uint256",
					"name": "amount",
					"type": "uint256"
				}
			],
			"name": "burnFrom",
			"outputs": [],
			"stateMutability": "nonpayable",
			"type": "function"
		},
		{
			"inputs": [],
			"name": "cap",
			"outputs": [
				{
					"internalType": "uint256",
					"name": "",
					"type": "uint256"
				}
			],
			"stateMutability": "view",
			"type": "function"
		},
		{
			"inputs": [],
			"name": "decimals",
			"outputs": [
				{
					"internalType": "uint8",
					"name": "",
					"type": "uint8"
				}
			],
			"stateMutability": "view",
			"type": "function"
		},
		{
			"inputs": [
				{
					"internalType": "address",
					"name": "spender",
					"type": "address"
				},
				{
					"internalType": "uint256",
					"name": "subtractedValue",
					"type": "uint256"
				}
			],
			"name": "decreaseAllowance",
			"outputs": [
				{
					"internalType": "bool",
					"name": "",
					"type": "bool"
				}
			],
			"stateMutability": "nonpayable",
			"type": "function"
		},
		{
			"inputs": [
				{
					"internalType": "address",
					"name": "spender",
					"type": "address"
				},
				{
					"internalType": "uint256",
					"name": "addedValue",
					"type": "uint256"
				}
			],
			"name": "increaseAllowance",
			"outputs": [
				{
					"internalType": "bool",
					"name": "",
					"type": "bool"
				}
			],
			"stateMutability": "nonpayable",
			"type": "function"
		},
		{
			"inputs": [],
			"name": "initial_supply",
			"outputs": [
				{
					"internalType": "uint256",
					"name": "",
					"type": "uint256"
				}
			],
			"stateMutability": "view",
			"type": "function"
		},
		{
			"inputs": [
				{
					"internalType": "address",
					"name": "_address",
					"type": "address"
				}
			],
			"name": "isAdmin",
			"outputs": [
				{
					"internalType": "bool",
					"name": "",
					"type": "bool"
				}
			],
			"stateMutability": "view",
			"type": "function"
		},
		{
			"inputs": [
				{
					"internalType": "address",
					"name": "_to",
					"type": "address"
				},
				{
					"internalType": "uint256",
					"name": "_amount",
					"type": "uint256"
				}
			],
			"name": "mintByAdmin",
			"outputs": [],
			"stateMutability": "nonpayable",
			"type": "function"
		},
		{
			"inputs": [],
			"name": "name",
			"outputs": [
				{
					"internalType": "string",
					"name": "",
					"type": "string"
				}
			],
			"stateMutability": "view",
			"type": "function"
		},
		{
			"inputs": [],
			"name": "owner",
			"outputs": [
				{
					"internalType": "address",
					"name": "",
					"type": "address"
				}
			],
			"stateMutability": "view",
			"type": "function"
		},
		{
			"inputs": [],
			"name": "pause",
			"outputs": [],
			"stateMutability": "nonpayable",
			"type": "function"
		},
		{
			"inputs": [],
			"name": "paused",
			"outputs": [
				{
					"internalType": "bool",
					"name": "",
					"type": "bool"
				}
			],
			"stateMutability": "view",
			"type": "function"
		},
		{
			"inputs": [
				{
					"internalType": "address",
					"name": "_address",
					"type": "address"
				}
			],
			"name": "removeAdmin",
			"outputs": [],
			"stateMutability": "nonpayable",
			"type": "function"
		},
		{
			"inputs": [],
			"name": "renounceOwnership",
			"outputs": [],
			"stateMutability": "nonpayable",
			"type": "function"
		},
		{
			"inputs": [],
			"name": "symbol",
			"outputs": [
				{
					"internalType": "string",
					"name": "",
					"type": "string"
				}
			],
			"stateMutability": "view",
			"type": "function"
		},
		{
			"inputs": [],
			"name": "totalSupply",
			"outputs": [
				{
					"internalType": "uint256",
					"name": "",
					"type": "uint256"
				}
			],
			"stateMutability": "view",
			"type": "function"
		},
		{
			"inputs": [
				{
					"internalType": "uint256",
					"name": "snapshotId",
					"type": "uint256"
				}
			],
			"name": "totalSupplyAt",
			"outputs": [
				{
					"internalType": "uint256",
					"name": "",
					"type": "uint256"
				}
			],
			"stateMutability": "view",
			"type": "function"
		},
		{
			"inputs": [
				{
					"internalType": "address",
					"name": "recipient",
					"type": "address"
				},
				{
					"internalType": "uint256",
					"name": "amount",
					"type": "uint256"
				}
			],
			"name": "transfer",
			"outputs": [
				{
					"internalType": "bool",
					"name": "",
					"type": "bool"
				}
			],
			"stateMutability": "nonpayable",
			"type": "function"
		},
		{
			"inputs": [
				{
					"internalType": "address",
					"name": "sender",
					"type": "address"
				},
				{
					"internalType": "address",
					"name": "recipient",
					"type": "address"
				},
				{
					"internalType": "uint256",
					"name": "amount",
					"type": "uint256"
				}
			],
			"name": "transferFrom",
			"outputs": [
				{
					"internalType": "bool",
					"name": "",
					"type": "bool"
				}
			],
			"stateMutability": "nonpayable",
			"type": "function"
		},
		{
			"inputs": [
				{
					"internalType": "address",
					"name": "newOwner",
					"type": "address"
				}
			],
			"name": "transferOwnership",
			"outputs": [],
			"stateMutability": "nonpayable",
			"type": "function"
		},
		{
			"inputs": [],
			"name": "unpause",
			"outputs": [],
			"stateMutability": "nonpayable",
			"type": "function"
		}
	]
}