{
	"data": {
		"bytecode": {
			"linkReferences": {},
			"object": "60806040523480156200001157600080fd5b5060405162001c1e38038062001c1e8339810160408190526200003491620003de565b838360006200004262000165565b600080546001600160a01b0319166001600160a01b0383169081178255604051929350917f8be0079c531659141344cd1fd0a4f28419497f9722a3daafe3b4186f6b6457e0908290a3506001805480820182557fb10e2d527612073b26eecdfd717e6a320cf44b4afac2b0732d9fcbe2b7fa0cf60180546001600160a01b031916339081179091556000908152600260209081526040909120805460ff19169092179091558251620000fb91600691908501906200028d565b508051620001119060079060208401906200028d565b50506008805460ff19169055506200012e60ff8216600a62000559565b6200013a90836200064e565b6009819055600a805460ff191660ff84161790556200015b90339062000169565b50505050620006d9565b3390565b6001600160a01b0382166200019b5760405162461bcd60e51b8152600401620001929062000467565b60405180910390fd5b620001a9600083836200023d565b8060056000828254620001bd9190620004f1565b90915550506001600160a01b03821660009081526003602052604081208054839290620001ec908490620004f1565b90915550506040516001600160a01b038316906000907fddf252ad1be2c89b69c2b068fc378daa952ba7f163c4a11628f55a4df523b3ef9062000231908590620004e8565b60405180910390a35050565b620002558383836200027f60201b62000a821760201c565b6200025f62000284565b156200027f5760405162461bcd60e51b815260040162000192906200049e565b505050565b60085460ff1690565b8280546200029b9062000670565b90600052602060002090601f016020900481019282620002bf57600085556200030a565b82601f10620002da57805160ff19168380011785556200030a565b828001600101855582156200030a579182015b828111156200030a578251825591602001919060010190620002ed565b50620003189291506200031c565b5090565b5b808211156200031857600081556001016200031d565b600082601f83011262000344578081fd5b81516001600160401b0380821115620003615762000361620006c3565b6040516020601f8401601f1916820181018381118382101715620003895762000389620006c3565b6040528382528584018101871015620003a0578485fd5b8492505b83831015620003c35785830181015182840182015291820191620003a4565b83831115620003d457848185840101525b5095945050505050565b60008060008060808587031215620003f4578384fd5b84516001600160401b03808211156200040b578586fd5b620004198883890162000333565b955060208701519150808211156200042f578485fd5b506200043e8782880162000333565b93505060408501519150606085015160ff811681146200045c578182fd5b939692955090935050565b6020808252601f908201527f45524332303a206d696e7420746f20746865207a65726f206164647265737300604082015260600190565b6020808252602a908201527f45524332305061757361626c653a20746f6b656e207472616e736665722077686040820152691a5b19481c185d5cd95960b21b606082015260800190565b90815260200190565b60008219821115620005075762000507620006ad565b500190565b80825b600180861162000520575062000550565b818704821115620005355762000535620006ad565b808616156200054357918102915b9490941c9380026200050f565b94509492505050565b60006200056a600019848462000571565b9392505050565b60008262000582575060016200056a565b8162000591575060006200056a565b8160018114620005aa5760028114620005b557620005e9565b60019150506200056a565b60ff841115620005c957620005c9620006ad565b6001841b915084821115620005e257620005e2620006ad565b506200056a565b5060208310610133831016604e8410600b841016171562000621575081810a838111156200061b576200061b620006ad565b6200056a565b6200063084848460016200050c565b808604821115620006455762000645620006ad565b02949350505050565b60008160001904831182151516156200066b576200066b620006ad565b500290565b6002810460018216806200068557607f821691505b60208210811415620006a757634e487b7160e01b600052602260045260246000fd5b50919050565b634e487b7160e01b600052601160045260246000fd5b634e487b7160e01b600052604160045260246000fd5b61153580620006e96000396000f3fe608060405234801561001057600080fd5b506004361061014d5760003560e01c806342966c68116100c35780638da5cb5b1161007c5780638da5cb5b1461027c57806395d89b4114610291578063a457c2d714610299578063a9059cbb146102ac578063dd62ed3e146102bf578063f2fde38b146102d25761014d565b806342966c681461022b5780635c975abb1461023e578063704802751461024657806370a0823114610259578063715018a61461026c5780638456cb59146102745761014d565b806324d7806c1161011557806324d7806c146101cd5780632ff2e9dc146101e0578063313ce567146101e857806339509351146101fd5780633f4ba83a1461021057806340c10f19146102185761014d565b806306fdde0314610152578063095ea7b3146101705780631785f53c1461019057806318160ddd146101a557806323b872dd146101ba575b600080fd5b61015a6102e5565b604051610167919061100b565b60405180910390f35b61018361017e366004610fab565b610377565b6040516101679190611000565b6101a361019e366004610f1d565b610394565b005b6101ad6104c7565b604051610167919061144d565b6101836101c8366004610f70565b6104cd565b6101836101db366004610f1d565b610564565b6101ad610586565b6101f061058c565b6040516101679190611456565b61018361020b366004610fab565b610595565b6101a36105e4565b6101a3610226366004610fab565b610651565b6101a3610239366004610fd4565b6106b4565b6101836106e6565b6101a3610254366004610f1d565b6106ef565b6101ad610267366004610f1d565b6107da565b6101a36107f5565b6101a361087e565b6102846108ea565b6040516101679190610fec565b61015a6108f9565b6101836102a7366004610fab565b610908565b6101836102ba366004610fab565b610983565b6101ad6102cd366004610f3e565b610997565b6101a36102e0366004610f1d565b6109c2565b6060600680546102f490611493565b80601f016020809104026020016040519081016040528092919081815260200182805461032090611493565b801561036d5780601f106103425761010080835404028352916020019161036d565b820191906000526020600020905b81548152906001019060200180831161035057829003601f168201915b5050505050905090565b600061038b610384610a87565b8484610a8b565b50600192915050565b61039c610a87565b6001600160a01b03166103ad6108ea565b6001600160a01b0316146103dc5760405162461bcd60e51b81526004016103d390611288565b60405180910390fd5b60005b6001548110156104c357816001600160a01b03166001828154811061041457634e487b7160e01b600052603260045260246000fd5b6000918252602090912001546001600160a01b031614156104b1576001818154811061045057634e487b7160e01b600052603260045260246000fd5b6000918252602080832090910180546001600160a01b03191690556001600160a01b03841680835260029091526040808320805460ff191690555190917fc715f0855a20a185f4934a71d21a10fdd4dabc049885faef1006389a1b0a160891a25b806104bb816114ce565b9150506103df565b5050565b60055490565b60006104da848484610b3f565b6001600160a01b0384166000908152600460205260408120816104fb610a87565b6001600160a01b03166001600160a01b031681526020019081526020016000205490508281101561053e5760405162461bcd60e51b81526004016103d390611240565b6105598561054a610a87565b610554868561147c565b610a8b565b506001949350505050565b6001600160a01b03811660009081526002602052604090205460ff165b919050565b60095481565b600a5460ff1690565b600061038b6105a2610a87565b8484600460006105b0610a87565b6001600160a01b03908116825260208083019390935260409182016000908120918b16815292529020546105549190611464565b6105ec610a87565b6001600160a01b03166105fd6108ea565b6001600160a01b0316146106235760405162461bcd60e51b81526004016103d390611288565b61062b6106e6565b6106475760405162461bcd60e51b81526004016103d3906110a1565b61064f610c67565b565b6106596106e6565b156106765760405162461bcd60e51b81526004016103d3906111df565b3360009081526002602052604090205460ff1615156001146106aa5760405162461bcd60e51b81526004016103d390611209565b6104c38282610cd5565b6106bc6106e6565b156106d95760405162461bcd60e51b81526004016103d3906111df565b6106e33382610d95565b50565b60085460ff1690565b6106f7610a87565b6001600160a01b03166107086108ea565b6001600160a01b03161461072e5760405162461bcd60e51b81526004016103d390611288565b6001600160a01b03811660009081526002602052604090205460ff166106e3576001805480820182557fb10e2d527612073b26eecdfd717e6a320cf44b4afac2b0732d9fcbe2b7fa0cf60180546001600160a01b0319166001600160a01b038416908117909155600081815260026020526040808220805460ff1916909417909355915190917f4550f0acb6b43e87f5e4b34b16e7fbf8af3b81b79b8077ca49ff3afa15d7e91191a250565b6001600160a01b031660009081526003602052604090205490565b6107fd610a87565b6001600160a01b031661080e6108ea565b6001600160a01b0316146108345760405162461bcd60e51b81526004016103d390611288565b600080546040516001600160a01b03909116907f8be0079c531659141344cd1fd0a4f28419497f9722a3daafe3b4186f6b6457e0908390a3600080546001600160a01b0319169055565b610886610a87565b6001600160a01b03166108976108ea565b6001600160a01b0316146108bd5760405162461bcd60e51b81526004016103d390611288565b6108c56106e6565b156108e25760405162461bcd60e51b81526004016103d3906111df565b61064f610e7b565b6000546001600160a01b031690565b6060600780546102f490611493565b60008060046000610917610a87565b6001600160a01b03908116825260208083019390935260409182016000908120918816815292529020549050828110156109635760405162461bcd60e51b81526004016103d390611387565b61097961096e610a87565b85610554868561147c565b5060019392505050565b600061038b610990610a87565b8484610b3f565b6001600160a01b03918216600090815260046020908152604080832093909416825291909152205490565b6109ca610a87565b6001600160a01b03166109db6108ea565b6001600160a01b031614610a015760405162461bcd60e51b81526004016103d390611288565b6001600160a01b038116610a275760405162461bcd60e51b81526004016103d390611111565b600080546040516001600160a01b03808516939216917f8be0079c531659141344cd1fd0a4f28419497f9722a3daafe3b4186f6b6457e091a3600080546001600160a01b0319166001600160a01b0392909216919091179055565b505050565b3390565b6001600160a01b038316610ab15760405162461bcd60e51b81526004016103d390611343565b6001600160a01b038216610ad75760405162461bcd60e51b81526004016103d390611157565b6001600160a01b0380841660008181526004602090815260408083209487168084529490915290819020849055517f8c5be1e5ebec7d5bd14f71427d1e84f3dd0314c0f7b2291e5b200ac8c7c3b92590610b3290859061144d565b60405180910390a3505050565b6001600160a01b038316610b655760405162461bcd60e51b81526004016103d3906112fe565b6001600160a01b038216610b8b5760405162461bcd60e51b81526004016103d39061105e565b610b96838383610ed6565b6001600160a01b03831660009081526003602052604090205481811015610bcf5760405162461bcd60e51b81526004016103d390611199565b610bd9828261147c565b6001600160a01b038086166000908152600360205260408082209390935590851681529081208054849290610c0f908490611464565b92505081905550826001600160a01b0316846001600160a01b03167fddf252ad1be2c89b69c2b068fc378daa952ba7f163c4a11628f55a4df523b3ef84604051610c59919061144d565b60405180910390a350505050565b610c6f6106e6565b610c8b5760405162461bcd60e51b81526004016103d3906110a1565b6008805460ff191690557f5db9ee0a495bf2e6ff9c91a7834c1ba4fdd244a5e8aa4e537bd38aeae4b073aa610cbe610a87565b604051610ccb9190610fec565b60405180910390a1565b6001600160a01b038216610cfb5760405162461bcd60e51b81526004016103d3906113cc565b610d0760008383610ed6565b8060056000828254610d199190611464565b90915550506001600160a01b03821660009081526003602052604081208054839290610d46908490611464565b90915550506040516001600160a01b038316906000907fddf252ad1be2c89b69c2b068fc378daa952ba7f163c4a11628f55a4df523b3ef90610d8990859061144d565b60405180910390a35050565b6001600160a01b038216610dbb5760405162461bcd60e51b81526004016103d3906112bd565b610dc782600083610ed6565b6001600160a01b03821660009081526003602052604090205481811015610e005760405162461bcd60e51b81526004016103d3906110cf565b610e0a828261147c565b6001600160a01b03841660009081526003602052604081209190915560058054849290610e3890849061147c565b90915550506040516000906001600160a01b038516907fddf252ad1be2c89b69c2b068fc378daa952ba7f163c4a11628f55a4df523b3ef90610b3290869061144d565b610e836106e6565b15610ea05760405162461bcd60e51b81526004016103d3906111df565b6008805460ff191660011790557f62e78cea01bee320cd4e420270b5ea74000d11b0c9f74754ebdbfc544b05a258610cbe610a87565b610ee1838383610a82565b610ee96106e6565b15610a825760405162461bcd60e51b81526004016103d390611403565b80356001600160a01b038116811461058157600080fd5b600060208284031215610f2e578081fd5b610f3782610f06565b9392505050565b60008060408385031215610f50578081fd5b610f5983610f06565b9150610f6760208401610f06565b90509250929050565b600080600060608486031215610f84578081fd5b610f8d84610f06565b9250610f9b60208501610f06565b9150604084013590509250925092565b60008060408385031215610fbd578182fd5b610fc683610f06565b946020939093013593505050565b600060208284031215610fe5578081fd5b5035919050565b6001600160a01b0391909116815260200190565b901515815260200190565b6000602080835283518082850152825b818110156110375785810183015185820160400152820161101b565b818111156110485783604083870101525b50601f01601f1916929092016040019392505050565b60208082526023908201527f45524332303a207472616e7366657220746f20746865207a65726f206164647260408201526265737360e81b606082015260800190565b60208082526014908201527314185d5cd8589b194e881b9bdd081c185d5cd95960621b604082015260600190565b60208082526022908201527f45524332303a206275726e20616d6f756e7420657863656564732062616c616e604082015261636560f01b606082015260800190565b60208082526026908201527f4f776e61626c653a206e6577206f776e657220697320746865207a65726f206160408201526564647265737360d01b606082015260800190565b60208082526022908201527f45524332303a20617070726f766520746f20746865207a65726f206164647265604082015261737360f01b606082015260800190565b60208082526026908201527f45524332303a207472616e7366657220616d6f756e7420657863656564732062604082015265616c616e636560d01b606082015260800190565b60208082526010908201526f14185d5cd8589b194e881c185d5cd95960821b604082015260600190565b60208082526018908201527f6d73672e73656e646572206d7573742062652061646d696e0000000000000000604082015260600190565b60208082526028908201527f45524332303a207472616e7366657220616d6f756e74206578636565647320616040820152676c6c6f77616e636560c01b606082015260800190565b6020808252818101527f4f776e61626c653a2063616c6c6572206973206e6f7420746865206f776e6572604082015260600190565b60208082526021908201527f45524332303a206275726e2066726f6d20746865207a65726f206164647265736040820152607360f81b606082015260800190565b60208082526025908201527f45524332303a207472616e736665722066726f6d20746865207a65726f206164604082015264647265737360d81b606082015260800190565b60208082526024908201527f45524332303a20617070726f76652066726f6d20746865207a65726f206164646040820152637265737360e01b606082015260800190565b60208082526025908201527f45524332303a2064656372656173656420616c6c6f77616e63652062656c6f77604082015264207a65726f60d81b606082015260800190565b6020808252601f908201527f45524332303a206d696e7420746f20746865207a65726f206164647265737300604082015260600190565b6020808252602a908201527f45524332305061757361626c653a20746f6b656e207472616e736665722077686040820152691a5b19481c185d5cd95960b21b606082015260800190565b90815260200190565b60ff91909116815260200190565b60008219821115611477576114776114e9565b500190565b60008282101561148e5761148e6114e9565b500390565b6002810460018216806114a757607f821691505b602082108114156114c857634e487b7160e01b600052602260045260246000fd5b50919050565b60006000198214156114e2576114e26114e9565b5060010190565b634e487b7160e01b600052601160045260246000fdfea26469706673582212205c7fb2a52237807c0d9c8254a48533cf4248aba8b860badb28beee4b067222bb64736f6c63430008000033",
			"opcodes": "PUSH1 0x80 PUSH1 0x40 MSTORE CALLVALUE DUP1 ISZERO PUSH3 0x11 JUMPI PUSH1 0x0 DUP1 REVERT JUMPDEST POP PUSH1 0x40 MLOAD PUSH3 0x1C1E CODESIZE SUB DUP1 PUSH3 0x1C1E DUP4 CODECOPY DUP2 ADD PUSH1 0x40 DUP2 SWAP1 MSTORE PUSH3 0x34 SWAP2 PUSH3 0x3DE JUMP JUMPDEST DUP4 DUP4 PUSH1 0x0 PUSH3 0x42 PUSH3 0x165 JUMP JUMPDEST PUSH1 0x0 DUP1 SLOAD PUSH1 0x1 PUSH1 0x1 PUSH1 0xA0 SHL SUB NOT AND PUSH1 0x1 PUSH1 0x1 PUSH1 0xA0 SHL SUB DUP4 AND SWAP1 DUP2 OR DUP3 SSTORE PUSH1 0x40 MLOAD SWAP3 SWAP4 POP SWAP2 PUSH32 0x8BE0079C531659141344CD1FD0A4F28419497F9722A3DAAFE3B4186F6B6457E0 SWAP1 DUP3 SWAP1 LOG3 POP PUSH1 0x1 DUP1 SLOAD DUP1 DUP3 ADD DUP3 SSTORE PUSH32 0xB10E2D527612073B26EECDFD717E6A320CF44B4AFAC2B0732D9FCBE2B7FA0CF6 ADD DUP1 SLOAD PUSH1 0x1 PUSH1 0x1 PUSH1 0xA0 SHL SUB NOT AND CALLER SWAP1 DUP2 OR SWAP1 SWAP2 SSTORE PUSH1 0x0 SWAP1 DUP2 MSTORE PUSH1 0x2 PUSH1 0x20 SWAP1 DUP2 MSTORE PUSH1 0x40 SWAP1 SWAP2 KECCAK256 DUP1 SLOAD PUSH1 0xFF NOT AND SWAP1 SWAP3 OR SWAP1 SWAP2 SSTORE DUP3 MLOAD PUSH3 0xFB SWAP2 PUSH1 0x6 SWAP2 SWAP1 DUP6 ADD SWAP1 PUSH3 0x28D JUMP JUMPDEST POP DUP1 MLOAD PUSH3 0x111 SWAP1 PUSH1 0x7 SWAP1 PUSH1 0x20 DUP5 ADD SWAP1 PUSH3 0x28D JUMP JUMPDEST POP POP PUSH1 0x8 DUP1 SLOAD PUSH1 0xFF NOT AND SWAP1 SSTORE POP PUSH3 0x12E PUSH1 0xFF DUP3 AND PUSH1 0xA PUSH3 0x559 JUMP JUMPDEST PUSH3 0x13A SWAP1 DUP4 PUSH3 0x64E JUMP JUMPDEST PUSH1 0x9 DUP2 SWAP1 SSTORE PUSH1 0xA DUP1 SLOAD PUSH1 0xFF NOT AND PUSH1 0xFF DUP5 AND OR SWAP1 SSTORE PUSH3 0x15B SWAP1 CALLER SWAP1 PUSH3 0x169 JUMP JUMPDEST POP POP POP POP PUSH3 0x6D9 JUMP JUMPDEST CALLER SWAP1 JUMP JUMPDEST PUSH1 0x1 PUSH1 0x1 PUSH1 0xA0 SHL SUB DUP3 AND PUSH3 0x19B JUMPI PUSH1 0x40 MLOAD PUSH3 0x461BCD PUSH1 0xE5 SHL DUP2 MSTORE PUSH1 0x4 ADD PUSH3 0x192 SWAP1 PUSH3 0x467 JUMP JUMPDEST PUSH1 0x40 MLOAD DUP1 SWAP2 SUB SWAP1 REVERT JUMPDEST PUSH3 0x1A9 PUSH1 0x0 DUP4 DUP4 PUSH3 0x23D JUMP JUMPDEST DUP1 PUSH1 0x5 PUSH1 0x0 DUP3 DUP3 SLOAD PUSH3 0x1BD SWAP2 SWAP1 PUSH3 0x4F1 JUMP JUMPDEST SWAP1 SWAP2 SSTORE POP POP PUSH1 0x1 PUSH1 0x1 PUSH1 0xA0 SHL SUB DUP3 AND PUSH1 0x0 SWAP1 DUP2 MSTORE PUSH1 0x3 PUSH1 0x20 MSTORE PUSH1 0x40 DUP2 KECCAK256 DUP1 SLOAD DUP4 SWAP3 SWAP1 PUSH3 0x1EC SWAP1 DUP5 SWAP1 PUSH3 0x4F1 JUMP JUMPDEST SWAP1 SWAP2 SSTORE POP POP PUSH1 0x40 MLOAD PUSH1 0x1 PUSH1 0x1 PUSH1 0xA0 SHL SUB DUP4 AND SWAP1 PUSH1 0x0 SWAP1 PUSH32 0xDDF252AD1BE2C89B69C2B068FC378DAA952BA7F163C4A11628F55A4DF523B3EF SWAP1 PUSH3 0x231 SWAP1 DUP6 SWAP1 PUSH3 0x4E8 JUMP JUMPDEST PUSH1 0x40 MLOAD DUP1 SWAP2 SUB SWAP1 LOG3 POP POP JUMP JUMPDEST PUSH3 0x255 DUP4 DUP4 DUP4 PUSH3 0x27F PUSH1 0x20 SHL PUSH3 0xA82 OR PUSH1 0x20 SHR JUMP JUMPDEST PUSH3 0x25F PUSH3 0x284 JUMP JUMPDEST ISZERO PUSH3 0x27F JUMPI PUSH1 0x40 MLOAD PUSH3 0x461BCD PUSH1 0xE5 SHL DUP2 MSTORE PUSH1 0x4 ADD PUSH3 0x192 SWAP1 PUSH3 0x49E JUMP JUMPDEST POP POP POP JUMP JUMPDEST PUSH1 0x8 SLOAD PUSH1 0xFF AND SWAP1 JUMP JUMPDEST DUP3 DUP1 SLOAD PUSH3 0x29B SWAP1 PUSH3 0x670 JUMP JUMPDEST SWAP1 PUSH1 0x0 MSTORE PUSH1 0x20 PUSH1 0x0 KECCAK256 SWAP1 PUSH1 0x1F ADD PUSH1 0x20 SWAP1 DIV DUP2 ADD SWAP3 DUP3 PUSH3 0x2BF JUMPI PUSH1 0x0 DUP6 SSTORE PUSH3 0x30A JUMP JUMPDEST DUP3 PUSH1 0x1F LT PUSH3 0x2DA JUMPI DUP1 MLOAD PUSH1 0xFF NOT AND DUP4 DUP1 ADD OR DUP6 SSTORE PUSH3 0x30A JUMP JUMPDEST DUP3 DUP1 ADD PUSH1 0x1 ADD DUP6 SSTORE DUP3 ISZERO PUSH3 0x30A JUMPI SWAP2 DUP3 ADD JUMPDEST DUP3 DUP2 GT ISZERO PUSH3 0x30A JUMPI DUP3 MLOAD DUP3 SSTORE SWAP2 PUSH1 0x20 ADD SWAP2 SWAP1 PUSH1 0x1 ADD SWAP1 PUSH3 0x2ED JUMP JUMPDEST POP PUSH3 0x318 SWAP3 SWAP2 POP PUSH3 0x31C JUMP JUMPDEST POP SWAP1 JUMP JUMPDEST JUMPDEST DUP1 DUP3 GT ISZERO PUSH3 0x318 JUMPI PUSH1 0x0 DUP2 SSTORE PUSH1 0x1 ADD PUSH3 0x31D JUMP JUMPDEST PUSH1 0x0 DUP3 PUSH1 0x1F DUP4 ADD SLT PUSH3 0x344 JUMPI DUP1 DUP2 REVERT JUMPDEST DUP2 MLOAD PUSH1 0x1 PUSH1 0x1 PUSH1 0x40 SHL SUB DUP1 DUP3 GT ISZERO PUSH3 0x361 JUMPI PUSH3 0x361 PUSH3 0x6C3 JUMP JUMPDEST PUSH1 0x40 MLOAD PUSH1 0x20 PUSH1 0x1F DUP5 ADD PUSH1 0x1F NOT AND DUP3 ADD DUP2 ADD DUP4 DUP2 GT DUP4 DUP3 LT OR ISZERO PUSH3 0x389 JUMPI PUSH3 0x389 PUSH3 0x6C3 JUMP JUMPDEST PUSH1 0x40 MSTORE DUP4 DUP3 MSTORE DUP6 DUP5 ADD DUP2 ADD DUP8 LT ISZERO PUSH3 0x3A0 JUMPI DUP5 DUP6 REVERT JUMPDEST DUP5 SWAP3 POP JUMPDEST DUP4 DUP4 LT ISZERO PUSH3 0x3C3 JUMPI DUP6 DUP4 ADD DUP2 ADD MLOAD DUP3 DUP5 ADD DUP3 ADD MSTORE SWAP2 DUP3 ADD SWAP2 PUSH3 0x3A4 JUMP JUMPDEST DUP4 DUP4 GT ISZERO PUSH3 0x3D4 JUMPI DUP5 DUP2 DUP6 DUP5 ADD ADD MSTORE JUMPDEST POP SWAP6 SWAP5 POP POP POP POP POP JUMP JUMPDEST PUSH1 0x0 DUP1 PUSH1 0x0 DUP1 PUSH1 0x80 DUP6 DUP8 SUB SLT ISZERO PUSH3 0x3F4 JUMPI DUP4 DUP5 REVERT JUMPDEST DUP5 MLOAD PUSH1 0x1 PUSH1 0x1 PUSH1 0x40 SHL SUB DUP1 DUP3 GT ISZERO PUSH3 0x40B JUMPI DUP6 DUP7 REVERT JUMPDEST PUSH3 0x419 DUP9 DUP4 DUP10 ADD PUSH3 0x333 JUMP JUMPDEST SWAP6 POP PUSH1 0x20 DUP8 ADD MLOAD SWAP2 POP DUP1 DUP3 GT ISZERO PUSH3 0x42F JUMPI DUP5 DUP6 REVERT JUMPDEST POP PUSH3 0x43E DUP8 DUP3 DUP9 ADD PUSH3 0x333 JUMP JUMPDEST SWAP4 POP POP PUSH1 0x40 DUP6 ADD MLOAD SWAP2 POP PUSH1 0x60 DUP6 ADD MLOAD PUSH1 0xFF DUP2 AND DUP2 EQ PUSH3 0x45C JUMPI DUP2 DUP3 REVERT JUMPDEST SWAP4 SWAP7 SWAP3 SWAP6 POP SWAP1 SWAP4 POP POP JUMP JUMPDEST PUSH1 0x20 DUP1 DUP3 MSTORE PUSH1 0x1F SWAP1 DUP3 ADD MSTORE PUSH32 0x45524332303A206D696E7420746F20746865207A65726F206164647265737300 PUSH1 0x40 DUP3 ADD MSTORE PUSH1 0x60 ADD SWAP1 JUMP JUMPDEST PUSH1 0x20 DUP1 DUP3 MSTORE PUSH1 0x2A SWAP1 DUP3 ADD MSTORE PUSH32 0x45524332305061757361626C653A20746F6B656E207472616E73666572207768 PUSH1 0x40 DUP3 ADD MSTORE PUSH10 0x1A5B19481C185D5CD959 PUSH1 0xB2 SHL PUSH1 0x60 DUP3 ADD MSTORE PUSH1 0x80 ADD SWAP1 JUMP JUMPDEST SWAP1 DUP2 MSTORE PUSH1 0x20 ADD SWAP1 JUMP JUMPDEST PUSH1 0x0 DUP3 NOT DUP3 GT ISZERO PUSH3 0x507 JUMPI PUSH3 0x507 PUSH3 0x6AD JUMP JUMPDEST POP ADD SWAP1 JUMP JUMPDEST DUP1 DUP3 JUMPDEST PUSH1 0x1 DUP1 DUP7 GT PUSH3 0x520 JUMPI POP PUSH3 0x550 JUMP JUMPDEST DUP2 DUP8 DIV DUP3 GT ISZERO PUSH3 0x535 JUMPI PUSH3 0x535 PUSH3 0x6AD JUMP JUMPDEST DUP1 DUP7 AND ISZERO PUSH3 0x543 JUMPI SWAP2 DUP2 MUL SWAP2 JUMPDEST SWAP5 SWAP1 SWAP5 SHR SWAP4 DUP1 MUL PUSH3 0x50F JUMP JUMPDEST SWAP5 POP SWAP5 SWAP3 POP POP POP JUMP JUMPDEST PUSH1 0x0 PUSH3 0x56A PUSH1 0x0 NOT DUP5 DUP5 PUSH3 0x571 JUMP JUMPDEST SWAP4 SWAP3 POP POP POP JUMP JUMPDEST PUSH1 0x0 DUP3 PUSH3 0x582 JUMPI POP PUSH1 0x1 PUSH3 0x56A JUMP JUMPDEST DUP2 PUSH3 0x591 JUMPI POP PUSH1 0x0 PUSH3 0x56A JUMP JUMPDEST DUP2 PUSH1 0x1 DUP2 EQ PUSH3 0x5AA JUMPI PUSH1 0x2 DUP2 EQ PUSH3 0x5B5 JUMPI PUSH3 0x5E9 JUMP JUMPDEST PUSH1 0x1 SWAP2 POP POP PUSH3 0x56A JUMP JUMPDEST PUSH1 0xFF DUP5 GT ISZERO PUSH3 0x5C9 JUMPI PUSH3 0x5C9 PUSH3 0x6AD JUMP JUMPDEST PUSH1 0x1 DUP5 SHL SWAP2 POP DUP5 DUP3 GT ISZERO PUSH3 0x5E2 JUMPI PUSH3 0x5E2 PUSH3 0x6AD JUMP JUMPDEST POP PUSH3 0x56A JUMP JUMPDEST POP PUSH1 0x20 DUP4 LT PUSH2 0x133 DUP4 LT AND PUSH1 0x4E DUP5 LT PUSH1 0xB DUP5 LT AND OR ISZERO PUSH3 0x621 JUMPI POP DUP2 DUP2 EXP DUP4 DUP2 GT ISZERO PUSH3 0x61B JUMPI PUSH3 0x61B PUSH3 0x6AD JUMP JUMPDEST PUSH3 0x56A JUMP JUMPDEST PUSH3 0x630 DUP5 DUP5 DUP5 PUSH1 0x1 PUSH3 0x50C JUMP JUMPDEST DUP1 DUP7 DIV DUP3 GT ISZERO PUSH3 0x645 JUMPI PUSH3 0x645 PUSH3 0x6AD JUMP JUMPDEST MUL SWAP5 SWAP4 POP POP POP POP JUMP JUMPDEST PUSH1 0x0 DUP2 PUSH1 0x0 NOT DIV DUP4 GT DUP3 ISZERO ISZERO AND ISZERO PUSH3 0x66B JUMPI PUSH3 0x66B PUSH3 0x6AD JUMP JUMPDEST POP MUL SWAP1 JUMP JUMPDEST PUSH1 0x2 DUP2 DIV PUSH1 0x1 DUP3 AND DUP1 PUSH3 0x685 JUMPI PUSH1 0x7F DUP3 AND SWAP2 POP JUMPDEST PUSH1 0x20 DUP3 LT DUP2 EQ ISZERO PUSH3 0x6A7 JUMPI PUSH4 0x4E487B71 PUSH1 0xE0 SHL PUSH1 0x0 MSTORE PUSH1 0x22 PUSH1 0x4 MSTORE PUSH1 0x24 PUSH1 0x0 REVERT JUMPDEST POP SWAP2 SWAP1 POP JUMP JUMPDEST PUSH4 0x4E487B71 PUSH1 0xE0 SHL PUSH1 0x0 MSTORE PUSH1 0x11 PUSH1 0x4 MSTORE PUSH1 0x24 PUSH1 0x0 REVERT JUMPDEST PUSH4 0x4E487B71 PUSH1 0xE0 SHL PUSH1 0x0 MSTORE PUSH1 0x41 PUSH1 0x4 MSTORE PUSH1 0x24 PUSH1 0x0 REVERT JUMPDEST PUSH2 0x1535 DUP1 PUSH3 0x6E9 PUSH1 0x0 CODECOPY PUSH1 0x0 RETURN INVALID PUSH1 0x80 PUSH1 0x40 MSTORE CALLVALUE DUP1 ISZERO PUSH2 0x10 JUMPI PUSH1 0x0 DUP1 REVERT JUMPDEST POP PUSH1 0x4 CALLDATASIZE LT PUSH2 0x14D JUMPI PUSH1 0x0 CALLDATALOAD PUSH1 0xE0 SHR DUP1 PUSH4 0x42966C68 GT PUSH2 0xC3 JUMPI DUP1 PUSH4 0x8DA5CB5B GT PUSH2 0x7C JUMPI DUP1 PUSH4 0x8DA5CB5B EQ PUSH2 0x27C JUMPI DUP1 PUSH4 0x95D89B41 EQ PUSH2 0x291 JUMPI DUP1 PUSH4 0xA457C2D7 EQ PUSH2 0x299 JUMPI DUP1 PUSH4 0xA9059CBB EQ PUSH2 0x2AC JUMPI DUP1 PUSH4 0xDD62ED3E EQ PUSH2 0x2BF JUMPI DUP1 PUSH4 0xF2FDE38B EQ PUSH2 0x2D2 JUMPI PUSH2 0x14D JUMP JUMPDEST DUP1 PUSH4 0x42966C68 EQ PUSH2 0x22B JUMPI DUP1 PUSH4 0x5C975ABB EQ PUSH2 0x23E JUMPI DUP1 PUSH4 0x70480275 EQ PUSH2 0x246 JUMPI DUP1 PUSH4 0x70A08231 EQ PUSH2 0x259 JUMPI DUP1 PUSH4 0x715018A6 EQ PUSH2 0x26C JUMPI DUP1 PUSH4 0x8456CB59 EQ PUSH2 0x274 JUMPI PUSH2 0x14D JUMP JUMPDEST DUP1 PUSH4 0x24D7806C GT PUSH2 0x115 JUMPI DUP1 PUSH4 0x24D7806C EQ PUSH2 0x1CD JUMPI DUP1 PUSH4 0x2FF2E9DC EQ PUSH2 0x1E0 JUMPI DUP1 PUSH4 0x313CE567 EQ PUSH2 0x1E8 JUMPI DUP1 PUSH4 0x39509351 EQ PUSH2 0x1FD JUMPI DUP1 PUSH4 0x3F4BA83A EQ PUSH2 0x210 JUMPI DUP1 PUSH4 0x40C10F19 EQ PUSH2 0x218 JUMPI PUSH2 0x14D JUMP JUMPDEST DUP1 PUSH4 0x6FDDE03 EQ PUSH2 0x152 JUMPI DUP1 PUSH4 0x95EA7B3 EQ PUSH2 0x170 JUMPI DUP1 PUSH4 0x1785F53C EQ PUSH2 0x190 JUMPI DUP1 PUSH4 0x18160DDD EQ PUSH2 0x1A5 JUMPI DUP1 PUSH4 0x23B872DD EQ PUSH2 0x1BA JUMPI JUMPDEST PUSH1 0x0 DUP1 REVERT JUMPDEST PUSH2 0x15A PUSH2 0x2E5 JUMP JUMPDEST PUSH1 0x40 MLOAD PUSH2 0x167 SWAP2 SWAP1 PUSH2 0x100B JUMP JUMPDEST PUSH1 0x40 MLOAD DUP1 SWAP2 SUB SWAP1 RETURN JUMPDEST PUSH2 0x183 PUSH2 0x17E CALLDATASIZE PUSH1 0x4 PUSH2 0xFAB JUMP JUMPDEST PUSH2 0x377 JUMP JUMPDEST PUSH1 0x40 MLOAD PUSH2 0x167 SWAP2 SWAP1 PUSH2 0x1000 JUMP JUMPDEST PUSH2 0x1A3 PUSH2 0x19E CALLDATASIZE PUSH1 0x4 PUSH2 0xF1D JUMP JUMPDEST PUSH2 0x394 JUMP JUMPDEST STOP JUMPDEST PUSH2 0x1AD PUSH2 0x4C7 JUMP JUMPDEST PUSH1 0x40 MLOAD PUSH2 0x167 SWAP2 SWAP1 PUSH2 0x144D JUMP JUMPDEST PUSH2 0x183 PUSH2 0x1C8 CALLDATASIZE PUSH1 0x4 PUSH2 0xF70 JUMP JUMPDEST PUSH2 0x4CD JUMP JUMPDEST PUSH2 0x183 PUSH2 0x1DB CALLDATASIZE PUSH1 0x4 PUSH2 0xF1D JUMP JUMPDEST PUSH2 0x564 JUMP JUMPDEST PUSH2 0x1AD PUSH2 0x586 JUMP JUMPDEST PUSH2 0x1F0 PUSH2 0x58C JUMP JUMPDEST PUSH1 0x40 MLOAD PUSH2 0x167 SWAP2 SWAP1 PUSH2 0x1456 JUMP JUMPDEST PUSH2 0x183 PUSH2 0x20B CALLDATASIZE PUSH1 0x4 PUSH2 0xFAB JUMP JUMPDEST PUSH2 0x595 JUMP JUMPDEST PUSH2 0x1A3 PUSH2 0x5E4 JUMP JUMPDEST PUSH2 0x1A3 PUSH2 0x226 CALLDATASIZE PUSH1 0x4 PUSH2 0xFAB JUMP JUMPDEST PUSH2 0x651 JUMP JUMPDEST PUSH2 0x1A3 PUSH2 0x239 CALLDATASIZE PUSH1 0x4 PUSH2 0xFD4 JUMP JUMPDEST PUSH2 0x6B4 JUMP JUMPDEST PUSH2 0x183 PUSH2 0x6E6 JUMP JUMPDEST PUSH2 0x1A3 PUSH2 0x254 CALLDATASIZE PUSH1 0x4 PUSH2 0xF1D JUMP JUMPDEST PUSH2 0x6EF JUMP JUMPDEST PUSH2 0x1AD PUSH2 0x267 CALLDATASIZE PUSH1 0x4 PUSH2 0xF1D JUMP JUMPDEST PUSH2 0x7DA JUMP JUMPDEST PUSH2 0x1A3 PUSH2 0x7F5 JUMP JUMPDEST PUSH2 0x1A3 PUSH2 0x87E JUMP JUMPDEST PUSH2 0x284 PUSH2 0x8EA JUMP JUMPDEST PUSH1 0x40 MLOAD PUSH2 0x167 SWAP2 SWAP1 PUSH2 0xFEC JUMP JUMPDEST PUSH2 0x15A PUSH2 0x8F9 JUMP JUMPDEST PUSH2 0x183 PUSH2 0x2A7 CALLDATASIZE PUSH1 0x4 PUSH2 0xFAB JUMP JUMPDEST PUSH2 0x908 JUMP JUMPDEST PUSH2 0x183 PUSH2 0x2BA CALLDATASIZE PUSH1 0x4 PUSH2 0xFAB JUMP JUMPDEST PUSH2 0x983 JUMP JUMPDEST PUSH2 0x1AD PUSH2 0x2CD CALLDATASIZE PUSH1 0x4 PUSH2 0xF3E JUMP JUMPDEST PUSH2 0x997 JUMP JUMPDEST PUSH2 0x1A3 PUSH2 0x2E0 CALLDATASIZE PUSH1 0x4 PUSH2 0xF1D JUMP JUMPDEST PUSH2 0x9C2 JUMP JUMPDEST PUSH1 0x60 PUSH1 0x6 DUP1 SLOAD PUSH2 0x2F4 SWAP1 PUSH2 0x1493 JUMP JUMPDEST DUP1 PUSH1 0x1F ADD PUSH1 0x20 DUP1 SWAP2 DIV MUL PUSH1 0x20 ADD PUSH1 0x40 MLOAD SWAP1 DUP2 ADD PUSH1 0x40 MSTORE DUP1 SWAP3 SWAP2 SWAP1 DUP2 DUP2 MSTORE PUSH1 0x20 ADD DUP3 DUP1 SLOAD PUSH2 0x320 SWAP1 PUSH2 0x1493 JUMP JUMPDEST DUP1 ISZERO PUSH2 0x36D JUMPI DUP1 PUSH1 0x1F LT PUSH2 0x342 JUMPI PUSH2 0x100 DUP1 DUP4 SLOAD DIV MUL DUP4 MSTORE SWAP2 PUSH1 0x20 ADD SWAP2 PUSH2 0x36D JUMP JUMPDEST DUP3 ADD SWAP2 SWAP1 PUSH1 0x0 MSTORE PUSH1 0x20 PUSH1 0x0 KECCAK256 SWAP1 JUMPDEST DUP2 SLOAD DUP2 MSTORE SWAP1 PUSH1 0x1 ADD SWAP1 PUSH1 0x20 ADD DUP1 DUP4 GT PUSH2 0x350 JUMPI DUP3 SWAP1 SUB PUSH1 0x1F AND DUP3 ADD SWAP2 JUMPDEST POP POP POP POP POP SWAP1 POP SWAP1 JUMP JUMPDEST PUSH1 0x0 PUSH2 0x38B PUSH2 0x384 PUSH2 0xA87 JUMP JUMPDEST DUP5 DUP5 PUSH2 0xA8B JUMP JUMPDEST POP PUSH1 0x1 SWAP3 SWAP2 POP POP JUMP JUMPDEST PUSH2 0x39C PUSH2 0xA87 JUMP JUMPDEST PUSH1 0x1 PUSH1 0x1 PUSH1 0xA0 SHL SUB AND PUSH2 0x3AD PUSH2 0x8EA JUMP JUMPDEST PUSH1 0x1 PUSH1 0x1 PUSH1 0xA0 SHL SUB AND EQ PUSH2 0x3DC JUMPI PUSH1 0x40 MLOAD PUSH3 0x461BCD PUSH1 0xE5 SHL DUP2 MSTORE PUSH1 0x4 ADD PUSH2 0x3D3 SWAP1 PUSH2 0x1288 JUMP JUMPDEST PUSH1 0x40 MLOAD DUP1 SWAP2 SUB SWAP1 REVERT JUMPDEST PUSH1 0x0 JUMPDEST PUSH1 0x1 SLOAD DUP2 LT ISZERO PUSH2 0x4C3 JUMPI DUP2 PUSH1 0x1 PUSH1 0x1 PUSH1 0xA0 SHL SUB AND PUSH1 0x1 DUP3 DUP2 SLOAD DUP2 LT PUSH2 0x414 JUMPI PUSH4 0x4E487B71 PUSH1 0xE0 SHL PUSH1 0x0 MSTORE PUSH1 0x32 PUSH1 0x4 MSTORE PUSH1 0x24 PUSH1 0x0 REVERT JUMPDEST PUSH1 0x0 SWAP2 DUP3 MSTORE PUSH1 0x20 SWAP1 SWAP2 KECCAK256 ADD SLOAD PUSH1 0x1 PUSH1 0x1 PUSH1 0xA0 SHL SUB AND EQ ISZERO PUSH2 0x4B1 JUMPI PUSH1 0x1 DUP2 DUP2 SLOAD DUP2 LT PUSH2 0x450 JUMPI PUSH4 0x4E487B71 PUSH1 0xE0 SHL PUSH1 0x0 MSTORE PUSH1 0x32 PUSH1 0x4 MSTORE PUSH1 0x24 PUSH1 0x0 REVERT JUMPDEST PUSH1 0x0 SWAP2 DUP3 MSTORE PUSH1 0x20 DUP1 DUP4 KECCAK256 SWAP1 SWAP2 ADD DUP1 SLOAD PUSH1 0x1 PUSH1 0x1 PUSH1 0xA0 SHL SUB NOT AND SWAP1 SSTORE PUSH1 0x1 PUSH1 0x1 PUSH1 0xA0 SHL SUB DUP5 AND DUP1 DUP4 MSTORE PUSH1 0x2 SWAP1 SWAP2 MSTORE PUSH1 0x40 DUP1 DUP4 KECCAK256 DUP1 SLOAD PUSH1 0xFF NOT AND SWAP1 SSTORE MLOAD SWAP1 SWAP2 PUSH32 0xC715F0855A20A185F4934A71D21A10FDD4DABC049885FAEF1006389A1B0A1608 SWAP2 LOG2 JUMPDEST DUP1 PUSH2 0x4BB DUP2 PUSH2 0x14CE JUMP JUMPDEST SWAP2 POP POP PUSH2 0x3DF JUMP JUMPDEST POP POP JUMP JUMPDEST PUSH1 0x5 SLOAD SWAP1 JUMP JUMPDEST PUSH1 0x0 PUSH2 0x4DA DUP5 DUP5 DUP5 PUSH2 0xB3F JUMP JUMPDEST PUSH1 0x1 PUSH1 0x1 PUSH1 0xA0 SHL SUB DUP5 AND PUSH1 0x0 SWAP1 DUP2 MSTORE PUSH1 0x4 PUSH1 0x20 MSTORE PUSH1 0x40 DUP2 KECCAK256 DUP2 PUSH2 0x4FB PUSH2 0xA87 JUMP JUMPDEST PUSH1 0x1 PUSH1 0x1 PUSH1 0xA0 SHL SUB AND PUSH1 0x1 PUSH1 0x1 PUSH1 0xA0 SHL SUB AND DUP2 MSTORE PUSH1 0x20 ADD SWAP1 DUP2 MSTORE PUSH1 0x20 ADD PUSH1 0x0 KECCAK256 SLOAD SWAP1 POP DUP3 DUP2 LT ISZERO PUSH2 0x53E JUMPI PUSH1 0x40 MLOAD PUSH3 0x461BCD PUSH1 0xE5 SHL DUP2 MSTORE PUSH1 0x4 ADD PUSH2 0x3D3 SWAP1 PUSH2 0x1240 JUMP JUMPDEST PUSH2 0x559 DUP6 PUSH2 0x54A PUSH2 0xA87 JUMP JUMPDEST PUSH2 0x554 DUP7 DUP6 PUSH2 0x147C JUMP JUMPDEST PUSH2 0xA8B JUMP JUMPDEST POP PUSH1 0x1 SWAP5 SWAP4 POP POP POP POP JUMP JUMPDEST PUSH1 0x1 PUSH1 0x1 PUSH1 0xA0 SHL SUB DUP2 AND PUSH1 0x0 SWAP1 DUP2 MSTORE PUSH1 0x2 PUSH1 0x20 MSTORE PUSH1 0x40 SWAP1 KECCAK256 SLOAD PUSH1 0xFF AND JUMPDEST SWAP2 SWAP1 POP JUMP JUMPDEST PUSH1 0x9 SLOAD DUP2 JUMP JUMPDEST PUSH1 0xA SLOAD PUSH1 0xFF AND SWAP1 JUMP JUMPDEST PUSH1 0x0 PUSH2 0x38B PUSH2 0x5A2 PUSH2 0xA87 JUMP JUMPDEST DUP5 DUP5 PUSH1 0x4 PUSH1 0x0 PUSH2 0x5B0 PUSH2 0xA87 JUMP JUMPDEST PUSH1 0x1 PUSH1 0x1 PUSH1 0xA0 SHL SUB SWAP1 DUP2 AND DUP3 MSTORE PUSH1 0x20 DUP1 DUP4 ADD SWAP4 SWAP1 SWAP4 MSTORE PUSH1 0x40 SWAP2 DUP3 ADD PUSH1 0x0 SWAP1 DUP2 KECCAK256 SWAP2 DUP12 AND DUP2 MSTORE SWAP3 MSTORE SWAP1 KECCAK256 SLOAD PUSH2 0x554 SWAP2 SWAP1 PUSH2 0x1464 JUMP JUMPDEST PUSH2 0x5EC PUSH2 0xA87 JUMP JUMPDEST PUSH1 0x1 PUSH1 0x1 PUSH1 0xA0 SHL SUB AND PUSH2 0x5FD PUSH2 0x8EA JUMP JUMPDEST PUSH1 0x1 PUSH1 0x1 PUSH1 0xA0 SHL SUB AND EQ PUSH2 0x623 JUMPI PUSH1 0x40 MLOAD PUSH3 0x461BCD PUSH1 0xE5 SHL DUP2 MSTORE PUSH1 0x4 ADD PUSH2 0x3D3 SWAP1 PUSH2 0x1288 JUMP JUMPDEST PUSH2 0x62B PUSH2 0x6E6 JUMP JUMPDEST PUSH2 0x647 JUMPI PUSH1 0x40 MLOAD PUSH3 0x461BCD PUSH1 0xE5 SHL DUP2 MSTORE PUSH1 0x4 ADD PUSH2 0x3D3 SWAP1 PUSH2 0x10A1 JUMP JUMPDEST PUSH2 0x64F PUSH2 0xC67 JUMP JUMPDEST JUMP JUMPDEST PUSH2 0x659 PUSH2 0x6E6 JUMP JUMPDEST ISZERO PUSH2 0x676 JUMPI PUSH1 0x40 MLOAD PUSH3 0x461BCD PUSH1 0xE5 SHL DUP2 MSTORE PUSH1 0x4 ADD PUSH2 0x3D3 SWAP1 PUSH2 0x11DF JUMP JUMPDEST CALLER PUSH1 0x0 SWAP1 DUP2 MSTORE PUSH1 0x2 PUSH1 0x20 MSTORE PUSH1 0x40 SWAP1 KECCAK256 SLOAD PUSH1 0xFF AND ISZERO ISZERO PUSH1 0x1 EQ PUSH2 0x6AA JUMPI PUSH1 0x40 MLOAD PUSH3 0x461BCD PUSH1 0xE5 SHL DUP2 MSTORE PUSH1 0x4 ADD PUSH2 0x3D3 SWAP1 PUSH2 0x1209 JUMP JUMPDEST PUSH2 0x4C3 DUP3 DUP3 PUSH2 0xCD5 JUMP JUMPDEST PUSH2 0x6BC PUSH2 0x6E6 JUMP JUMPDEST ISZERO PUSH2 0x6D9 JUMPI PUSH1 0x40 MLOAD PUSH3 0x461BCD PUSH1 0xE5 SHL DUP2 MSTORE PUSH1 0x4 ADD PUSH2 0x3D3 SWAP1 PUSH2 0x11DF JUMP JUMPDEST PUSH2 0x6E3 CALLER DUP3 PUSH2 0xD95 JUMP JUMPDEST POP JUMP JUMPDEST PUSH1 0x8 SLOAD PUSH1 0xFF AND SWAP1 JUMP JUMPDEST PUSH2 0x6F7 PUSH2 0xA87 JUMP JUMPDEST PUSH1 0x1 PUSH1 0x1 PUSH1 0xA0 SHL SUB AND PUSH2 0x708 PUSH2 0x8EA JUMP JUMPDEST PUSH1 0x1 PUSH1 0x1 PUSH1 0xA0 SHL SUB AND EQ PUSH2 0x72E JUMPI PUSH1 0x40 MLOAD PUSH3 0x461BCD PUSH1 0xE5 SHL DUP2 MSTORE PUSH1 0x4 ADD PUSH2 0x3D3 SWAP1 PUSH2 0x1288 JUMP JUMPDEST PUSH1 0x1 PUSH1 0x1 PUSH1 0xA0 SHL SUB DUP2 AND PUSH1 0x0 SWAP1 DUP2 MSTORE PUSH1 0x2 PUSH1 0x20 MSTORE PUSH1 0x40 SWAP1 KECCAK256 SLOAD PUSH1 0xFF AND PUSH2 0x6E3 JUMPI PUSH1 0x1 DUP1 SLOAD DUP1 DUP3 ADD DUP3 SSTORE PUSH32 0xB10E2D527612073B26EECDFD717E6A320CF44B4AFAC2B0732D9FCBE2B7FA0CF6 ADD DUP1 SLOAD PUSH1 0x1 PUSH1 0x1 PUSH1 0xA0 SHL SUB NOT AND PUSH1 0x1 PUSH1 0x1 PUSH1 0xA0 SHL SUB DUP5 AND SWAP1 DUP2 OR SWAP1 SWAP2 SSTORE PUSH1 0x0 DUP2 DUP2 MSTORE PUSH1 0x2 PUSH1 0x20 MSTORE PUSH1 0x40 DUP1 DUP3 KECCAK256 DUP1 SLOAD PUSH1 0xFF NOT AND SWAP1 SWAP5 OR SWAP1 SWAP4 SSTORE SWAP2 MLOAD SWAP1 SWAP2 PUSH32 0x4550F0ACB6B43E87F5E4B34B16E7FBF8AF3B81B79B8077CA49FF3AFA15D7E911 SWAP2 LOG2 POP JUMP JUMPDEST PUSH1 0x1 PUSH1 0x1 PUSH1 0xA0 SHL SUB AND PUSH1 0x0 SWAP1 DUP2 MSTORE PUSH1 0x3 PUSH1 0x20 MSTORE PUSH1 0x40 SWAP1 KECCAK256 SLOAD SWAP1 JUMP JUMPDEST PUSH2 0x7FD PUSH2 0xA87 JUMP JUMPDEST PUSH1 0x1 PUSH1 0x1 PUSH1 0xA0 SHL SUB AND PUSH2 0x80E PUSH2 0x8EA JUMP JUMPDEST PUSH1 0x1 PUSH1 0x1 PUSH1 0xA0 SHL SUB AND EQ PUSH2 0x834 JUMPI PUSH1 0x40 MLOAD PUSH3 0x461BCD PUSH1 0xE5 SHL DUP2 MSTORE PUSH1 0x4 ADD PUSH2 0x3D3 SWAP1 PUSH2 0x1288 JUMP JUMPDEST PUSH1 0x0 DUP1 SLOAD PUSH1 0x40 MLOAD PUSH1 0x1 PUSH1 0x1 PUSH1 0xA0 SHL SUB SWAP1 SWAP2 AND SWAP1 PUSH32 0x8BE0079C531659141344CD1FD0A4F28419497F9722A3DAAFE3B4186F6B6457E0 SWAP1 DUP4 SWAP1 LOG3 PUSH1 0x0 DUP1 SLOAD PUSH1 0x1 PUSH1 0x1 PUSH1 0xA0 SHL SUB NOT AND SWAP1 SSTORE JUMP JUMPDEST PUSH2 0x886 PUSH2 0xA87 JUMP JUMPDEST PUSH1 0x1 PUSH1 0x1 PUSH1 0xA0 SHL SUB AND PUSH2 0x897 PUSH2 0x8EA JUMP JUMPDEST PUSH1 0x1 PUSH1 0x1 PUSH1 0xA0 SHL SUB AND EQ PUSH2 0x8BD JUMPI PUSH1 0x40 MLOAD PUSH3 0x461BCD PUSH1 0xE5 SHL DUP2 MSTORE PUSH1 0x4 ADD PUSH2 0x3D3 SWAP1 PUSH2 0x1288 JUMP JUMPDEST PUSH2 0x8C5 PUSH2 0x6E6 JUMP JUMPDEST ISZERO PUSH2 0x8E2 JUMPI PUSH1 0x40 MLOAD PUSH3 0x461BCD PUSH1 0xE5 SHL DUP2 MSTORE PUSH1 0x4 ADD PUSH2 0x3D3 SWAP1 PUSH2 0x11DF JUMP JUMPDEST PUSH2 0x64F PUSH2 0xE7B JUMP JUMPDEST PUSH1 0x0 SLOAD PUSH1 0x1 PUSH1 0x1 PUSH1 0xA0 SHL SUB AND SWAP1 JUMP JUMPDEST PUSH1 0x60 PUSH1 0x7 DUP1 SLOAD PUSH2 0x2F4 SWAP1 PUSH2 0x1493 JUMP JUMPDEST PUSH1 0x0 DUP1 PUSH1 0x4 PUSH1 0x0 PUSH2 0x917 PUSH2 0xA87 JUMP JUMPDEST PUSH1 0x1 PUSH1 0x1 PUSH1 0xA0 SHL SUB SWAP1 DUP2 AND DUP3 MSTORE PUSH1 0x20 DUP1 DUP4 ADD SWAP4 SWAP1 SWAP4 MSTORE PUSH1 0x40 SWAP2 DUP3 ADD PUSH1 0x0 SWAP1 DUP2 KECCAK256 SWAP2 DUP9 AND DUP2 MSTORE SWAP3 MSTORE SWAP1 KECCAK256 SLOAD SWAP1 POP DUP3 DUP2 LT ISZERO PUSH2 0x963 JUMPI PUSH1 0x40 MLOAD PUSH3 0x461BCD PUSH1 0xE5 SHL DUP2 MSTORE PUSH1 0x4 ADD PUSH2 0x3D3 SWAP1 PUSH2 0x1387 JUMP JUMPDEST PUSH2 0x979 PUSH2 0x96E PUSH2 0xA87 JUMP JUMPDEST DUP6 PUSH2 0x554 DUP7 DUP6 PUSH2 0x147C JUMP JUMPDEST POP PUSH1 0x1 SWAP4 SWAP3 POP POP POP JUMP JUMPDEST PUSH1 0x0 PUSH2 0x38B PUSH2 0x990 PUSH2 0xA87 JUMP JUMPDEST DUP5 DUP5 PUSH2 0xB3F JUMP JUMPDEST PUSH1 0x1 PUSH1 0x1 PUSH1 0xA0 SHL SUB SWAP2 DUP3 AND PUSH1 0x0 SWAP1 DUP2 MSTORE PUSH1 0x4 PUSH1 0x20 SWAP1 DUP2 MSTORE PUSH1 0x40 DUP1 DUP4 KECCAK256 SWAP4 SWAP1 SWAP5 AND DUP3 MSTORE SWAP2 SWAP1 SWAP2 MSTORE KECCAK256 SLOAD SWAP1 JUMP JUMPDEST PUSH2 0x9CA PUSH2 0xA87 JUMP JUMPDEST PUSH1 0x1 PUSH1 0x1 PUSH1 0xA0 SHL SUB AND PUSH2 0x9DB PUSH2 0x8EA JUMP JUMPDEST PUSH1 0x1 PUSH1 0x1 PUSH1 0xA0 SHL SUB AND EQ PUSH2 0xA01 JUMPI PUSH1 0x40 MLOAD PUSH3 0x461BCD PUSH1 0xE5 SHL DUP2 MSTORE PUSH1 0x4 ADD PUSH2 0x3D3 SWAP1 PUSH2 0x1288 JUMP JUMPDEST PUSH1 0x1 PUSH1 0x1 PUSH1 0xA0 SHL SUB DUP2 AND PUSH2 0xA27 JUMPI PUSH1 0x40 MLOAD PUSH3 0x461BCD PUSH1 0xE5 SHL DUP2 MSTORE PUSH1 0x4 ADD PUSH2 0x3D3 SWAP1 PUSH2 0x1111 JUMP JUMPDEST PUSH1 0x0 DUP1 SLOAD PUSH1 0x40 MLOAD PUSH1 0x1 PUSH1 0x1 PUSH1 0xA0 SHL SUB DUP1 DUP6 AND SWAP4 SWAP3 AND SWAP2 PUSH32 0x8BE0079C531659141344CD1FD0A4F28419497F9722A3DAAFE3B4186F6B6457E0 SWAP2 LOG3 PUSH1 0x0 DUP1 SLOAD PUSH1 0x1 PUSH1 0x1 PUSH1 0xA0 SHL SUB NOT AND PUSH1 0x1 PUSH1 0x1 PUSH1 0xA0 SHL SUB SWAP3 SWAP1 SWAP3 AND SWAP2 SWAP1 SWAP2 OR SWAP1 SSTORE JUMP JUMPDEST POP POP POP JUMP JUMPDEST CALLER SWAP1 JUMP JUMPDEST PUSH1 0x1 PUSH1 0x1 PUSH1 0xA0 SHL SUB DUP4 AND PUSH2 0xAB1 JUMPI PUSH1 0x40 MLOAD PUSH3 0x461BCD PUSH1 0xE5 SHL DUP2 MSTORE PUSH1 0x4 ADD PUSH2 0x3D3 SWAP1 PUSH2 0x1343 JUMP JUMPDEST PUSH1 0x1 PUSH1 0x1 PUSH1 0xA0 SHL SUB DUP3 AND PUSH2 0xAD7 JUMPI PUSH1 0x40 MLOAD PUSH3 0x461BCD PUSH1 0xE5 SHL DUP2 MSTORE PUSH1 0x4 ADD PUSH2 0x3D3 SWAP1 PUSH2 0x1157 JUMP JUMPDEST PUSH1 0x1 PUSH1 0x1 PUSH1 0xA0 SHL SUB DUP1 DUP5 AND PUSH1 0x0 DUP2 DUP2 MSTORE PUSH1 0x4 PUSH1 0x20 SWAP1 DUP2 MSTORE PUSH1 0x40 DUP1 DUP4 KECCAK256 SWAP5 DUP8 AND DUP1 DUP5 MSTORE SWAP5 SWAP1 SWAP2 MSTORE SWAP1 DUP2 SWAP1 KECCAK256 DUP5 SWAP1 SSTORE MLOAD PUSH32 0x8C5BE1E5EBEC7D5BD14F71427D1E84F3DD0314C0F7B2291E5B200AC8C7C3B925 SWAP1 PUSH2 0xB32 SWAP1 DUP6 SWAP1 PUSH2 0x144D JUMP JUMPDEST PUSH1 0x40 MLOAD DUP1 SWAP2 SUB SWAP1 LOG3 POP POP POP JUMP JUMPDEST PUSH1 0x1 PUSH1 0x1 PUSH1 0xA0 SHL SUB DUP4 AND PUSH2 0xB65 JUMPI PUSH1 0x40 MLOAD PUSH3 0x461BCD PUSH1 0xE5 SHL DUP2 MSTORE PUSH1 0x4 ADD PUSH2 0x3D3 SWAP1 PUSH2 0x12FE JUMP JUMPDEST PUSH1 0x1 PUSH1 0x1 PUSH1 0xA0 SHL SUB DUP3 AND PUSH2 0xB8B JUMPI PUSH1 0x40 MLOAD PUSH3 0x461BCD PUSH1 0xE5 SHL DUP2 MSTORE PUSH1 0x4 ADD PUSH2 0x3D3 SWAP1 PUSH2 0x105E JUMP JUMPDEST PUSH2 0xB96 DUP4 DUP4 DUP4 PUSH2 0xED6 JUMP JUMPDEST PUSH1 0x1 PUSH1 0x1 PUSH1 0xA0 SHL SUB DUP4 AND PUSH1 0x0 SWAP1 DUP2 MSTORE PUSH1 0x3 PUSH1 0x20 MSTORE PUSH1 0x40 SWAP1 KECCAK256 SLOAD DUP2 DUP2 LT ISZERO PUSH2 0xBCF JUMPI PUSH1 0x40 MLOAD PUSH3 0x461BCD PUSH1 0xE5 SHL DUP2 MSTORE PUSH1 0x4 ADD PUSH2 0x3D3 SWAP1 PUSH2 0x1199 JUMP JUMPDEST PUSH2 0xBD9 DUP3 DUP3 PUSH2 0x147C JUMP JUMPDEST PUSH1 0x1 PUSH1 0x1 PUSH1 0xA0 SHL SUB DUP1 DUP7 AND PUSH1 0x0 SWAP1 DUP2 MSTORE PUSH1 0x3 PUSH1 0x20 MSTORE PUSH1 0x40 DUP1 DUP3 KECCAK256 SWAP4 SWAP1 SWAP4 SSTORE SWAP1 DUP6 AND DUP2 MSTORE SWAP1 DUP2 KECCAK256 DUP1 SLOAD DUP5 SWAP3 SWAP1 PUSH2 0xC0F SWAP1 DUP5 SWAP1 PUSH2 0x1464 JUMP JUMPDEST SWAP3 POP POP DUP2 SWAP1 SSTORE POP DUP3 PUSH1 0x1 PUSH1 0x1 PUSH1 0xA0 SHL SUB AND DUP5 PUSH1 0x1 PUSH1 0x1 PUSH1 0xA0 SHL SUB AND PUSH32 0xDDF252AD1BE2C89B69C2B068FC378DAA952BA7F163C4A11628F55A4DF523B3EF DUP5 PUSH1 0x40 MLOAD PUSH2 0xC59 SWAP2 SWAP1 PUSH2 0x144D JUMP JUMPDEST PUSH1 0x40 MLOAD DUP1 SWAP2 SUB SWAP1 LOG3 POP POP POP POP JUMP JUMPDEST PUSH2 0xC6F PUSH2 0x6E6 JUMP JUMPDEST PUSH2 0xC8B JUMPI PUSH1 0x40 MLOAD PUSH3 0x461BCD PUSH1 0xE5 SHL DUP2 MSTORE PUSH1 0x4 ADD PUSH2 0x3D3 SWAP1 PUSH2 0x10A1 JUMP JUMPDEST PUSH1 0x8 DUP1 SLOAD PUSH1 0xFF NOT AND SWAP1 SSTORE PUSH32 0x5DB9EE0A495BF2E6FF9C91A7834C1BA4FDD244A5E8AA4E537BD38AEAE4B073AA PUSH2 0xCBE PUSH2 0xA87 JUMP JUMPDEST PUSH1 0x40 MLOAD PUSH2 0xCCB SWAP2 SWAP1 PUSH2 0xFEC JUMP JUMPDEST PUSH1 0x40 MLOAD DUP1 SWAP2 SUB SWAP1 LOG1 JUMP JUMPDEST PUSH1 0x1 PUSH1 0x1 PUSH1 0xA0 SHL SUB DUP3 AND PUSH2 0xCFB JUMPI PUSH1 0x40 MLOAD PUSH3 0x461BCD PUSH1 0xE5 SHL DUP2 MSTORE PUSH1 0x4 ADD PUSH2 0x3D3 SWAP1 PUSH2 0x13CC JUMP JUMPDEST PUSH2 0xD07 PUSH1 0x0 DUP4 DUP4 PUSH2 0xED6 JUMP JUMPDEST DUP1 PUSH1 0x5 PUSH1 0x0 DUP3 DUP3 SLOAD PUSH2 0xD19 SWAP2 SWAP1 PUSH2 0x1464 JUMP JUMPDEST SWAP1 SWAP2 SSTORE POP POP PUSH1 0x1 PUSH1 0x1 PUSH1 0xA0 SHL SUB DUP3 AND PUSH1 0x0 SWAP1 DUP2 MSTORE PUSH1 0x3 PUSH1 0x20 MSTORE PUSH1 0x40 DUP2 KECCAK256 DUP1 SLOAD DUP4 SWAP3 SWAP1 PUSH2 0xD46 SWAP1 DUP5 SWAP1 PUSH2 0x1464 JUMP JUMPDEST SWAP1 SWAP2 SSTORE POP POP PUSH1 0x40 MLOAD PUSH1 0x1 PUSH1 0x1 PUSH1 0xA0 SHL SUB DUP4 AND SWAP1 PUSH1 0x0 SWAP1 PUSH32 0xDDF252AD1BE2C89B69C2B068FC378DAA952BA7F163C4A11628F55A4DF523B3EF SWAP1 PUSH2 0xD89 SWAP1 DUP6 SWAP1 PUSH2 0x144D JUMP JUMPDEST PUSH1 0x40 MLOAD DUP1 SWAP2 SUB SWAP1 LOG3 POP POP JUMP JUMPDEST PUSH1 0x1 PUSH1 0x1 PUSH1 0xA0 SHL SUB DUP3 AND PUSH2 0xDBB JUMPI PUSH1 0x40 MLOAD PUSH3 0x461BCD PUSH1 0xE5 SHL DUP2 MSTORE PUSH1 0x4 ADD PUSH2 0x3D3 SWAP1 PUSH2 0x12BD JUMP JUMPDEST PUSH2 0xDC7 DUP3 PUSH1 0x0 DUP4 PUSH2 0xED6 JUMP JUMPDEST PUSH1 0x1 PUSH1 0x1 PUSH1 0xA0 SHL SUB DUP3 AND PUSH1 0x0 SWAP1 DUP2 MSTORE PUSH1 0x3 PUSH1 0x20 MSTORE PUSH1 0x40 SWAP1 KECCAK256 SLOAD DUP2 DUP2 LT ISZERO PUSH2 0xE00 JUMPI PUSH1 0x40 MLOAD PUSH3 0x461BCD PUSH1 0xE5 SHL DUP2 MSTORE PUSH1 0x4 ADD PUSH2 0x3D3 SWAP1 PUSH2 0x10CF JUMP JUMPDEST PUSH2 0xE0A DUP3 DUP3 PUSH2 0x147C JUMP JUMPDEST PUSH1 0x1 PUSH1 0x1 PUSH1 0xA0 SHL SUB DUP5 AND PUSH1 0x0 SWAP1 DUP2 MSTORE PUSH1 0x3 PUSH1 0x20 MSTORE PUSH1 0x40 DUP2 KECCAK256 SWAP2 SWAP1 SWAP2 SSTORE PUSH1 0x5 DUP1 SLOAD DUP5 SWAP3 SWAP1 PUSH2 0xE38 SWAP1 DUP5 SWAP1 PUSH2 0x147C JUMP JUMPDEST SWAP1 SWAP2 SSTORE POP POP PUSH1 0x40 MLOAD PUSH1 0x0 SWAP1 PUSH1 0x1 PUSH1 0x1 PUSH1 0xA0 SHL SUB DUP6 AND SWAP1 PUSH32 0xDDF252AD1BE2C89B69C2B068FC378DAA952BA7F163C4A11628F55A4DF523B3EF SWAP1 PUSH2 0xB32 SWAP1 DUP7 SWAP1 PUSH2 0x144D JUMP JUMPDEST PUSH2 0xE83 PUSH2 0x6E6 JUMP JUMPDEST ISZERO PUSH2 0xEA0 JUMPI PUSH1 0x40 MLOAD PUSH3 0x461BCD PUSH1 0xE5 SHL DUP2 MSTORE PUSH1 0x4 ADD PUSH2 0x3D3 SWAP1 PUSH2 0x11DF JUMP JUMPDEST PUSH1 0x8 DUP1 SLOAD PUSH1 0xFF NOT AND PUSH1 0x1 OR SWAP1 SSTORE PUSH32 0x62E78CEA01BEE320CD4E420270B5EA74000D11B0C9F74754EBDBFC544B05A258 PUSH2 0xCBE PUSH2 0xA87 JUMP JUMPDEST PUSH2 0xEE1 DUP4 DUP4 DUP4 PUSH2 0xA82 JUMP JUMPDEST PUSH2 0xEE9 PUSH2 0x6E6 JUMP JUMPDEST ISZERO PUSH2 0xA82 JUMPI PUSH1 0x40 MLOAD PUSH3 0x461BCD PUSH1 0xE5 SHL DUP2 MSTORE PUSH1 0x4 ADD PUSH2 0x3D3 SWAP1 PUSH2 0x1403 JUMP JUMPDEST DUP1 CALLDATALOAD PUSH1 0x1 PUSH1 0x1 PUSH1 0xA0 SHL SUB DUP2 AND DUP2 EQ PUSH2 0x581 JUMPI PUSH1 0x0 DUP1 REVERT JUMPDEST PUSH1 0x0 PUSH1 0x20 DUP3 DUP5 SUB SLT ISZERO PUSH2 0xF2E JUMPI DUP1 DUP2 REVERT JUMPDEST PUSH2 0xF37 DUP3 PUSH2 0xF06 JUMP JUMPDEST SWAP4 SWAP3 POP POP POP JUMP JUMPDEST PUSH1 0x0 DUP1 PUSH1 0x40 DUP4 DUP6 SUB SLT ISZERO PUSH2 0xF50 JUMPI DUP1 DUP2 REVERT JUMPDEST PUSH2 0xF59 DUP4 PUSH2 0xF06 JUMP JUMPDEST SWAP2 POP PUSH2 0xF67 PUSH1 0x20 DUP5 ADD PUSH2 0xF06 JUMP JUMPDEST SWAP1 POP SWAP3 POP SWAP3 SWAP1 POP JUMP JUMPDEST PUSH1 0x0 DUP1 PUSH1 0x0 PUSH1 0x60 DUP5 DUP7 SUB SLT ISZERO PUSH2 0xF84 JUMPI DUP1 DUP2 REVERT JUMPDEST PUSH2 0xF8D DUP5 PUSH2 0xF06 JUMP JUMPDEST SWAP3 POP PUSH2 0xF9B PUSH1 0x20 DUP6 ADD PUSH2 0xF06 JUMP JUMPDEST SWAP2 POP PUSH1 0x40 DUP5 ADD CALLDATALOAD SWAP1 POP SWAP3 POP SWAP3 POP SWAP3 JUMP JUMPDEST PUSH1 0x0 DUP1 PUSH1 0x40 DUP4 DUP6 SUB SLT ISZERO PUSH2 0xFBD JUMPI DUP2 DUP3 REVERT JUMPDEST PUSH2 0xFC6 DUP4 PUSH2 0xF06 JUMP JUMPDEST SWAP5 PUSH1 0x20 SWAP4 SWAP1 SWAP4 ADD CALLDATALOAD SWAP4 POP POP POP JUMP JUMPDEST PUSH1 0x0 PUSH1 0x20 DUP3 DUP5 SUB SLT ISZERO PUSH2 0xFE5 JUMPI DUP1 DUP2 REVERT JUMPDEST POP CALLDATALOAD SWAP2 SWAP1 POP JUMP JUMPDEST PUSH1 0x1 PUSH1 0x1 PUSH1 0xA0 SHL SUB SWAP2 SWAP1 SWAP2 AND DUP2 MSTORE PUSH1 0x20 ADD SWAP1 JUMP JUMPDEST SWAP1 ISZERO ISZERO DUP2 MSTORE PUSH1 0x20 ADD SWAP1 JUMP JUMPDEST PUSH1 0x0 PUSH1 0x20 DUP1 DUP4 MSTORE DUP4 MLOAD DUP1 DUP3 DUP6 ADD MSTORE DUP3 JUMPDEST DUP2 DUP2 LT ISZERO PUSH2 0x1037 JUMPI DUP6 DUP2 ADD DUP4 ADD MLOAD DUP6 DUP3 ADD PUSH1 0x40 ADD MSTORE DUP3 ADD PUSH2 0x101B JUMP JUMPDEST DUP2 DUP2 GT ISZERO PUSH2 0x1048 JUMPI DUP4 PUSH1 0x40 DUP4 DUP8 ADD ADD MSTORE JUMPDEST POP PUSH1 0x1F ADD PUSH1 0x1F NOT AND SWAP3 SWAP1 SWAP3 ADD PUSH1 0x40 ADD SWAP4 SWAP3 POP POP POP JUMP JUMPDEST PUSH1 0x20 DUP1 DUP3 MSTORE PUSH1 0x23 SWAP1 DUP3 ADD MSTORE PUSH32 0x45524332303A207472616E7366657220746F20746865207A65726F2061646472 PUSH1 0x40 DUP3 ADD MSTORE PUSH3 0x657373 PUSH1 0xE8 SHL PUSH1 0x60 DUP3 ADD MSTORE PUSH1 0x80 ADD SWAP1 JUMP JUMPDEST PUSH1 0x20 DUP1 DUP3 MSTORE PUSH1 0x14 SWAP1 DUP3 ADD MSTORE PUSH20 0x14185D5CD8589B194E881B9BDD081C185D5CD959 PUSH1 0x62 SHL PUSH1 0x40 DUP3 ADD MSTORE PUSH1 0x60 ADD SWAP1 JUMP JUMPDEST PUSH1 0x20 DUP1 DUP3 MSTORE PUSH1 0x22 SWAP1 DUP3 ADD MSTORE PUSH32 0x45524332303A206275726E20616D6F756E7420657863656564732062616C616E PUSH1 0x40 DUP3 ADD MSTORE PUSH2 0x6365 PUSH1 0xF0 SHL PUSH1 0x60 DUP3 ADD MSTORE PUSH1 0x80 ADD SWAP1 JUMP JUMPDEST PUSH1 0x20 DUP1 DUP3 MSTORE PUSH1 0x26 SWAP1 DUP3 ADD MSTORE PUSH32 0x4F776E61626C653A206E6577206F776E657220697320746865207A65726F2061 PUSH1 0x40 DUP3 ADD MSTORE PUSH6 0x646472657373 PUSH1 0xD0 SHL PUSH1 0x60 DUP3 ADD MSTORE PUSH1 0x80 ADD SWAP1 JUMP JUMPDEST PUSH1 0x20 DUP1 DUP3 MSTORE PUSH1 0x22 SWAP1 DUP3 ADD MSTORE PUSH32 0x45524332303A20617070726F766520746F20746865207A65726F206164647265 PUSH1 0x40 DUP3 ADD MSTORE PUSH2 0x7373 PUSH1 0xF0 SHL PUSH1 0x60 DUP3 ADD MSTORE PUSH1 0x80 ADD SWAP1 JUMP JUMPDEST PUSH1 0x20 DUP1 DUP3 MSTORE PUSH1 0x26 SWAP1 DUP3 ADD MSTORE PUSH32 0x45524332303A207472616E7366657220616D6F756E7420657863656564732062 PUSH1 0x40 DUP3 ADD MSTORE PUSH6 0x616C616E6365 PUSH1 0xD0 SHL PUSH1 0x60 DUP3 ADD MSTORE PUSH1 0x80 ADD SWAP1 JUMP JUMPDEST PUSH1 0x20 DUP1 DUP3 MSTORE PUSH1 0x10 SWAP1 DUP3 ADD MSTORE PUSH16 0x14185D5CD8589B194E881C185D5CD959 PUSH1 0x82 SHL PUSH1 0x40 DUP3 ADD MSTORE PUSH1 0x60 ADD SWAP1 JUMP JUMPDEST PUSH1 0x20 DUP1 DUP3 MSTORE PUSH1 0x18 SWAP1 DUP3 ADD MSTORE PUSH32 0x6D73672E73656E646572206D7573742062652061646D696E0000000000000000 PUSH1 0x40 DUP3 ADD MSTORE PUSH1 0x60 ADD SWAP1 JUMP JUMPDEST PUSH1 0x20 DUP1 DUP3 MSTORE PUSH1 0x28 SWAP1 DUP3 ADD MSTORE PUSH32 0x45524332303A207472616E7366657220616D6F756E7420657863656564732061 PUSH1 0x40 DUP3 ADD MSTORE PUSH8 0x6C6C6F77616E6365 PUSH1 0xC0 SHL PUSH1 0x60 DUP3 ADD MSTORE PUSH1 0x80 ADD SWAP1 JUMP JUMPDEST PUSH1 0x20 DUP1 DUP3 MSTORE DUP2 DUP2 ADD MSTORE PUSH32 0x4F776E61626C653A2063616C6C6572206973206E6F7420746865206F776E6572 PUSH1 0x40 DUP3 ADD MSTORE PUSH1 0x60 ADD SWAP1 JUMP JUMPDEST PUSH1 0x20 DUP1 DUP3 MSTORE PUSH1 0x21 SWAP1 DUP3 ADD MSTORE PUSH32 0x45524332303A206275726E2066726F6D20746865207A65726F20616464726573 PUSH1 0x40 DUP3 ADD MSTORE PUSH1 0x73 PUSH1 0xF8 SHL PUSH1 0x60 DUP3 ADD MSTORE PUSH1 0x80 ADD SWAP1 JUMP JUMPDEST PUSH1 0x20 DUP1 DUP3 MSTORE PUSH1 0x25 SWAP1 DUP3 ADD MSTORE PUSH32 0x45524332303A207472616E736665722066726F6D20746865207A65726F206164 PUSH1 0x40 DUP3 ADD MSTORE PUSH5 0x6472657373 PUSH1 0xD8 SHL PUSH1 0x60 DUP3 ADD MSTORE PUSH1 0x80 ADD SWAP1 JUMP JUMPDEST PUSH1 0x20 DUP1 DUP3 MSTORE PUSH1 0x24 SWAP1 DUP3 ADD MSTORE PUSH32 0x45524332303A20617070726F76652066726F6D20746865207A65726F20616464 PUSH1 0x40 DUP3 ADD MSTORE PUSH4 0x72657373 PUSH1 0xE0 SHL PUSH1 0x60 DUP3 ADD MSTORE PUSH1 0x80 ADD SWAP1 JUMP JUMPDEST PUSH1 0x20 DUP1 DUP3 MSTORE PUSH1 0x25 SWAP1 DUP3 ADD MSTORE PUSH32 0x45524332303A2064656372656173656420616C6C6F77616E63652062656C6F77 PUSH1 0x40 DUP3 ADD MSTORE PUSH5 0x207A65726F PUSH1 0xD8 SHL PUSH1 0x60 DUP3 ADD MSTORE PUSH1 0x80 ADD SWAP1 JUMP JUMPDEST PUSH1 0x20 DUP1 DUP3 MSTORE PUSH1 0x1F SWAP1 DUP3 ADD MSTORE PUSH32 0x45524332303A206D696E7420746F20746865207A65726F206164647265737300 PUSH1 0x40 DUP3 ADD MSTORE PUSH1 0x60 ADD SWAP1 JUMP JUMPDEST PUSH1 0x20 DUP1 DUP3 MSTORE PUSH1 0x2A SWAP1 DUP3 ADD MSTORE PUSH32 0x45524332305061757361626C653A20746F6B656E207472616E73666572207768 PUSH1 0x40 DUP3 ADD MSTORE PUSH10 0x1A5B19481C185D5CD959 PUSH1 0xB2 SHL PUSH1 0x60 DUP3 ADD MSTORE PUSH1 0x80 ADD SWAP1 JUMP JUMPDEST SWAP1 DUP2 MSTORE PUSH1 0x20 ADD SWAP1 JUMP JUMPDEST PUSH1 0xFF SWAP2 SWAP1 SWAP2 AND DUP2 MSTORE PUSH1 0x20 ADD SWAP1 JUMP JUMPDEST PUSH1 0x0 DUP3 NOT DUP3 GT ISZERO PUSH2 0x1477 JUMPI PUSH2 0x1477 PUSH2 0x14E9 JUMP JUMPDEST POP ADD SWAP1 JUMP JUMPDEST PUSH1 0x0 DUP3 DUP3 LT ISZERO PUSH2 0x148E JUMPI PUSH2 0x148E PUSH2 0x14E9 JUMP JUMPDEST POP SUB SWAP1 JUMP JUMPDEST PUSH1 0x2 DUP2 DIV PUSH1 0x1 DUP3 AND DUP1 PUSH2 0x14A7 JUMPI PUSH1 0x7F DUP3 AND SWAP2 POP JUMPDEST PUSH1 0x20 DUP3 LT DUP2 EQ ISZERO PUSH2 0x14C8 JUMPI PUSH4 0x4E487B71 PUSH1 0xE0 SHL PUSH1 0x0 MSTORE PUSH1 0x22 PUSH1 0x4 MSTORE PUSH1 0x24 PUSH1 0x0 REVERT JUMPDEST POP SWAP2 SWAP1 POP JUMP JUMPDEST PUSH1 0x0 PUSH1 0x0 NOT DUP3 EQ ISZERO PUSH2 0x14E2 JUMPI PUSH2 0x14E2 PUSH2 0x14E9 JUMP JUMPDEST POP PUSH1 0x1 ADD SWAP1 JUMP JUMPDEST PUSH4 0x4E487B71 PUSH1 0xE0 SHL PUSH1 0x0 MSTORE PUSH1 0x11 PUSH1 0x4 MSTORE PUSH1 0x24 PUSH1 0x0 REVERT INVALID LOG2 PUSH5 0x6970667358 0x22 SLT KECCAK256 0x5C PUSH32 0xB2A52237807C0D9C8254A48533CF4248ABA8B860BADB28BEEE4B067222BB6473 PUSH16 0x6C634300080000330000000000000000 "
		},
		"gasEstimates": {
			"creation": {
				"codeDepositCost": "1085800",
				"executionCost": "infinite",
				"totalCost": "infinite"
			},
			"external": {
				"INITIAL_SUPPLY()": "1073",
				"addAdmin(address)": "65936",
				"allowance(address,address)": "infinite",
				"approve(address,uint256)": "22629",
				"balanceOf(address)": "1359",
				"burn(uint256)": "infinite",
				"decimals()": "1113",
				"decreaseAllowance(address,uint256)": "infinite",
				"increaseAllowance(address,uint256)": "infinite",
				"isAdmin(address)": "infinite",
				"mint(address,uint256)": "infinite",
				"name()": "infinite",
				"owner()": "1092",
				"pause()": "infinite",
				"paused()": "1085",
				"removeAdmin(address)": "infinite",
				"renounceOwnership()": "24366",
				"symbol()": "infinite",
				"totalSupply()": "1118",
				"transfer(address,uint256)": "infinite",
				"transferFrom(address,address,uint256)": "infinite",
				"transferOwnership(address)": "24622",
				"unpause()": "infinite"
			}
		},
		"methodIdentifiers": {
			"INITIAL_SUPPLY()": "2ff2e9dc",
			"addAdmin(address)": "70480275",
			"allowance(address,address)": "dd62ed3e",
			"approve(address,uint256)": "095ea7b3",
			"balanceOf(address)": "70a08231",
			"burn(uint256)": "42966c68",
			"decimals()": "313ce567",
			"decreaseAllowance(address,uint256)": "a457c2d7",
			"increaseAllowance(address,uint256)": "39509351",
			"isAdmin(address)": "24d7806c",
			"mint(address,uint256)": "40c10f19",
			"name()": "06fdde03",
			"owner()": "8da5cb5b",
			"pause()": "8456cb59",
			"paused()": "5c975abb",
			"removeAdmin(address)": "1785f53c",
			"renounceOwnership()": "715018a6",
			"symbol()": "95d89b41",
			"totalSupply()": "18160ddd",
			"transfer(address,uint256)": "a9059cbb",
			"transferFrom(address,address,uint256)": "23b872dd",
			"transferOwnership(address)": "f2fde38b",
			"unpause()": "3f4ba83a"
		}
	},
	"abi": [
		{
			"inputs": [
				{
					"internalType": "string",
					"name": "_setName",
					"type": "string"
				},
				{
					"internalType": "string",
					"name": "_setSymbol",
					"type": "string"
				},
				{
					"internalType": "uint256",
					"name": "_setInitial_supply",
					"type": "uint256"
				},
				{
					"internalType": "uint8",
					"name": "_setDecimals",
					"type": "uint8"
				}
			],
			"stateMutability": "nonpayable",
			"type": "constructor"
		},
		{
			"anonymous": false,
			"inputs": [
				{
					"indexed": true,
					"internalType": "address",
					"name": "newAdmin",
					"type": "address"
				}
			],
			"name": "AddAdminLog",
			"type": "event"
		},
		{
			"anonymous": false,
			"inputs": [
				{
					"indexed": true,
					"internalType": "address",
					"name": "owner",
					"type": "address"
				},
				{
					"indexed": true,
					"internalType": "address",
					"name": "spender",
					"type": "address"
				},
				{
					"indexed": false,
					"internalType": "uint256",
					"name": "value",
					"type": "uint256"
				}
			],
			"name": "Approval",
			"type": "event"
		},
		{
			"anonymous": false,
			"inputs": [
				{
					"indexed": true,
					"internalType": "address",
					"name": "previousOwner",
					"type": "address"
				},
				{
					"indexed": true,
					"internalType": "address",
					"name": "newOwner",
					"type": "address"
				}
			],
			"name": "OwnershipTransferred",
			"type": "event"
		},
		{
			"anonymous": false,
			"inputs": [
				{
					"indexed": false,
					"internalType": "address",
					"name": "account",
					"type": "address"
				}
			],
			"name": "Paused",
			"type": "event"
		},
		{
			"anonymous": false,
			"inputs": [
				{
					"indexed": true,
					"internalType": "address",
					"name": "removedAdmin",
					"type": "address"
				}
			],
			"name": "RemoveAdminLog",
			"type": "event"
		},
		{
			"anonymous": false,
			"inputs": [
				{
					"indexed": true,
					"internalType": "address",
					"name": "from",
					"type": "address"
				},
				{
					"indexed": true,
					"internalType": "address",
					"name": "to",
					"type": "address"
				},
				{
					"indexed": false,
					"internalType": "uint256",
					"name": "value",
					"type": "uint256"
				}
			],
			"name": "Transfer",
			"type": "event"
		},
		{
			"anonymous": false,
			"inputs": [
				{
					"indexed": false,
					"internalType": "address",
					"name": "account",
					"type": "address"
				}
			],
			"name": "Unpaused",
			"type": "event"
		},
		{
			"inputs": [],
			"name": "INITIAL_SUPPLY",
			"outputs": [
				{
					"internalType": "uint256",
					"name": "",
					"type": "uint256"
				}
			],
			"stateMutability": "view",
			"type": "function"
		},
		{
			"inputs": [
				{
					"internalType": "address",
					"name": "_address",
					"type": "address"
				}
			],
			"name": "addAdmin",
			"outputs": [],
			"stateMutability": "nonpayable",
			"type": "function"
		},
		{
			"inputs": [
				{
					"internalType": "address",
					"name": "owner",
					"type": "address"
				},
				{
					"internalType": "address",
					"name": "spender",
					"type": "address"
				}
			],
			"name": "allowance",
			"outputs": [
				{
					"internalType": "uint256",
					"name": "",
					"type": "uint256"
				}
			],
			"stateMutability": "view",
			"type": "function"
		},
		{
			"inputs": [
				{
					"internalType": "address",
					"name": "spender",
					"type": "address"
				},
				{
					"internalType": "uint256",
					"name": "amount",
					"type": "uint256"
				}
			],
			"name": "approve",
			"outputs": [
				{
					"internalType": "bool",
					"name": "",
					"type": "bool"
				}
			],
			"stateMutability": "nonpayable",
			"type": "function"
		},
		{
			"inputs": [
				{
					"internalType": "address",
					"name": "account",
					"type": "address"
				}
			],
			"name": "balanceOf",
			"outputs": [
				{
					"internalType": "uint256",
					"name": "",
					"type": "uint256"
				}
			],
			"stateMutability": "view",
			"type": "function"
		},
		{
			"inputs": [
				{
					"internalType": "uint256",
					"name": "amount",
					"type": "uint256"
				}
			],
			"name": "burn",
			"outputs": [],
			"stateMutability": "nonpayable",
			"type": "function"
		},
		{
			"inputs": [],
			"name": "decimals",
			"outputs": [
				{
					"internalType": "uint8",
					"name": "",
					"type": "uint8"
				}
			],
			"stateMutability": "view",
			"type": "function"
		},
		{
			"inputs": [
				{
					"internalType": "address",
					"name": "spender",
					"type": "address"
				},
				{
					"internalType": "uint256",
					"name": "subtractedValue",
					"type": "uint256"
				}
			],
			"name": "decreaseAllowance",
			"outputs": [
				{
					"internalType": "bool",
					"name": "",
					"type": "bool"
				}
			],
			"stateMutability": "nonpayable",
			"type": "function"
		},
		{
			"inputs": [
				{
					"internalType": "address",
					"name": "spender",
					"type": "address"
				},
				{
					"internalType": "uint256",
					"name": "addedValue",
					"type": "uint256"
				}
			],
			"name": "increaseAllowance",
			"outputs": [
				{
					"internalType": "bool",
					"name": "",
					"type": "bool"
				}
			],
			"stateMutability": "nonpayable",
			"type": "function"
		},
		{
			"inputs": [
				{
					"internalType": "address",
					"name": "_address",
					"type": "address"
				}
			],
			"name": "isAdmin",
			"outputs": [
				{
					"internalType": "bool",
					"name": "",
					"type": "bool"
				}
			],
			"stateMutability": "view",
			"type": "function"
		},
		{
			"inputs": [
				{
					"internalType": "address",
					"name": "account",
					"type": "address"
				},
				{
					"internalType": "uint256",
					"name": "amount",
					"type": "uint256"
				}
			],
			"name": "mint",
			"outputs": [],
			"stateMutability": "nonpayable",
			"type": "function"
		},
		{
			"inputs": [],
			"name": "name",
			"outputs": [
				{
					"internalType": "string",
					"name": "",
					"type": "string"
				}
			],
			"stateMutability": "view",
			"type": "function"
		},
		{
			"inputs": [],
			"name": "owner",
			"outputs": [
				{
					"internalType": "address",
					"name": "",
					"type": "address"
				}
			],
			"stateMutability": "view",
			"type": "function"
		},
		{
			"inputs": [],
			"name": "pause",
			"outputs": [],
			"stateMutability": "nonpayable",
			"type": "function"
		},
		{
			"inputs": [],
			"name": "paused",
			"outputs": [
				{
					"internalType": "bool",
					"name": "",
					"type": "bool"
				}
			],
			"stateMutability": "view",
			"type": "function"
		},
		{
			"inputs": [
				{
					"internalType": "address",
					"name": "_address",
					"type": "address"
				}
			],
			"name": "removeAdmin",
			"outputs": [],
			"stateMutability": "nonpayable",
			"type": "function"
		},
		{
			"inputs": [],
			"name": "renounceOwnership",
			"outputs": [],
			"stateMutability": "nonpayable",
			"type": "function"
		},
		{
			"inputs": [],
			"name": "symbol",
			"outputs": [
				{
					"internalType": "string",
					"name": "",
					"type": "string"
				}
			],
			"stateMutability": "view",
			"type": "function"
		},
		{
			"inputs": [],
			"name": "totalSupply",
			"outputs": [
				{
					"internalType": "uint256",
					"name": "",
					"type": "uint256"
				}
			],
			"stateMutability": "view",
			"type": "function"
		},
		{
			"inputs": [
				{
					"internalType": "address",
					"name": "recipient",
					"type": "address"
				},
				{
					"internalType": "uint256",
					"name": "amount",
					"type": "uint256"
				}
			],
			"name": "transfer",
			"outputs": [
				{
					"internalType": "bool",
					"name": "",
					"type": "bool"
				}
			],
			"stateMutability": "nonpayable",
			"type": "function"
		},
		{
			"inputs": [
				{
					"internalType": "address",
					"name": "sender",
					"type": "address"
				},
				{
					"internalType": "address",
					"name": "recipient",
					"type": "address"
				},
				{
					"internalType": "uint256",
					"name": "amount",
					"type": "uint256"
				}
			],
			"name": "transferFrom",
			"outputs": [
				{
					"internalType": "bool",
					"name": "",
					"type": "bool"
				}
			],
			"stateMutability": "nonpayable",
			"type": "function"
		},
		{
			"inputs": [
				{
					"internalType": "address",
					"name": "newOwner",
					"type": "address"
				}
			],
			"name": "transferOwnership",
			"outputs": [],
			"stateMutability": "nonpayable",
			"type": "function"
		},
		{
			"inputs": [],
			"name": "unpause",
			"outputs": [],
			"stateMutability": "nonpayable",
			"type": "function"
		}
	]
}